{
  "_format": "hh-sol-artifact-1",
  "contractName": "BuildSpace",
  "sourceName": "contracts/BuildSpace.sol",
  "abi": [
    {
      "inputs": [
        {
          "internalType": "string",
          "name": "_contractBaseURI",
          "type": "string"
        }
      ],
      "stateMutability": "nonpayable",
      "type": "constructor"
    },
    {
      "anonymous": false,
      "inputs": [
        {
          "indexed": true,
          "internalType": "address",
          "name": "owner",
          "type": "address"
        },
        {
          "indexed": true,
          "internalType": "address",
          "name": "approved",
          "type": "address"
        },
        {
          "indexed": true,
          "internalType": "uint256",
          "name": "tokenId",
          "type": "uint256"
        }
      ],
      "name": "Approval",
      "type": "event"
    },
    {
      "anonymous": false,
      "inputs": [
        {
          "indexed": true,
          "internalType": "address",
          "name": "owner",
          "type": "address"
        },
        {
          "indexed": true,
          "internalType": "address",
          "name": "operator",
          "type": "address"
        },
        {
          "indexed": false,
          "internalType": "bool",
          "name": "approved",
          "type": "bool"
        }
      ],
      "name": "ApprovalForAll",
      "type": "event"
    },
    {
      "anonymous": false,
      "inputs": [
        {
          "indexed": true,
          "internalType": "address",
          "name": "_receiver",
          "type": "address"
        },
        {
          "indexed": true,
          "internalType": "string",
          "name": "_bountyId",
          "type": "string"
        },
        {
          "indexed": false,
          "internalType": "uint128",
          "name": "_bountyIndex",
          "type": "uint128"
        },
        {
          "indexed": false,
          "internalType": "uint256",
          "name": "_contractIndex",
          "type": "uint256"
        },
        {
          "indexed": false,
          "internalType": "bool",
          "name": "_isAdmin",
          "type": "bool"
        }
      ],
      "name": "Claim",
      "type": "event"
    },
    {
      "anonymous": false,
      "inputs": [
        {
          "indexed": true,
          "internalType": "address",
          "name": "previousOwner",
          "type": "address"
        },
        {
          "indexed": true,
          "internalType": "address",
          "name": "newOwner",
          "type": "address"
        }
      ],
      "name": "OwnershipTransferred",
      "type": "event"
    },
    {
      "anonymous": false,
      "inputs": [
        {
          "indexed": true,
          "internalType": "address",
          "name": "from",
          "type": "address"
        },
        {
          "indexed": true,
          "internalType": "address",
          "name": "to",
          "type": "address"
        },
        {
          "indexed": true,
          "internalType": "uint256",
          "name": "tokenId",
          "type": "uint256"
        }
      ],
      "name": "Transfer",
      "type": "event"
    },
    {
      "inputs": [
        {
          "internalType": "string",
          "name": "_bountyId",
          "type": "string"
        },
        {
          "internalType": "bytes32[]",
          "name": "_proof",
          "type": "bytes32[]"
        },
        {
          "internalType": "address",
          "name": "to",
          "type": "address"
        }
      ],
      "name": "adminClaimToken",
      "outputs": [
        {
          "internalType": "uint256",
          "name": "",
          "type": "uint256"
        }
      ],
      "stateMutability": "nonpayable",
      "type": "function"
    },
    {
      "inputs": [
        {
          "internalType": "address",
          "name": "to",
          "type": "address"
        },
        {
          "internalType": "uint256",
          "name": "tokenId",
          "type": "uint256"
        }
      ],
      "name": "approve",
      "outputs": [],
      "stateMutability": "nonpayable",
      "type": "function"
    },
    {
      "inputs": [
        {
          "internalType": "address",
          "name": "owner",
          "type": "address"
        }
      ],
      "name": "balanceOf",
      "outputs": [
        {
          "internalType": "uint256",
          "name": "",
          "type": "uint256"
        }
      ],
      "stateMutability": "view",
      "type": "function"
    },
    {
      "inputs": [
        {
          "internalType": "string",
          "name": "",
          "type": "string"
        }
      ],
      "name": "bountys",
      "outputs": [
        {
          "internalType": "uint128",
          "name": "limit",
          "type": "uint128"
        },
        {
          "internalType": "uint128",
          "name": "tokenMinted",
          "type": "uint128"
        },
        {
          "internalType": "bytes32",
          "name": "merkleRoot",
          "type": "bytes32"
        }
      ],
      "stateMutability": "view",
      "type": "function"
    },
    {
      "inputs": [
        {
          "internalType": "string",
          "name": "_bountyId",
          "type": "string"
        },
        {
          "internalType": "bytes32[]",
          "name": "_proof",
          "type": "bytes32[]"
        }
      ],
      "name": "claimToken",
      "outputs": [
        {
          "internalType": "uint256",
          "name": "",
          "type": "uint256"
        }
      ],
      "stateMutability": "nonpayable",
      "type": "function"
    },
    {
      "inputs": [
        {
          "internalType": "address",
          "name": "",
          "type": "address"
        },
        {
          "internalType": "string",
          "name": "",
          "type": "string"
        }
      ],
      "name": "claimed",
      "outputs": [
        {
          "internalType": "uint256",
          "name": "",
          "type": "uint256"
        }
      ],
      "stateMutability": "view",
      "type": "function"
    },
    {
      "inputs": [
        {
          "internalType": "string",
          "name": "_bountyId",
          "type": "string"
        },
        {
          "internalType": "uint128",
          "name": "_limit",
          "type": "uint128"
        },
        {
          "internalType": "bytes32",
          "name": "_merkleRoot",
          "type": "bytes32"
        }
      ],
      "name": "createBounty",
      "outputs": [],
      "stateMutability": "nonpayable",
      "type": "function"
    },
    {
      "inputs": [
        {
          "internalType": "uint256",
          "name": "tokenId",
          "type": "uint256"
        }
      ],
      "name": "getApproved",
      "outputs": [
        {
          "internalType": "address",
          "name": "",
          "type": "address"
        }
      ],
      "stateMutability": "view",
      "type": "function"
    },
    {
      "inputs": [
        {
          "internalType": "address",
          "name": "owner",
          "type": "address"
        },
        {
          "internalType": "address",
          "name": "operator",
          "type": "address"
        }
      ],
      "name": "isApprovedForAll",
      "outputs": [
        {
          "internalType": "bool",
          "name": "",
          "type": "bool"
        }
      ],
      "stateMutability": "view",
      "type": "function"
    },
    {
      "inputs": [],
      "name": "name",
      "outputs": [
        {
          "internalType": "string",
          "name": "",
          "type": "string"
        }
      ],
      "stateMutability": "view",
      "type": "function"
    },
    {
      "inputs": [],
      "name": "owner",
      "outputs": [
        {
          "internalType": "address",
          "name": "",
          "type": "address"
        }
      ],
      "stateMutability": "view",
      "type": "function"
    },
    {
      "inputs": [
        {
          "internalType": "uint256",
          "name": "tokenId",
          "type": "uint256"
        }
      ],
      "name": "ownerOf",
      "outputs": [
        {
          "internalType": "address",
          "name": "",
          "type": "address"
        }
      ],
      "stateMutability": "view",
      "type": "function"
    },
    {
      "inputs": [],
      "name": "renounceOwnership",
      "outputs": [],
      "stateMutability": "nonpayable",
      "type": "function"
    },
    {
      "inputs": [
        {
          "internalType": "address",
          "name": "from",
          "type": "address"
        },
        {
          "internalType": "address",
          "name": "to",
          "type": "address"
        },
        {
          "internalType": "uint256",
          "name": "tokenId",
          "type": "uint256"
        }
      ],
      "name": "safeTransferFrom",
      "outputs": [],
      "stateMutability": "nonpayable",
      "type": "function"
    },
    {
      "inputs": [
        {
          "internalType": "address",
          "name": "from",
          "type": "address"
        },
        {
          "internalType": "address",
          "name": "to",
          "type": "address"
        },
        {
          "internalType": "uint256",
          "name": "tokenId",
          "type": "uint256"
        },
        {
          "internalType": "bytes",
          "name": "_data",
          "type": "bytes"
        }
      ],
      "name": "safeTransferFrom",
      "outputs": [],
      "stateMutability": "nonpayable",
      "type": "function"
    },
    {
      "inputs": [
        {
          "internalType": "bool",
          "name": "_allowsTransfers",
          "type": "bool"
        }
      ],
      "name": "setAllowsTransfers",
      "outputs": [],
      "stateMutability": "nonpayable",
      "type": "function"
    },
    {
      "inputs": [
        {
          "internalType": "address",
          "name": "operator",
          "type": "address"
        },
        {
          "internalType": "bool",
          "name": "approved",
          "type": "bool"
        }
      ],
      "name": "setApprovalForAll",
      "outputs": [],
      "stateMutability": "nonpayable",
      "type": "function"
    },
    {
      "inputs": [
        {
          "internalType": "string",
          "name": "_bountyId",
          "type": "string"
        },
        {
          "internalType": "bytes32",
          "name": "_merkleRoot",
          "type": "bytes32"
        }
      ],
      "name": "setMerkleRoot",
      "outputs": [],
      "stateMutability": "nonpayable",
      "type": "function"
    },
    {
      "inputs": [
        {
          "internalType": "bytes4",
          "name": "interfaceId",
          "type": "bytes4"
        }
      ],
      "name": "supportsInterface",
      "outputs": [
        {
          "internalType": "bool",
          "name": "",
          "type": "bool"
        }
      ],
      "stateMutability": "view",
      "type": "function"
    },
    {
      "inputs": [],
      "name": "symbol",
      "outputs": [
        {
          "internalType": "string",
          "name": "",
          "type": "string"
        }
      ],
      "stateMutability": "view",
      "type": "function"
    },
    {
      "inputs": [
        {
          "internalType": "uint256",
          "name": "tokenId",
          "type": "uint256"
        }
      ],
      "name": "tokenURI",
      "outputs": [
        {
          "internalType": "string",
          "name": "",
          "type": "string"
        }
      ],
      "stateMutability": "view",
      "type": "function"
    },
    {
      "inputs": [
        {
          "internalType": "address",
          "name": "from",
          "type": "address"
        },
        {
          "internalType": "address",
          "name": "to",
          "type": "address"
        },
        {
          "internalType": "uint256",
          "name": "tokenId",
          "type": "uint256"
        }
      ],
      "name": "transferFrom",
      "outputs": [],
      "stateMutability": "nonpayable",
      "type": "function"
    },
    {
      "inputs": [
        {
          "internalType": "address",
          "name": "newOwner",
          "type": "address"
        }
      ],
      "name": "transferOwnership",
      "outputs": [],
      "stateMutability": "nonpayable",
      "type": "function"
    },
    {
      "inputs": [
        {
          "internalType": "address",
          "name": "_admin",
          "type": "address"
        },
        {
          "internalType": "bool",
          "name": "isAdmin",
          "type": "bool"
        }
      ],
      "name": "updateAdmin",
      "outputs": [],
      "stateMutability": "nonpayable",
      "type": "function"
    }
  ],
  "bytecode": "0x60806040526000600d60006101000a81548160ff0219169083151502179055503480156200002c57600080fd5b5060405162004e7238038062004e7283398181016040528101906200005291906200037a565b6040518060400160405280600a81526020017f6275696c645370616365000000000000000000000000000000000000000000008152506040518060400160405280600a81526020017f4255494c445350414345000000000000000000000000000000000000000000008152508160009080519060200190620000d692919062000258565b508060019080519060200190620000ef92919062000258565b50505062000112620001066200018a60201b60201c565b6200019260201b60201c565b6001600960003373ffffffffffffffffffffffffffffffffffffffff1673ffffffffffffffffffffffffffffffffffffffff16815260200190815260200160002060006101000a81548160ff02191690831515021790555080600c90805190602001906200018292919062000258565b50506200052f565b600033905090565b6000600760009054906101000a900473ffffffffffffffffffffffffffffffffffffffff16905081600760006101000a81548173ffffffffffffffffffffffffffffffffffffffff021916908373ffffffffffffffffffffffffffffffffffffffff1602179055508173ffffffffffffffffffffffffffffffffffffffff168173ffffffffffffffffffffffffffffffffffffffff167f8be0079c531659141344cd1fd0a4f28419497f9722a3daafe3b4186f6b6457e060405160405180910390a35050565b828054620002669062000454565b90600052602060002090601f0160209004810192826200028a5760008555620002d6565b82601f10620002a557805160ff1916838001178555620002d6565b82800160010185558215620002d6579182015b82811115620002d5578251825591602001919060010190620002b8565b5b509050620002e59190620002e9565b5090565b5b8082111562000304576000816000905550600101620002ea565b5090565b60006200031f6200031984620003e8565b620003bf565b9050828152602081018484840111156200033857600080fd5b620003458482856200041e565b509392505050565b600082601f8301126200035f57600080fd5b81516200037184826020860162000308565b91505092915050565b6000602082840312156200038d57600080fd5b600082015167ffffffffffffffff811115620003a857600080fd5b620003b6848285016200034d565b91505092915050565b6000620003cb620003de565b9050620003d982826200048a565b919050565b6000604051905090565b600067ffffffffffffffff821115620004065762000405620004ef565b5b62000411826200051e565b9050602081019050919050565b60005b838110156200043e57808201518184015260208101905062000421565b838111156200044e576000848401525b50505050565b600060028204905060018216806200046d57607f821691505b60208210811415620004845762000483620004c0565b5b50919050565b62000495826200051e565b810181811067ffffffffffffffff82111715620004b757620004b6620004ef565b5b80604052505050565b7f4e487b7100000000000000000000000000000000000000000000000000000000600052602260045260246000fd5b7f4e487b7100000000000000000000000000000000000000000000000000000000600052604160045260246000fd5b6000601f19601f8301169050919050565b614933806200053f6000396000f3fe608060405234801561001057600080fd5b50600436106101585760003560e01c8063715018a6116100c3578063b88d4fde1161007c578063b88d4fde146103c3578063c87b56dd146103df578063dbc191021461040f578063e4d515b41461043f578063e985e9c51461046f578063f2fde38b1461049f57610158565b8063715018a61461031357806375621cdd1461031d5780638da5cb5b1461034f57806395d89b411461036d578063a22cb4651461038b578063b7aafa87146103a757610158565b80633e8e3a7b116101155780633e8e3a7b1461024357806342842e0e1461025f5780635e51d31a1461027b5780636352211e14610297578063670a6fd9146102c757806370a08231146102e357610158565b806301ffc9a71461015d57806306fdde031461018d578063081812fc146101ab578063095ea7b3146101db57806323b872dd146101f7578063345d681814610213575b600080fd5b61017760048036038101906101729190612fe6565b6104bb565b60405161018491906137f5565b60405180910390f35b61019561059d565b6040516101a29190613810565b60405180910390f35b6101c560048036038101906101c0919061321f565b61062f565b6040516101d2919061378e565b60405180910390f35b6101f560048036038101906101f09190612f81565b6106b4565b005b610211600480360381019061020c9190612e27565b6107cc565b005b61022d60048036038101906102289190613079565b61082c565b60405161023a9190613bc0565b60405180910390f35b61025d600480360381019061025891906131b8565b61090b565b005b61027960048036038101906102749190612e27565b610b43565b005b61029560048036038101906102909190612fbd565b610b63565b005b6102b160048036038101906102ac919061321f565b610bdd565b6040516102be919061378e565b60405180910390f35b6102e160048036038101906102dc9190612ef1565b610c8f565b005b6102fd60048036038101906102f89190612dc2565b610d66565b60405161030a9190613bc0565b60405180910390f35b61031b610e1e565b005b61033760048036038101906103329190613038565b610ea6565b60405161034693929190613b52565b60405180910390f35b610357610f1e565b604051610364919061378e565b60405180910390f35b610375610f48565b6040516103829190613810565b60405180910390f35b6103a560048036038101906103a09190612ef1565b610fda565b005b6103c160048036038101906103bc9190613164565b610ff0565b005b6103dd60048036038101906103d89190612e76565b611109565b005b6103f960048036038101906103f4919061321f565b61116b565b6040516104069190613810565b60405180910390f35b61042960048036038101906104249190612f2d565b6112bd565b6040516104369190613bc0565b60405180910390f35b610459600480360381019061045491906130e5565b6112f8565b6040516104669190613bc0565b60405180910390f35b61048960048036038101906104849190612deb565b61139e565b60405161049691906137f5565b60405180910390f35b6104b960048036038101906104b49190612dc2565b611432565b005b60007f80ac58cd000000000000000000000000000000000000000000000000000000007bffffffffffffffffffffffffffffffffffffffffffffffffffffffff1916827bffffffffffffffffffffffffffffffffffffffffffffffffffffffff1916148061058657507f5b5e139f000000000000000000000000000000000000000000000000000000007bffffffffffffffffffffffffffffffffffffffffffffffffffffffff1916827bffffffffffffffffffffffffffffffffffffffffffffffffffffffff1916145b8061059657506105958261152a565b5b9050919050565b6060600080546105ac90613f09565b80601f01602080910402602001604051908101604052809291908181526020018280546105d890613f09565b80156106255780601f106105fa57610100808354040283529160200191610625565b820191906000526020600020905b81548152906001019060200180831161060857829003601f168201915b5050505050905090565b600061063a82611594565b610679576040517f08c379a000000000000000000000000000000000000000000000000000000000815260040161067090613a52565b60405180910390fd5b6004600083815260200190815260200160002060009054906101000a900473ffffffffffffffffffffffffffffffffffffffff169050919050565b60006106bf82610bdd565b90508073ffffffffffffffffffffffffffffffffffffffff168373ffffffffffffffffffffffffffffffffffffffff161415610730576040517f08c379a000000000000000000000000000000000000000000000000000000000815260040161072790613af2565b60405180910390fd5b8073ffffffffffffffffffffffffffffffffffffffff1661074f611600565b73ffffffffffffffffffffffffffffffffffffffff16148061077e575061077d81610778611600565b61139e565b5b6107bd576040517f08c379a00000000000000000000000000000000000000000000000000000000081526004016107b490613992565b60405180910390fd5b6107c78383611608565b505050565b6107dd6107d7611600565b826116c1565b61081c576040517f08c379a000000000000000000000000000000000000000000000000000000000815260040161081390613b32565b60405180910390fd5b61082783838361179f565b505050565b600082823360008160405160200161084491906136fe565b60405160208183030381529060405280519060200120905060003360405160200161086f91906136fe565b6040516020818303038152906040528051906020012090506108b387600a8a60405161089b9190613719565b90815260200160405180910390206001015483611a06565b6108f2576040517f08c379a00000000000000000000000000000000000000000000000000000000081526004016108e990613ad2565b60405180910390fd5b6108fe88336000611a1d565b9550505050505092915050565b60011515600960003373ffffffffffffffffffffffffffffffffffffffff1673ffffffffffffffffffffffffffffffffffffffff16815260200190815260200160002060009054906101000a900460ff1615151461096857600080fd5b6000600a8460405161097a9190613719565b908152602001604051809103902060000160009054906101000a90046fffffffffffffffffffffffffffffffff166fffffffffffffffffffffffffffffffff16146109fa576040517f08c379a00000000000000000000000000000000000000000000000000000000081526004016109f190613972565b60405180910390fd5b6000826fffffffffffffffffffffffffffffffff1611610a4f576040517f08c379a0000000000000000000000000000000000000000000000000000000008152600401610a4690613ab2565b60405180910390fd5b60006040518060600160405280846fffffffffffffffffffffffffffffffff16815260200160006fffffffffffffffffffffffffffffffff16815260200183815250905080600a85604051610aa49190613719565b908152602001604051809103902060008201518160000160006101000a8154816fffffffffffffffffffffffffffffffff02191690836fffffffffffffffffffffffffffffffff16021790555060208201518160000160106101000a8154816fffffffffffffffffffffffffffffffff02191690836fffffffffffffffffffffffffffffffff1602179055506040820151816001015590505050505050565b610b5e83838360405180602001604052806000815250611109565b505050565b60011515600960003373ffffffffffffffffffffffffffffffffffffffff1673ffffffffffffffffffffffffffffffffffffffff16815260200190815260200160002060009054906101000a900460ff16151514610bc057600080fd5b80600d60006101000a81548160ff02191690831515021790555050565b6000806002600084815260200190815260200160002060009054906101000a900473ffffffffffffffffffffffffffffffffffffffff169050600073ffffffffffffffffffffffffffffffffffffffff168173ffffffffffffffffffffffffffffffffffffffff161415610c86576040517f08c379a0000000000000000000000000000000000000000000000000000000008152600401610c7d906139d2565b60405180910390fd5b80915050919050565b610c97611600565b73ffffffffffffffffffffffffffffffffffffffff16610cb5610f1e565b73ffffffffffffffffffffffffffffffffffffffff1614610d0b576040517f08c379a0000000000000000000000000000000000000000000000000000000008152600401610d0290613a72565b60405180910390fd5b80600960008473ffffffffffffffffffffffffffffffffffffffff1673ffffffffffffffffffffffffffffffffffffffff16815260200190815260200160002060006101000a81548160ff0219169083151502179055505050565b60008073ffffffffffffffffffffffffffffffffffffffff168273ffffffffffffffffffffffffffffffffffffffff161415610dd7576040517f08c379a0000000000000000000000000000000000000000000000000000000008152600401610dce906139b2565b60405180910390fd5b600360008373ffffffffffffffffffffffffffffffffffffffff1673ffffffffffffffffffffffffffffffffffffffff168152602001908152602001600020549050919050565b610e26611600565b73ffffffffffffffffffffffffffffffffffffffff16610e44610f1e565b73ffffffffffffffffffffffffffffffffffffffff1614610e9a576040517f08c379a0000000000000000000000000000000000000000000000000000000008152600401610e9190613a72565b60405180910390fd5b610ea46000611d76565b565b600a818051602081018201805184825260208301602085012081835280955050505050506000915090508060000160009054906101000a90046fffffffffffffffffffffffffffffffff16908060000160109054906101000a90046fffffffffffffffffffffffffffffffff16908060010154905083565b6000600760009054906101000a900473ffffffffffffffffffffffffffffffffffffffff16905090565b606060018054610f5790613f09565b80601f0160208091040260200160405190810160405280929190818152602001828054610f8390613f09565b8015610fd05780601f10610fa557610100808354040283529160200191610fd0565b820191906000526020600020905b815481529060010190602001808311610fb357829003601f168201915b5050505050905090565b610fec610fe5611600565b8383611e3c565b5050565b60011515600960003373ffffffffffffffffffffffffffffffffffffffff1673ffffffffffffffffffffffffffffffffffffffff16815260200190815260200160002060009054906101000a900460ff1615151461104d57600080fd5b6000600a8360405161105f9190613719565b908152602001604051809103902060000160009054906101000a90046fffffffffffffffffffffffffffffffff166fffffffffffffffffffffffffffffffff16116110df576040517f08c379a00000000000000000000000000000000000000000000000000000000081526004016110d690613912565b60405180910390fd5b80600a836040516110f09190613719565b9081526020016040518091039020600101819055505050565b61111a611114611600565b836116c1565b611159576040517f08c379a000000000000000000000000000000000000000000000000000000000815260040161115090613b32565b60405180910390fd5b61116584848484611fa9565b50505050565b606061117682611594565b6111b5576040517f08c379a00000000000000000000000000000000000000000000000000000000081526004016111ac90613a32565b60405180910390fd5b60006006600084815260200190815260200160002080546111d590613f09565b80601f016020809104026020016040519081016040528092919081815260200182805461120190613f09565b801561124e5780601f106112235761010080835404028352916020019161124e565b820191906000526020600020905b81548152906001019060200180831161123157829003601f168201915b50505050509050600061125f612005565b90506000815114156112755781925050506112b8565b6000825111156112aa578082604051602001611292929190613730565b604051602081830303815290604052925050506112b8565b6112b384612097565b925050505b919050565b600860205281600052604060002081805160208101820180518482526020830160208501208183528095505050505050600091509150505481565b600060011515600960003373ffffffffffffffffffffffffffffffffffffffff1673ffffffffffffffffffffffffffffffffffffffff16815260200190815260200160002060009054906101000a900460ff1615151461135757600080fd5b83838360008160405160200161136d91906136fe565b60405160208183030381529060405280519060200120905061139188876001611a1d565b9450505050509392505050565b6000600560008473ffffffffffffffffffffffffffffffffffffffff1673ffffffffffffffffffffffffffffffffffffffff16815260200190815260200160002060008373ffffffffffffffffffffffffffffffffffffffff1673ffffffffffffffffffffffffffffffffffffffff16815260200190815260200160002060009054906101000a900460ff16905092915050565b61143a611600565b73ffffffffffffffffffffffffffffffffffffffff16611458610f1e565b73ffffffffffffffffffffffffffffffffffffffff16146114ae576040517f08c379a00000000000000000000000000000000000000000000000000000000081526004016114a590613a72565b60405180910390fd5b600073ffffffffffffffffffffffffffffffffffffffff168173ffffffffffffffffffffffffffffffffffffffff16141561151e576040517f08c379a000000000000000000000000000000000000000000000000000000000815260040161151590613852565b60405180910390fd5b61152781611d76565b50565b60007f01ffc9a7000000000000000000000000000000000000000000000000000000007bffffffffffffffffffffffffffffffffffffffffffffffffffffffff1916827bffffffffffffffffffffffffffffffffffffffffffffffffffffffff1916149050919050565b60008073ffffffffffffffffffffffffffffffffffffffff166002600084815260200190815260200160002060009054906101000a900473ffffffffffffffffffffffffffffffffffffffff1673ffffffffffffffffffffffffffffffffffffffff1614159050919050565b600033905090565b816004600083815260200190815260200160002060006101000a81548173ffffffffffffffffffffffffffffffffffffffff021916908373ffffffffffffffffffffffffffffffffffffffff160217905550808273ffffffffffffffffffffffffffffffffffffffff1661167b83610bdd565b73ffffffffffffffffffffffffffffffffffffffff167f8c5be1e5ebec7d5bd14f71427d1e84f3dd0314c0f7b2291e5b200ac8c7c3b92560405160405180910390a45050565b60006116cc82611594565b61170b576040517f08c379a000000000000000000000000000000000000000000000000000000000815260040161170290613952565b60405180910390fd5b600061171683610bdd565b90508073ffffffffffffffffffffffffffffffffffffffff168473ffffffffffffffffffffffffffffffffffffffff16148061178557508373ffffffffffffffffffffffffffffffffffffffff1661176d8461062f565b73ffffffffffffffffffffffffffffffffffffffff16145b806117965750611795818561139e565b5b91505092915050565b8273ffffffffffffffffffffffffffffffffffffffff166117bf82610bdd565b73ffffffffffffffffffffffffffffffffffffffff1614611815576040517f08c379a000000000000000000000000000000000000000000000000000000000815260040161180c90613872565b60405180910390fd5b600073ffffffffffffffffffffffffffffffffffffffff168273ffffffffffffffffffffffffffffffffffffffff161415611885576040517f08c379a000000000000000000000000000000000000000000000000000000000815260040161187c906138d2565b60405180910390fd5b61189083838361213e565b61189b600082611608565b6001600360008573ffffffffffffffffffffffffffffffffffffffff1673ffffffffffffffffffffffffffffffffffffffff16815260200190815260200160002060008282546118eb9190613dcf565b925050819055506001600360008473ffffffffffffffffffffffffffffffffffffffff1673ffffffffffffffffffffffffffffffffffffffff16815260200190815260200160002060008282546119429190613d17565b92505081905550816002600083815260200190815260200160002060006101000a81548173ffffffffffffffffffffffffffffffffffffffff021916908373ffffffffffffffffffffffffffffffffffffffff160217905550808273ffffffffffffffffffffffffffffffffffffffff168473ffffffffffffffffffffffffffffffffffffffff167fddf252ad1be2c89b69c2b068fc378daa952ba7f163c4a11628f55a4df523b3ef60405160405180910390a4611a0183838361220b565b505050565b600082611a138584612210565b1490509392505050565b60008383600a82604051611a319190613719565b908152602001604051809103902060000160009054906101000a90046fffffffffffffffffffffffffffffffff166fffffffffffffffffffffffffffffffff16600a83604051611a819190613719565b908152602001604051809103902060000160109054906101000a90046fffffffffffffffffffffffffffffffff166fffffffffffffffffffffffffffffffff1610611b01576040517f08c379a0000000000000000000000000000000000000000000000000000000008152600401611af8906138b2565b60405180910390fd5b6000600860008373ffffffffffffffffffffffffffffffffffffffff1673ffffffffffffffffffffffffffffffffffffffff16815260200190815260200160002083604051611b509190613719565b90815260200160405180910390205414611b9f576040517f08c379a0000000000000000000000000000000000000000000000000000000008152600401611b9690613932565b60405180910390fd5b6000600a87604051611bb19190613719565b908152602001604051809103902060000160109054906101000a90046fffffffffffffffffffffffffffffffff169050600087611bed836122ab565b604051602001611bfe929190613754565b60405160208183030381529060405290506000611c1b600b6124b8565b905080600860008a73ffffffffffffffffffffffffffffffffffffffff1673ffffffffffffffffffffffffffffffffffffffff1681526020019081526020016000208a604051611c6b9190613719565b908152602001604051809103902081905550611c8788826124c6565b88604051611c959190613719565b60405180910390208873ffffffffffffffffffffffffffffffffffffffff167f436ed5ad57b88689854d2b756b16ffc1e461f71b9c88bc4316a6b58e9d7fc80985848b604051611ce793929190613b89565b60405180910390a3611cf981836124e4565b600183611d069190613cd1565b600a8a604051611d169190613719565b908152602001604051809103902060000160106101000a8154816fffffffffffffffffffffffffffffffff02191690836fffffffffffffffffffffffffffffffff160217905550611d67600b612558565b80955050505050509392505050565b6000600760009054906101000a900473ffffffffffffffffffffffffffffffffffffffff16905081600760006101000a81548173ffffffffffffffffffffffffffffffffffffffff021916908373ffffffffffffffffffffffffffffffffffffffff1602179055508173ffffffffffffffffffffffffffffffffffffffff168173ffffffffffffffffffffffffffffffffffffffff167f8be0079c531659141344cd1fd0a4f28419497f9722a3daafe3b4186f6b6457e060405160405180910390a35050565b8173ffffffffffffffffffffffffffffffffffffffff168373ffffffffffffffffffffffffffffffffffffffff161415611eab576040517f08c379a0000000000000000000000000000000000000000000000000000000008152600401611ea2906138f2565b60405180910390fd5b80600560008573ffffffffffffffffffffffffffffffffffffffff1673ffffffffffffffffffffffffffffffffffffffff16815260200190815260200160002060008473ffffffffffffffffffffffffffffffffffffffff1673ffffffffffffffffffffffffffffffffffffffff16815260200190815260200160002060006101000a81548160ff0219169083151502179055508173ffffffffffffffffffffffffffffffffffffffff168373ffffffffffffffffffffffffffffffffffffffff167f17307eab39ab6107e8899845ad3d59bd9653f200f220920489ca2b5937696c3183604051611f9c91906137f5565b60405180910390a3505050565b611fb484848461179f565b611fc08484848461256e565b611fff576040517f08c379a0000000000000000000000000000000000000000000000000000000008152600401611ff690613832565b60405180910390fd5b50505050565b6060600c805461201490613f09565b80601f016020809104026020016040519081016040528092919081815260200182805461204090613f09565b801561208d5780601f106120625761010080835404028352916020019161208d565b820191906000526020600020905b81548152906001019060200180831161207057829003601f168201915b5050505050905090565b60606120a282611594565b6120e1576040517f08c379a00000000000000000000000000000000000000000000000000000000081526004016120d890613a92565b60405180910390fd5b60006120eb612005565b9050600081511161210b5760405180602001604052806000815250612136565b8061211584612705565b604051602001612126929190613730565b6040516020818303038152906040525b915050919050565b600073ffffffffffffffffffffffffffffffffffffffff168373ffffffffffffffffffffffffffffffffffffffff1614806121a55750600073ffffffffffffffffffffffffffffffffffffffff168273ffffffffffffffffffffffffffffffffffffffff16145b806121bc5750600d60009054906101000a900460ff165b6121fb576040517f08c379a00000000000000000000000000000000000000000000000000000000081526004016121f290613b12565b60405180910390fd5b6122068383836128b2565b505050565b505050565b60008082905060005b84518110156122a057600085828151811061225d577f4e487b7100000000000000000000000000000000000000000000000000000000600052603260045260246000fd5b6020026020010151905080831161227f5761227883826128b7565b925061228c565b61228981846128b7565b92505b50808061229890613fa5565b915050612219565b508091505092915050565b60606000826fffffffffffffffffffffffffffffffff161415612305576040518060400160405280600181526020017f300000000000000000000000000000000000000000000000000000000000000081525090506124b3565b600082905060005b6000826fffffffffffffffffffffffffffffffff161461234957808061233290613f6c565b915050600a826123429190613d6d565b915061230d565b6000816fffffffffffffffffffffffffffffffff1667ffffffffffffffff81111561239d577f4e487b7100000000000000000000000000000000000000000000000000000000600052604160045260246000fd5b6040519080825280601f01601f1916602001820160405280156123cf5781602001600182028036833780820191505090505b50905060008290508593505b6000846fffffffffffffffffffffffffffffffff16146124ab57600a846124029190614012565b603061240e9190613cd1565b60f81b828261241c90613edf565b9250826fffffffffffffffffffffffffffffffff1681518110612468577f4e487b7100000000000000000000000000000000000000000000000000000000600052603260045260246000fd5b60200101907effffffffffffffffffffffffffffffffffffffffffffffffffffffffffffff1916908160001a905350600a846124a49190613d6d565b93506123db565b819450505050505b919050565b600081600001549050919050565b6124e08282604051806020016040528060008152506128ce565b5050565b6124ed82611594565b61252c576040517f08c379a0000000000000000000000000000000000000000000000000000000008152600401612523906139f2565b60405180910390fd5b80600660008481526020019081526020016000209080519060200190612553929190612b26565b505050565b6001816000016000828254019250508190555050565b600061258f8473ffffffffffffffffffffffffffffffffffffffff16612929565b156126f8578373ffffffffffffffffffffffffffffffffffffffff1663150b7a026125b8611600565b8786866040518563ffffffff1660e01b81526004016125da94939291906137a9565b602060405180830381600087803b1580156125f457600080fd5b505af192505050801561262557506040513d601f19601f82011682018060405250810190612622919061300f565b60015b6126a8573d8060008114612655576040519150601f19603f3d011682016040523d82523d6000602084013e61265a565b606091505b506000815114156126a0576040517f08c379a000000000000000000000000000000000000000000000000000000000815260040161269790613832565b60405180910390fd5b805181602001fd5b63150b7a0260e01b7bffffffffffffffffffffffffffffffffffffffffffffffffffffffff1916817bffffffffffffffffffffffffffffffffffffffffffffffffffffffff1916149150506126fd565b600190505b949350505050565b6060600082141561274d576040518060400160405280600181526020017f300000000000000000000000000000000000000000000000000000000000000081525090506128ad565b600082905060005b6000821461277f57808061276890613fa5565b915050600a826127789190613d9e565b9150612755565b60008167ffffffffffffffff8111156127c1577f4e487b7100000000000000000000000000000000000000000000000000000000600052604160045260246000fd5b6040519080825280601f01601f1916602001820160405280156127f35781602001600182028036833780820191505090505b5090505b600085146128a65760018261280c9190613dcf565b9150600a8561281b9190614043565b60306128279190613d17565b60f81b818381518110612863577f4e487b7100000000000000000000000000000000000000000000000000000000600052603260045260246000fd5b60200101907effffffffffffffffffffffffffffffffffffffffffffffffffffffffffffff1916908160001a905350600a8561289f9190613d9e565b94506127f7565b8093505050505b919050565b505050565b600082600052816020526040600020905092915050565b6128d8838361294c565b6128e5600084848461256e565b612924576040517f08c379a000000000000000000000000000000000000000000000000000000000815260040161291b90613832565b60405180910390fd5b505050565b6000808273ffffffffffffffffffffffffffffffffffffffff163b119050919050565b600073ffffffffffffffffffffffffffffffffffffffff168273ffffffffffffffffffffffffffffffffffffffff1614156129bc576040517f08c379a00000000000000000000000000000000000000000000000000000000081526004016129b390613a12565b60405180910390fd5b6129c581611594565b15612a05576040517f08c379a00000000000000000000000000000000000000000000000000000000081526004016129fc90613892565b60405180910390fd5b612a116000838361213e565b6001600360008473ffffffffffffffffffffffffffffffffffffffff1673ffffffffffffffffffffffffffffffffffffffff1681526020019081526020016000206000828254612a619190613d17565b92505081905550816002600083815260200190815260200160002060006101000a81548173ffffffffffffffffffffffffffffffffffffffff021916908373ffffffffffffffffffffffffffffffffffffffff160217905550808273ffffffffffffffffffffffffffffffffffffffff16600073ffffffffffffffffffffffffffffffffffffffff167fddf252ad1be2c89b69c2b068fc378daa952ba7f163c4a11628f55a4df523b3ef60405160405180910390a4612b226000838361220b565b5050565b828054612b3290613f09565b90600052602060002090601f016020900481019282612b545760008555612b9b565b82601f10612b6d57805160ff1916838001178555612b9b565b82800160010185558215612b9b579182015b82811115612b9a578251825591602001919060010190612b7f565b5b509050612ba89190612bac565b5090565b5b80821115612bc5576000816000905550600101612bad565b5090565b6000612bdc612bd784613c00565b613bdb565b90508083825260208201905082856020860282011115612bfb57600080fd5b60005b85811015612c2b5781612c118882612d05565b845260208401935060208301925050600181019050612bfe565b5050509392505050565b6000612c48612c4384613c2c565b613bdb565b905082815260208101848484011115612c6057600080fd5b612c6b848285613e9d565b509392505050565b6000612c86612c8184613c5d565b613bdb565b905082815260208101848484011115612c9e57600080fd5b612ca9848285613e9d565b509392505050565b600081359050612cc081614873565b92915050565b600082601f830112612cd757600080fd5b8135612ce7848260208601612bc9565b91505092915050565b600081359050612cff8161488a565b92915050565b600081359050612d14816148a1565b92915050565b600081359050612d29816148b8565b92915050565b600081519050612d3e816148b8565b92915050565b600082601f830112612d5557600080fd5b8135612d65848260208601612c35565b91505092915050565b600082601f830112612d7f57600080fd5b8135612d8f848260208601612c73565b91505092915050565b600081359050612da7816148cf565b92915050565b600081359050612dbc816148e6565b92915050565b600060208284031215612dd457600080fd5b6000612de284828501612cb1565b91505092915050565b60008060408385031215612dfe57600080fd5b6000612e0c85828601612cb1565b9250506020612e1d85828601612cb1565b9150509250929050565b600080600060608486031215612e3c57600080fd5b6000612e4a86828701612cb1565b9350506020612e5b86828701612cb1565b9250506040612e6c86828701612dad565b9150509250925092565b60008060008060808587031215612e8c57600080fd5b6000612e9a87828801612cb1565b9450506020612eab87828801612cb1565b9350506040612ebc87828801612dad565b925050606085013567ffffffffffffffff811115612ed957600080fd5b612ee587828801612d44565b91505092959194509250565b60008060408385031215612f0457600080fd5b6000612f1285828601612cb1565b9250506020612f2385828601612cf0565b9150509250929050565b60008060408385031215612f4057600080fd5b6000612f4e85828601612cb1565b925050602083013567ffffffffffffffff811115612f6b57600080fd5b612f7785828601612d6e565b9150509250929050565b60008060408385031215612f9457600080fd5b6000612fa285828601612cb1565b9250506020612fb385828601612dad565b9150509250929050565b600060208284031215612fcf57600080fd5b6000612fdd84828501612cf0565b91505092915050565b600060208284031215612ff857600080fd5b600061300684828501612d1a565b91505092915050565b60006020828403121561302157600080fd5b600061302f84828501612d2f565b91505092915050565b60006020828403121561304a57600080fd5b600082013567ffffffffffffffff81111561306457600080fd5b61307084828501612d6e565b91505092915050565b6000806040838503121561308c57600080fd5b600083013567ffffffffffffffff8111156130a657600080fd5b6130b285828601612d6e565b925050602083013567ffffffffffffffff8111156130cf57600080fd5b6130db85828601612cc6565b9150509250929050565b6000806000606084860312156130fa57600080fd5b600084013567ffffffffffffffff81111561311457600080fd5b61312086828701612d6e565b935050602084013567ffffffffffffffff81111561313d57600080fd5b61314986828701612cc6565b925050604061315a86828701612cb1565b9150509250925092565b6000806040838503121561317757600080fd5b600083013567ffffffffffffffff81111561319157600080fd5b61319d85828601612d6e565b92505060206131ae85828601612d05565b9150509250929050565b6000806000606084860312156131cd57600080fd5b600084013567ffffffffffffffff8111156131e757600080fd5b6131f386828701612d6e565b935050602061320486828701612d98565b925050604061321586828701612d05565b9150509250925092565b60006020828403121561323157600080fd5b600061323f84828501612dad565b91505092915050565b61325181613e03565b82525050565b61326861326382613e03565b613fee565b82525050565b61327781613e15565b82525050565b61328681613e21565b82525050565b600061329782613c8e565b6132a18185613ca4565b93506132b1818560208601613eac565b6132ba81614130565b840191505092915050565b60006132d082613c99565b6132da8185613cb5565b93506132ea818560208601613eac565b6132f381614130565b840191505092915050565b600061330982613c99565b6133138185613cc6565b9350613323818560208601613eac565b80840191505092915050565b600061333c603283613cb5565b91506133478261414e565b604082019050919050565b600061335f602683613cb5565b915061336a8261419d565b604082019050919050565b6000613382602583613cb5565b915061338d826141ec565b604082019050919050565b60006133a5601c83613cb5565b91506133b08261423b565b602082019050919050565b60006133c8600e83613cc6565b91506133d382614264565b600e82019050919050565b60006133eb602883613cb5565b91506133f68261428d565b604082019050919050565b600061340e602483613cb5565b9150613419826142dc565b604082019050919050565b6000613431601983613cb5565b915061343c8261432b565b602082019050919050565b6000613454601f83613cb5565b915061345f82614354565b602082019050919050565b6000613477602e83613cb5565b91506134828261437d565b604082019050919050565b600061349a602c83613cb5565b91506134a5826143cc565b604082019050919050565b60006134bd602183613cb5565b91506134c88261441b565b604082019050919050565b60006134e0603883613cb5565b91506134eb8261446a565b604082019050919050565b6000613503602a83613cb5565b915061350e826144b9565b604082019050919050565b6000613526602983613cb5565b915061353182614508565b604082019050919050565b6000613549602e83613cb5565b915061355482614557565b604082019050919050565b600061356c602083613cb5565b9150613577826145a6565b602082019050919050565b600061358f603183613cb5565b915061359a826145cf565b604082019050919050565b60006135b2602c83613cb5565b91506135bd8261461e565b604082019050919050565b60006135d5602083613cb5565b91506135e08261466d565b602082019050919050565b60006135f8602f83613cb5565b915061360382614696565b604082019050919050565b600061361b602883613cb5565b9150613626826146e5565b604082019050919050565b600061363e602a83613cb5565b915061364982614734565b604082019050919050565b6000613661602183613cb5565b915061366c82614783565b604082019050919050565b6000613684601783613cb5565b915061368f826147d2565b602082019050919050565b60006136a7603183613cb5565b91506136b2826147fb565b604082019050919050565b60006136ca600183613cc6565b91506136d58261484a565b600182019050919050565b6136e981613e57565b82525050565b6136f881613e93565b82525050565b600061370a8284613257565b60148201915081905092915050565b600061372582846132fe565b915081905092915050565b600061373c82856132fe565b915061374882846132fe565b91508190509392505050565b600061376082856132fe565b915061376b826136bd565b915061377782846132fe565b9150613782826133bb565b91508190509392505050565b60006020820190506137a36000830184613248565b92915050565b60006080820190506137be6000830187613248565b6137cb6020830186613248565b6137d860408301856136ef565b81810360608301526137ea818461328c565b905095945050505050565b600060208201905061380a600083018461326e565b92915050565b6000602082019050818103600083015261382a81846132c5565b905092915050565b6000602082019050818103600083015261384b8161332f565b9050919050565b6000602082019050818103600083015261386b81613352565b9050919050565b6000602082019050818103600083015261388b81613375565b9050919050565b600060208201905081810360008301526138ab81613398565b9050919050565b600060208201905081810360008301526138cb816133de565b9050919050565b600060208201905081810360008301526138eb81613401565b9050919050565b6000602082019050818103600083015261390b81613424565b9050919050565b6000602082019050818103600083015261392b81613447565b9050919050565b6000602082019050818103600083015261394b8161346a565b9050919050565b6000602082019050818103600083015261396b8161348d565b9050919050565b6000602082019050818103600083015261398b816134b0565b9050919050565b600060208201905081810360008301526139ab816134d3565b9050919050565b600060208201905081810360008301526139cb816134f6565b9050919050565b600060208201905081810360008301526139eb81613519565b9050919050565b60006020820190508181036000830152613a0b8161353c565b9050919050565b60006020820190508181036000830152613a2b8161355f565b9050919050565b60006020820190508181036000830152613a4b81613582565b9050919050565b60006020820190508181036000830152613a6b816135a5565b9050919050565b60006020820190508181036000830152613a8b816135c8565b9050919050565b60006020820190508181036000830152613aab816135eb565b9050919050565b60006020820190508181036000830152613acb8161360e565b9050919050565b60006020820190508181036000830152613aeb81613631565b9050919050565b60006020820190508181036000830152613b0b81613654565b9050919050565b60006020820190508181036000830152613b2b81613677565b9050919050565b60006020820190508181036000830152613b4b8161369a565b9050919050565b6000606082019050613b6760008301866136e0565b613b7460208301856136e0565b613b81604083018461327d565b949350505050565b6000606082019050613b9e60008301866136e0565b613bab60208301856136ef565b613bb8604083018461326e565b949350505050565b6000602082019050613bd560008301846136ef565b92915050565b6000613be5613bf6565b9050613bf18282613f3b565b919050565b6000604051905090565b600067ffffffffffffffff821115613c1b57613c1a614101565b5b602082029050602081019050919050565b600067ffffffffffffffff821115613c4757613c46614101565b5b613c5082614130565b9050602081019050919050565b600067ffffffffffffffff821115613c7857613c77614101565b5b613c8182614130565b9050602081019050919050565b600081519050919050565b600081519050919050565b600082825260208201905092915050565b600082825260208201905092915050565b600081905092915050565b6000613cdc82613e57565b9150613ce783613e57565b9250826fffffffffffffffffffffffffffffffff03821115613d0c57613d0b614074565b5b828201905092915050565b6000613d2282613e93565b9150613d2d83613e93565b9250827fffffffffffffffffffffffffffffffffffffffffffffffffffffffffffffffff03821115613d6257613d61614074565b5b828201905092915050565b6000613d7882613e57565b9150613d8383613e57565b925082613d9357613d926140a3565b5b828204905092915050565b6000613da982613e93565b9150613db483613e93565b925082613dc457613dc36140a3565b5b828204905092915050565b6000613dda82613e93565b9150613de583613e93565b925082821015613df857613df7614074565b5b828203905092915050565b6000613e0e82613e73565b9050919050565b60008115159050919050565b6000819050919050565b60007fffffffff0000000000000000000000000000000000000000000000000000000082169050919050565b60006fffffffffffffffffffffffffffffffff82169050919050565b600073ffffffffffffffffffffffffffffffffffffffff82169050919050565b6000819050919050565b82818337600083830152505050565b60005b83811015613eca578082015181840152602081019050613eaf565b83811115613ed9576000848401525b50505050565b6000613eea82613e57565b91506000821415613efe57613efd614074565b5b600182039050919050565b60006002820490506001821680613f2157607f821691505b60208210811415613f3557613f346140d2565b5b50919050565b613f4482614130565b810181811067ffffffffffffffff82111715613f6357613f62614101565b5b80604052505050565b6000613f7782613e57565b91506fffffffffffffffffffffffffffffffff821415613f9a57613f99614074565b5b600182019050919050565b6000613fb082613e93565b91507fffffffffffffffffffffffffffffffffffffffffffffffffffffffffffffffff821415613fe357613fe2614074565b5b600182019050919050565b6000613ff982614000565b9050919050565b600061400b82614141565b9050919050565b600061401d82613e57565b915061402883613e57565b925082614038576140376140a3565b5b828206905092915050565b600061404e82613e93565b915061405983613e93565b925082614069576140686140a3565b5b828206905092915050565b7f4e487b7100000000000000000000000000000000000000000000000000000000600052601160045260246000fd5b7f4e487b7100000000000000000000000000000000000000000000000000000000600052601260045260246000fd5b7f4e487b7100000000000000000000000000000000000000000000000000000000600052602260045260246000fd5b7f4e487b7100000000000000000000000000000000000000000000000000000000600052604160045260246000fd5b6000601f19601f8301169050919050565b60008160601b9050919050565b7f4552433732313a207472616e7366657220746f206e6f6e20455243373231526560008201527f63656976657220696d706c656d656e7465720000000000000000000000000000602082015250565b7f4f776e61626c653a206e6577206f776e657220697320746865207a65726f206160008201527f6464726573730000000000000000000000000000000000000000000000000000602082015250565b7f4552433732313a207472616e736665722066726f6d20696e636f72726563742060008201527f6f776e6572000000000000000000000000000000000000000000000000000000602082015250565b7f4552433732313a20746f6b656e20616c7265616479206d696e74656400000000600082015250565b7f2f6d657461646174612e6a736f6e000000000000000000000000000000000000600082015250565b7f4275696c6453706163653a206d617820746f6b656e732069737375656420666f60008201527f7220626f756e7479000000000000000000000000000000000000000000000000602082015250565b7f4552433732313a207472616e7366657220746f20746865207a65726f2061646460008201527f7265737300000000000000000000000000000000000000000000000000000000602082015250565b7f4552433732313a20617070726f766520746f2063616c6c657200000000000000600082015250565b7f4275696c6453706163653a204e6f20626f756e7479206c696d69742073657400600082015250565b7f4275696c6453706163653a20616464726573732068617320616c72656164792060008201527f636c61696d656420746f6b656e2e000000000000000000000000000000000000602082015250565b7f4552433732313a206f70657261746f7220717565727920666f72206e6f6e657860008201527f697374656e7420746f6b656e0000000000000000000000000000000000000000602082015250565b7f4275696c6453706163653a20426f756e747920616c726561647920657869737460008201527f7300000000000000000000000000000000000000000000000000000000000000602082015250565b7f4552433732313a20617070726f76652063616c6c6572206973206e6f74206f7760008201527f6e6572206e6f7220617070726f76656420666f7220616c6c0000000000000000602082015250565b7f4552433732313a2062616c616e636520717565727920666f7220746865207a6560008201527f726f206164647265737300000000000000000000000000000000000000000000602082015250565b7f4552433732313a206f776e657220717565727920666f72206e6f6e657869737460008201527f656e7420746f6b656e0000000000000000000000000000000000000000000000602082015250565b7f45524337323155524953746f726167653a2055524920736574206f66206e6f6e60008201527f6578697374656e7420746f6b656e000000000000000000000000000000000000602082015250565b7f4552433732313a206d696e7420746f20746865207a65726f2061646472657373600082015250565b7f45524337323155524953746f726167653a2055524920717565727920666f722060008201527f6e6f6e6578697374656e7420746f6b656e000000000000000000000000000000602082015250565b7f4552433732313a20617070726f76656420717565727920666f72206e6f6e657860008201527f697374656e7420746f6b656e0000000000000000000000000000000000000000602082015250565b7f4f776e61626c653a2063616c6c6572206973206e6f7420746865206f776e6572600082015250565b7f4552433732314d657461646174613a2055524920717565727920666f72206e6f60008201527f6e6578697374656e7420746f6b656e0000000000000000000000000000000000602082015250565b7f4275696c6453706163653a204c696d6974206d7573742062652067726561746560008201527f72207468616e2030000000000000000000000000000000000000000000000000602082015250565b7f4275696c6453706163653a2061646472657373206e6f7420656c696769626c6560008201527f20666f7220636c61696d00000000000000000000000000000000000000000000602082015250565b7f4552433732313a20617070726f76616c20746f2063757272656e74206f776e6560008201527f7200000000000000000000000000000000000000000000000000000000000000602082015250565b7f4e6f7420616c6c6f77656420746f207472616e73666572000000000000000000600082015250565b7f4552433732313a207472616e736665722063616c6c6572206973206e6f74206f60008201527f776e6572206e6f7220617070726f766564000000000000000000000000000000602082015250565b7f2d00000000000000000000000000000000000000000000000000000000000000600082015250565b61487c81613e03565b811461488757600080fd5b50565b61489381613e15565b811461489e57600080fd5b50565b6148aa81613e21565b81146148b557600080fd5b50565b6148c181613e2b565b81146148cc57600080fd5b50565b6148d881613e57565b81146148e357600080fd5b50565b6148ef81613e93565b81146148fa57600080fd5b5056fea264697066735822122066166635ff637a28b62504c5f6c2dd2e84a5bc4c9240e610508c37f1c186511a64736f6c63430008040033",
  "linkReferences": {},
  "deployedLinkReferences": {}
}