{
  "_format": "hh-sol-artifact-1",
  "contractName": "BountyMaker",
  "sourceName": "contracts/BountyMaker.sol",
  "abi": [
    {
      "inputs": [
        {
          "internalType": "contract IERC20",
          "name": "_token",
          "type": "address"
        }
      ],
      "stateMutability": "nonpayable",
      "type": "constructor"
    },
    {
      "anonymous": false,
      "inputs": [
        {
          "indexed": true,
          "internalType": "address",
          "name": "owner",
          "type": "address"
        },
        {
          "indexed": true,
          "internalType": "address",
          "name": "approved",
          "type": "address"
        },
        {
          "indexed": true,
          "internalType": "uint256",
          "name": "tokenId",
          "type": "uint256"
        }
      ],
      "name": "Approval",
      "type": "event"
    },
    {
      "anonymous": false,
      "inputs": [
        {
          "indexed": true,
          "internalType": "address",
          "name": "owner",
          "type": "address"
        },
        {
          "indexed": true,
          "internalType": "address",
          "name": "operator",
          "type": "address"
        },
        {
          "indexed": false,
          "internalType": "bool",
          "name": "approved",
          "type": "bool"
        }
      ],
      "name": "ApprovalForAll",
      "type": "event"
    },
    {
      "anonymous": false,
      "inputs": [
        {
          "indexed": false,
          "internalType": "string",
          "name": "_bountyId",
          "type": "string"
        },
        {
          "indexed": false,
          "internalType": "uint256[]",
          "name": "_rewards",
          "type": "uint256[]"
        }
      ],
      "name": "BountyCreated",
      "type": "event"
    },
    {
      "anonymous": false,
      "inputs": [
        {
          "indexed": true,
          "internalType": "address",
          "name": "_receiver",
          "type": "address"
        },
        {
          "indexed": false,
          "internalType": "string",
          "name": "_bountyId",
          "type": "string"
        },
        {
          "indexed": false,
          "internalType": "uint128",
          "name": "_bountyIndex",
          "type": "uint128"
        },
        {
          "indexed": false,
          "internalType": "uint256",
          "name": "_contractIndex",
          "type": "uint256"
        },
        {
          "indexed": false,
          "internalType": "bool",
          "name": "_isAdmin",
          "type": "bool"
        }
      ],
      "name": "Claim",
      "type": "event"
    },
    {
      "anonymous": false,
      "inputs": [
        {
          "indexed": true,
          "internalType": "contract IERC20",
          "name": "token",
          "type": "address"
        },
        {
          "indexed": false,
          "internalType": "address",
          "name": "to",
          "type": "address"
        },
        {
          "indexed": false,
          "internalType": "uint256",
          "name": "amount",
          "type": "uint256"
        }
      ],
      "name": "ERC20PaymentReleased",
      "type": "event"
    },
    {
      "anonymous": false,
      "inputs": [
        {
          "indexed": true,
          "internalType": "address",
          "name": "previousOwner",
          "type": "address"
        },
        {
          "indexed": true,
          "internalType": "address",
          "name": "newOwner",
          "type": "address"
        }
      ],
      "name": "OwnershipTransferred",
      "type": "event"
    },
    {
      "anonymous": false,
      "inputs": [
        {
          "indexed": true,
          "internalType": "address",
          "name": "from",
          "type": "address"
        },
        {
          "indexed": true,
          "internalType": "address",
          "name": "to",
          "type": "address"
        },
        {
          "indexed": true,
          "internalType": "uint256",
          "name": "tokenId",
          "type": "uint256"
        }
      ],
      "name": "Transfer",
      "type": "event"
    },
    {
      "anonymous": false,
      "inputs": [
        {
          "indexed": false,
          "internalType": "string",
          "name": "_bountyId",
          "type": "string"
        }
      ],
      "name": "WinnersDeclared",
      "type": "event"
    },
    {
      "inputs": [
        {
          "internalType": "string",
          "name": "_bountyId",
          "type": "string"
        },
        {
          "internalType": "address",
          "name": "to",
          "type": "address"
        }
      ],
      "name": "adminClaimToken",
      "outputs": [
        {
          "internalType": "uint256",
          "name": "",
          "type": "uint256"
        }
      ],
      "stateMutability": "nonpayable",
      "type": "function"
    },
    {
      "inputs": [
        {
          "internalType": "address",
          "name": "to",
          "type": "address"
        },
        {
          "internalType": "uint256",
          "name": "tokenId",
          "type": "uint256"
        }
      ],
      "name": "approve",
      "outputs": [],
      "stateMutability": "nonpayable",
      "type": "function"
    },
    {
      "inputs": [
        {
          "internalType": "address",
          "name": "owner",
          "type": "address"
        }
      ],
      "name": "balanceOf",
      "outputs": [
        {
          "internalType": "uint256",
          "name": "",
          "type": "uint256"
        }
      ],
      "stateMutability": "view",
      "type": "function"
    },
    {
      "inputs": [
        {
          "internalType": "string",
          "name": "",
          "type": "string"
        }
      ],
      "name": "bountys",
      "outputs": [
        {
          "internalType": "string",
          "name": "uri",
          "type": "string"
        },
        {
          "internalType": "uint128",
          "name": "tokenLimit",
          "type": "uint128"
        },
        {
          "internalType": "bool",
          "name": "active",
          "type": "bool"
        },
        {
          "internalType": "uint256",
          "name": "endTime",
          "type": "uint256"
        }
      ],
      "stateMutability": "view",
      "type": "function"
    },
    {
      "inputs": [
        {
          "internalType": "string",
          "name": "_bountyId",
          "type": "string"
        }
      ],
      "name": "claimToken",
      "outputs": [
        {
          "internalType": "uint256",
          "name": "",
          "type": "uint256"
        }
      ],
      "stateMutability": "nonpayable",
      "type": "function"
    },
    {
      "inputs": [
        {
          "internalType": "address",
          "name": "",
          "type": "address"
        },
        {
          "internalType": "string",
          "name": "",
          "type": "string"
        }
      ],
      "name": "claimed",
      "outputs": [
        {
          "internalType": "uint256",
          "name": "",
          "type": "uint256"
        }
      ],
      "stateMutability": "view",
      "type": "function"
    },
    {
      "inputs": [
        {
          "internalType": "string",
          "name": "_bountyId",
          "type": "string"
        },
        {
          "internalType": "string",
          "name": "uri",
          "type": "string"
        },
        {
          "internalType": "uint128",
          "name": "_tokenLimit",
          "type": "uint128"
        },
        {
          "internalType": "uint256[]",
          "name": "_rewards",
          "type": "uint256[]"
        },
        {
          "internalType": "uint256",
          "name": "_endTime",
          "type": "uint256"
        }
      ],
      "name": "createBounty",
      "outputs": [],
      "stateMutability": "nonpayable",
      "type": "function"
    },
    {
      "inputs": [
        {
          "internalType": "uint256",
          "name": "tokenId",
          "type": "uint256"
        }
      ],
      "name": "getApproved",
      "outputs": [
        {
          "internalType": "address",
          "name": "",
          "type": "address"
        }
      ],
      "stateMutability": "view",
      "type": "function"
    },
    {
      "inputs": [
        {
          "internalType": "string",
          "name": "_bountyId",
          "type": "string"
        }
      ],
      "name": "getBountyAdmin",
      "outputs": [
        {
          "internalType": "address",
          "name": "",
          "type": "address"
        }
      ],
      "stateMutability": "view",
      "type": "function"
    },
    {
      "inputs": [
        {
          "internalType": "address",
          "name": "owner",
          "type": "address"
        },
        {
          "internalType": "address",
          "name": "operator",
          "type": "address"
        }
      ],
      "name": "isApprovedForAll",
      "outputs": [
        {
          "internalType": "bool",
          "name": "",
          "type": "bool"
        }
      ],
      "stateMutability": "view",
      "type": "function"
    },
    {
      "inputs": [],
      "name": "name",
      "outputs": [
        {
          "internalType": "string",
          "name": "",
          "type": "string"
        }
      ],
      "stateMutability": "view",
      "type": "function"
    },
    {
      "inputs": [],
      "name": "owner",
      "outputs": [
        {
          "internalType": "address",
          "name": "",
          "type": "address"
        }
      ],
      "stateMutability": "view",
      "type": "function"
    },
    {
      "inputs": [
        {
          "internalType": "uint256",
          "name": "tokenId",
          "type": "uint256"
        }
      ],
      "name": "ownerOf",
      "outputs": [
        {
          "internalType": "address",
          "name": "",
          "type": "address"
        }
      ],
      "stateMutability": "view",
      "type": "function"
    },
    {
      "inputs": [],
      "name": "renounceOwnership",
      "outputs": [],
      "stateMutability": "nonpayable",
      "type": "function"
    },
    {
      "inputs": [
        {
          "internalType": "string",
          "name": "",
          "type": "string"
        },
        {
          "internalType": "uint256",
          "name": "",
          "type": "uint256"
        }
      ],
      "name": "rewards",
      "outputs": [
        {
          "internalType": "uint256",
          "name": "",
          "type": "uint256"
        }
      ],
      "stateMutability": "view",
      "type": "function"
    },
    {
      "inputs": [
        {
          "internalType": "address",
          "name": "from",
          "type": "address"
        },
        {
          "internalType": "address",
          "name": "to",
          "type": "address"
        },
        {
          "internalType": "uint256",
          "name": "tokenId",
          "type": "uint256"
        }
      ],
      "name": "safeTransferFrom",
      "outputs": [],
      "stateMutability": "nonpayable",
      "type": "function"
    },
    {
      "inputs": [
        {
          "internalType": "address",
          "name": "from",
          "type": "address"
        },
        {
          "internalType": "address",
          "name": "to",
          "type": "address"
        },
        {
          "internalType": "uint256",
          "name": "tokenId",
          "type": "uint256"
        },
        {
          "internalType": "bytes",
          "name": "_data",
          "type": "bytes"
        }
      ],
      "name": "safeTransferFrom",
      "outputs": [],
      "stateMutability": "nonpayable",
      "type": "function"
    },
    {
      "inputs": [
        {
          "internalType": "address",
          "name": "operator",
          "type": "address"
        },
        {
          "internalType": "bool",
          "name": "approved",
          "type": "bool"
        }
      ],
      "name": "setApprovalForAll",
      "outputs": [],
      "stateMutability": "nonpayable",
      "type": "function"
    },
    {
      "inputs": [
        {
          "internalType": "string",
          "name": "_bountyId",
          "type": "string"
        },
        {
          "internalType": "address[]",
          "name": "_winners",
          "type": "address[]"
        }
      ],
      "name": "setBountyWinners",
      "outputs": [],
      "stateMutability": "nonpayable",
      "type": "function"
    },
    {
      "inputs": [
        {
          "internalType": "bytes4",
          "name": "interfaceId",
          "type": "bytes4"
        }
      ],
      "name": "supportsInterface",
      "outputs": [
        {
          "internalType": "bool",
          "name": "",
          "type": "bool"
        }
      ],
      "stateMutability": "view",
      "type": "function"
    },
    {
      "inputs": [],
      "name": "symbol",
      "outputs": [
        {
          "internalType": "string",
          "name": "",
          "type": "string"
        }
      ],
      "stateMutability": "view",
      "type": "function"
    },
    {
      "inputs": [],
      "name": "token",
      "outputs": [
        {
          "internalType": "contract IERC20",
          "name": "",
          "type": "address"
        }
      ],
      "stateMutability": "view",
      "type": "function"
    },
    {
      "inputs": [
        {
          "internalType": "uint256",
          "name": "tokenId",
          "type": "uint256"
        }
      ],
      "name": "tokenURI",
      "outputs": [
        {
          "internalType": "string",
          "name": "",
          "type": "string"
        }
      ],
      "stateMutability": "view",
      "type": "function"
    },
    {
      "inputs": [
        {
          "internalType": "address",
          "name": "from",
          "type": "address"
        },
        {
          "internalType": "address",
          "name": "to",
          "type": "address"
        },
        {
          "internalType": "uint256",
          "name": "tokenId",
          "type": "uint256"
        }
      ],
      "name": "transferFrom",
      "outputs": [],
      "stateMutability": "nonpayable",
      "type": "function"
    },
    {
      "inputs": [
        {
          "internalType": "address",
          "name": "newOwner",
          "type": "address"
        }
      ],
      "name": "transferOwnership",
      "outputs": [],
      "stateMutability": "nonpayable",
      "type": "function"
    },
    {
      "inputs": [
        {
          "internalType": "address",
          "name": "_admin",
          "type": "address"
        },
        {
          "internalType": "bool",
          "name": "isAdmin",
          "type": "bool"
        }
      ],
      "name": "updateAdmin",
      "outputs": [],
      "stateMutability": "nonpayable",
      "type": "function"
    },
    {
      "inputs": [
        {
          "internalType": "address",
          "name": "",
          "type": "address"
        },
        {
          "internalType": "string",
          "name": "",
          "type": "string"
        }
      ],
      "name": "winners",
      "outputs": [
        {
          "internalType": "uint128",
          "name": "",
          "type": "uint128"
        }
      ],
      "stateMutability": "view",
      "type": "function"
    },
    {
      "stateMutability": "payable",
      "type": "receive"
    }
  ],
  "bytecode": "0x60806040523480156200001157600080fd5b506040516200634638038062006346833981810160405281019062000037919062000359565b6040518060400160405280600b81526020017f626f756e74794d616b65720000000000000000000000000000000000000000008152506040518060400160405280600b81526020017f424f554e54594d414b45520000000000000000000000000000000000000000008152508160009080519060200190620000bb92919062000292565b508060019080519060200190620000d492919062000292565b505050620000f7620000eb620001ae60201b60201c565b620001b660201b60201c565b6001600a60003373ffffffffffffffffffffffffffffffffffffffff1673ffffffffffffffffffffffffffffffffffffffff16815260200190815260200160002060006101000a81548160ff02191690831515021790555080600e60006101000a81548173ffffffffffffffffffffffffffffffffffffffff021916908373ffffffffffffffffffffffffffffffffffffffff160217905550620001a7600f6200027c60201b62001dd21760201c565b506200044c565b600033905090565b6000600760009054906101000a900473ffffffffffffffffffffffffffffffffffffffff16905081600760006101000a81548173ffffffffffffffffffffffffffffffffffffffff021916908373ffffffffffffffffffffffffffffffffffffffff1602179055508173ffffffffffffffffffffffffffffffffffffffff168173ffffffffffffffffffffffffffffffffffffffff167f8be0079c531659141344cd1fd0a4f28419497f9722a3daafe3b4186f6b6457e060405160405180910390a35050565b6001816000016000828254019250508190555050565b828054620002a090620003cd565b90600052602060002090601f016020900481019282620002c4576000855562000310565b82601f10620002df57805160ff191683800117855562000310565b8280016001018555821562000310579182015b828111156200030f578251825591602001919060010190620002f2565b5b5090506200031f919062000323565b5090565b5b808211156200033e57600081600090555060010162000324565b5090565b600081519050620003538162000432565b92915050565b6000602082840312156200036c57600080fd5b60006200037c8482850162000342565b91505092915050565b60006200039282620003ad565b9050919050565b6000620003a68262000385565b9050919050565b600073ffffffffffffffffffffffffffffffffffffffff82169050919050565b60006002820490506001821680620003e657607f821691505b60208210811415620003fd57620003fc62000403565b5b50919050565b7f4e487b7100000000000000000000000000000000000000000000000000000000600052602260045260246000fd5b6200043d8162000399565b81146200044957600080fd5b50565b615eea806200045c6000396000f3fe6080604052600436106101a05760003560e01c8063715018a6116100ec578063c87b56dd1161008a578063e985e9c511610064578063e985e9c514610642578063ebeccacc1461067f578063f2fde38b146106a8578063fc0c546a146106d1576101a7565b8063c87b56dd1461058b578063d44b87d1146105c8578063dbc1910214610605576101a7565b806395d89b41116100c657806395d89b41146104d1578063a22cb465146104fc578063b7ce9bc014610525578063b88d4fde14610562576101a7565b8063715018a61461044f57806375621cdd146104665780638da5cb5b146104a6576101a7565b806323b872dd116101595780635bc0ceb1116101335780635bc0ceb11461036f5780636352211e146103ac578063670a6fd9146103e957806370a0823114610412576101a7565b806323b872dd146102e057806342842e0e146103095780635947b86e14610332576101a7565b806301ffc9a7146101ac578063034a7c50146101e957806306fdde0314610212578063081812fc1461023d578063095ea7b31461027a578063163cf2e3146102a3576101a7565b366101a757005b600080fd5b3480156101b857600080fd5b506101d360048036038101906101ce9190613fe1565b6106fc565b6040516101e09190614a31565b60405180910390f35b3480156101f557600080fd5b50610210600480360381019061020b91906140c8565b6107de565b005b34801561021e57600080fd5b50610227610b7e565b6040516102349190614a67565b60405180910390f35b34801561024957600080fd5b50610264600480360381019061025f9190614247565b610c10565b6040516102719190614941565b60405180910390f35b34801561028657600080fd5b506102a1600480360381019061029c9190613f7c565b610c95565b005b3480156102af57600080fd5b506102ca60048036038101906102c59190614074565b610dad565b6040516102d79190614f73565b60405180910390f35b3480156102ec57600080fd5b5061030760048036038101906103029190613e22565b610e20565b005b34801561031557600080fd5b50610330600480360381019061032b9190613e22565b610e80565b005b34801561033e57600080fd5b5061035960048036038101906103549190614033565b610ea0565b6040516103669190614941565b60405180910390f35b34801561037b57600080fd5b50610396600480360381019061039191906141f3565b610ee8565b6040516103a39190614f73565b60405180910390f35b3480156103b857600080fd5b506103d360048036038101906103ce9190614247565b610f2f565b6040516103e09190614941565b60405180910390f35b3480156103f557600080fd5b50610410600480360381019061040b9190613eec565b610fe1565b005b34801561041e57600080fd5b5061043960048036038101906104349190613dbd565b6110b8565b6040516104469190614f73565b60405180910390f35b34801561045b57600080fd5b50610464611170565b005b34801561047257600080fd5b5061048d60048036038101906104889190614033565b6111f8565b60405161049d9493929190614ac0565b60405180910390f35b3480156104b257600080fd5b506104bb6112ef565b6040516104c89190614941565b60405180910390f35b3480156104dd57600080fd5b506104e6611319565b6040516104f39190614a67565b60405180910390f35b34801561050857600080fd5b50610523600480360381019061051e9190613eec565b6113ab565b005b34801561053157600080fd5b5061054c60048036038101906105479190614033565b6113c1565b6040516105599190614f73565b60405180910390f35b34801561056e57600080fd5b5061058960048036038101906105849190613e71565b6113d6565b005b34801561059757600080fd5b506105b260048036038101906105ad9190614247565b611438565b6040516105bf9190614a67565b60405180910390f35b3480156105d457600080fd5b506105ef60048036038101906105ea9190613f28565b61158a565b6040516105fc9190614f58565b60405180910390f35b34801561061157600080fd5b5061062c60048036038101906106279190613f28565b6115de565b6040516106399190614f73565b60405180910390f35b34801561064e57600080fd5b5061066960048036038101906106649190613de6565b611619565b6040516106769190614a31565b60405180910390f35b34801561068b57600080fd5b506106a660048036038101906106a19190614134565b6116ad565b005b3480156106b457600080fd5b506106cf60048036038101906106ca9190613dbd565b611cb4565b005b3480156106dd57600080fd5b506106e6611dac565b6040516106f39190614a4c565b60405180910390f35b60007f80ac58cd000000000000000000000000000000000000000000000000000000007bffffffffffffffffffffffffffffffffffffffffffffffffffffffff1916827bffffffffffffffffffffffffffffffffffffffffffffffffffffffff191614806107c757507f5b5e139f000000000000000000000000000000000000000000000000000000007bffffffffffffffffffffffffffffffffffffffffffffffffffffffff1916827bffffffffffffffffffffffffffffffffffffffffffffffffffffffff1916145b806107d757506107d682611de8565b5b9050919050565b60011515600a60003373ffffffffffffffffffffffffffffffffffffffff1673ffffffffffffffffffffffffffffffffffffffff16815260200190815260200160002060009054906101000a900460ff1615151461083b57600080fd5b600b8260405161084b91906148d7565b908152602001604051809103902060010160109054906101000a900460ff166108a9576040517f08c379a00000000000000000000000000000000000000000000000000000000081526004016108a090614d98565b60405180910390fd5b8051600b836040516108bb91906148d7565b908152602001604051809103902060010160009054906101000a90046fffffffffffffffffffffffffffffffff166fffffffffffffffffffffffffffffffff161461093b576040517f08c379a000000000000000000000000000000000000000000000000000000000815260040161093290614f18565b60405180910390fd5b3373ffffffffffffffffffffffffffffffffffffffff16600c8360405161096291906148d7565b908152602001604051809103902060009054906101000a900473ffffffffffffffffffffffffffffffffffffffff1673ffffffffffffffffffffffffffffffffffffffff16146109e7576040517f08c379a00000000000000000000000000000000000000000000000000000000081526004016109de90614db8565b60405180910390fd5b60005b8151816fffffffffffffffffffffffffffffffff161015610b0857600181610a1291906150f4565b6009600084846fffffffffffffffffffffffffffffffff1681518110610a61577f4e487b7100000000000000000000000000000000000000000000000000000000600052603260045260246000fd5b602002602001015173ffffffffffffffffffffffffffffffffffffffff1673ffffffffffffffffffffffffffffffffffffffff16815260200190815260200160002084604051610ab191906148d7565b908152602001604051809103902060006101000a8154816fffffffffffffffffffffffffffffffff02191690836fffffffffffffffffffffffffffffffff1602179055508080610b00906153dd565b9150506109ea565b506000600b83604051610b1b91906148d7565b908152602001604051809103902060010160106101000a81548160ff0219169083151502179055507fddc8f81580442cf3c79ef7ad3ad4c7a7afcd120b34730556fa217aca493cbde782604051610b729190614a67565b60405180910390a15050565b606060008054610b8d9061537a565b80601f0160208091040260200160405190810160405280929190818152602001828054610bb99061537a565b8015610c065780601f10610bdb57610100808354040283529160200191610c06565b820191906000526020600020905b815481529060010190602001808311610be957829003601f168201915b5050505050905090565b6000610c1b82611e52565b610c5a576040517f08c379a0000000000000000000000000000000000000000000000000000000008152600401610c5190614e18565b60405180910390fd5b6004600083815260200190815260200160002060009054906101000a900473ffffffffffffffffffffffffffffffffffffffff169050919050565b6000610ca082610f2f565b90508073ffffffffffffffffffffffffffffffffffffffff168373ffffffffffffffffffffffffffffffffffffffff161415610d11576040517f08c379a0000000000000000000000000000000000000000000000000000000008152600401610d0890614eb8565b60405180910390fd5b8073ffffffffffffffffffffffffffffffffffffffff16610d30611ebe565b73ffffffffffffffffffffffffffffffffffffffff161480610d5f5750610d5e81610d59611ebe565b611619565b5b610d9e576040517f08c379a0000000000000000000000000000000000000000000000000000000008152600401610d9590614cf8565b60405180910390fd5b610da88383611ec6565b505050565b600060011515600a60003373ffffffffffffffffffffffffffffffffffffffff1673ffffffffffffffffffffffffffffffffffffffff16815260200190815260200160002060009054906101000a900460ff16151514610e0c57600080fd5b610e1883836001611f7f565b905092915050565b610e31610e2b611ebe565b826123be565b610e70576040517f08c379a0000000000000000000000000000000000000000000000000000000008152600401610e6790614ed8565b60405180910390fd5b610e7b83838361249c565b505050565b610e9b838383604051806020016040528060008152506113d6565b505050565b6000600c82604051610eb291906148d7565b908152602001604051809103902060009054906101000a900473ffffffffffffffffffffffffffffffffffffffff169050919050565b600d828051602081018201805184825260208301602085012081835280955050505050508181548110610f1a57600080fd5b90600052602060002001600091509150505481565b6000806002600084815260200190815260200160002060009054906101000a900473ffffffffffffffffffffffffffffffffffffffff169050600073ffffffffffffffffffffffffffffffffffffffff168173ffffffffffffffffffffffffffffffffffffffff161415610fd8576040517f08c379a0000000000000000000000000000000000000000000000000000000008152600401610fcf90614d58565b60405180910390fd5b80915050919050565b610fe9611ebe565b73ffffffffffffffffffffffffffffffffffffffff166110076112ef565b73ffffffffffffffffffffffffffffffffffffffff161461105d576040517f08c379a000000000000000000000000000000000000000000000000000000000815260040161105490614e58565b60405180910390fd5b80600a60008473ffffffffffffffffffffffffffffffffffffffff1673ffffffffffffffffffffffffffffffffffffffff16815260200190815260200160002060006101000a81548160ff0219169083151502179055505050565b60008073ffffffffffffffffffffffffffffffffffffffff168273ffffffffffffffffffffffffffffffffffffffff161415611129576040517f08c379a000000000000000000000000000000000000000000000000000000000815260040161112090614d38565b60405180910390fd5b600360008373ffffffffffffffffffffffffffffffffffffffff1673ffffffffffffffffffffffffffffffffffffffff168152602001908152602001600020549050919050565b611178611ebe565b73ffffffffffffffffffffffffffffffffffffffff166111966112ef565b73ffffffffffffffffffffffffffffffffffffffff16146111ec576040517f08c379a00000000000000000000000000000000000000000000000000000000081526004016111e390614e58565b60405180910390fd5b6111f66000612703565b565b600b818051602081018201805184825260208301602085012081835280955050505050506000915090508060000180546112319061537a565b80601f016020809104026020016040519081016040528092919081815260200182805461125d9061537a565b80156112aa5780601f1061127f576101008083540402835291602001916112aa565b820191906000526020600020905b81548152906001019060200180831161128d57829003601f168201915b5050505050908060010160009054906101000a90046fffffffffffffffffffffffffffffffff16908060010160109054906101000a900460ff16908060020154905084565b6000600760009054906101000a900473ffffffffffffffffffffffffffffffffffffffff16905090565b6060600180546113289061537a565b80601f01602080910402602001604051908101604052809291908181526020018280546113549061537a565b80156113a15780601f10611376576101008083540402835291602001916113a1565b820191906000526020600020905b81548152906001019060200180831161138457829003601f168201915b5050505050905090565b6113bd6113b6611ebe565b83836127c9565b5050565b60006113cf82336000611f7f565b9050919050565b6113e76113e1611ebe565b836123be565b611426576040517f08c379a000000000000000000000000000000000000000000000000000000000815260040161141d90614ed8565b60405180910390fd5b61143284848484612936565b50505050565b606061144382611e52565b611482576040517f08c379a000000000000000000000000000000000000000000000000000000000815260040161147990614df8565b60405180910390fd5b60006006600084815260200190815260200160002080546114a29061537a565b80601f01602080910402602001604051908101604052809291908181526020018280546114ce9061537a565b801561151b5780601f106114f05761010080835404028352916020019161151b565b820191906000526020600020905b8154815290600101906020018083116114fe57829003601f168201915b50505050509050600061152c612992565b9050600081511415611542578192505050611585565b60008251111561157757808260405160200161155f9291906148ee565b60405160208183030381529060405292505050611585565b611580846129a9565b925050505b919050565b6009602052816000526040600020818051602081018201805184825260208301602085012081835280955050505050506000915091509054906101000a90046fffffffffffffffffffffffffffffffff1681565b600860205281600052604060002081805160208101820180518482526020830160208501208183528095505050505050600091509150505481565b6000600560008473ffffffffffffffffffffffffffffffffffffffff1673ffffffffffffffffffffffffffffffffffffffff16815260200190815260200160002060008373ffffffffffffffffffffffffffffffffffffffff1673ffffffffffffffffffffffffffffffffffffffff16815260200190815260200160002060009054906101000a900460ff16905092915050565b60011515600a60003373ffffffffffffffffffffffffffffffffffffffff1673ffffffffffffffffffffffffffffffffffffffff16815260200190815260200160002060009054906101000a900460ff1615151461170a57600080fd5b42811161174c576040517f08c379a000000000000000000000000000000000000000000000000000000000815260040161174390614b98565b60405180910390fd5b6000600b8660405161175e91906148d7565b908152602001604051809103902060010160009054906101000a90046fffffffffffffffffffffffffffffffff166fffffffffffffffffffffffffffffffff16146117de576040517f08c379a00000000000000000000000000000000000000000000000000000000081526004016117d590614d18565b60405180910390fd5b6000836fffffffffffffffffffffffffffffffff1611611833576040517f08c379a000000000000000000000000000000000000000000000000000000000815260040161182a90614b78565b60405180910390fd5b8151836fffffffffffffffffffffffffffffffff161015611889576040517f08c379a000000000000000000000000000000000000000000000000000000000815260040161188090614b58565b60405180910390fd5b6000805b83518110156118f7578381815181106118cf577f4e487b7100000000000000000000000000000000000000000000000000000000600052603260045260246000fd5b6020026020010151826118e2919061513a565b915080806118ef90615416565b91505061188d565b50600e60009054906101000a900473ffffffffffffffffffffffffffffffffffffffff1673ffffffffffffffffffffffffffffffffffffffff166370a08231336040518263ffffffff1660e01b81526004016119539190614941565b60206040518083038186803b15801561196b57600080fd5b505afa15801561197f573d6000803e3d6000fd5b505050506040513d601f19601f820116820180604052508101906119a39190614270565b81106119e4576040517f08c379a00000000000000000000000000000000000000000000000000000000081526004016119db90614cd8565b60405180910390fd5b600e60009054906101000a900473ffffffffffffffffffffffffffffffffffffffff1673ffffffffffffffffffffffffffffffffffffffff1663dd62ed3e33306040518363ffffffff1660e01b8152600401611a4192919061495c565b60206040518083038186803b158015611a5957600080fd5b505afa158015611a6d573d6000803e3d6000fd5b505050506040513d601f19601f82011682018060405250810190611a919190614270565b8110611ad2576040517f08c379a0000000000000000000000000000000000000000000000000000000008152600401611ac990614e98565b60405180910390fd5b611b00600e60009054906101000a900473ffffffffffffffffffffffffffffffffffffffff16333084612a50565b60006040518060800160405280878152602001866fffffffffffffffffffffffffffffffff16815260200160011515815260200184815250905033600c88604051611b4b91906148d7565b908152602001604051809103902060006101000a81548173ffffffffffffffffffffffffffffffffffffffff021916908373ffffffffffffffffffffffffffffffffffffffff16021790555083600d88604051611ba891906148d7565b90815260200160405180910390209080519060200190611bc9929190613a29565b5080600b88604051611bdb91906148d7565b90815260200160405180910390206000820151816000019080519060200190611c05929190613a76565b5060208201518160010160006101000a8154816fffffffffffffffffffffffffffffffff02191690836fffffffffffffffffffffffffffffffff16021790555060408201518160010160106101000a81548160ff021916908315150217905550606082015181600201559050507fa310019f6fd75fa5b16ca49a8a2b046f9b872fa6d6ea4ef1e35fb3e4cf9adec88785604051611ca3929190614a89565b60405180910390a150505050505050565b611cbc611ebe565b73ffffffffffffffffffffffffffffffffffffffff16611cda6112ef565b73ffffffffffffffffffffffffffffffffffffffff1614611d30576040517f08c379a0000000000000000000000000000000000000000000000000000000008152600401611d2790614e58565b60405180910390fd5b600073ffffffffffffffffffffffffffffffffffffffff168173ffffffffffffffffffffffffffffffffffffffff161415611da0576040517f08c379a0000000000000000000000000000000000000000000000000000000008152600401611d9790614bf8565b60405180910390fd5b611da981612703565b50565b600e60009054906101000a900473ffffffffffffffffffffffffffffffffffffffff1681565b6001816000016000828254019250508190555050565b60007f01ffc9a7000000000000000000000000000000000000000000000000000000007bffffffffffffffffffffffffffffffffffffffffffffffffffffffff1916827bffffffffffffffffffffffffffffffffffffffffffffffffffffffff1916149050919050565b60008073ffffffffffffffffffffffffffffffffffffffff166002600084815260200190815260200160002060009054906101000a900473ffffffffffffffffffffffffffffffffffffffff1673ffffffffffffffffffffffffffffffffffffffff1614159050919050565b600033905090565b816004600083815260200190815260200160002060006101000a81548173ffffffffffffffffffffffffffffffffffffffff021916908373ffffffffffffffffffffffffffffffffffffffff160217905550808273ffffffffffffffffffffffffffffffffffffffff16611f3983610f2f565b73ffffffffffffffffffffffffffffffffffffffff167f8c5be1e5ebec7d5bd14f71427d1e84f3dd0314c0f7b2291e5b200ac8c7c3b92560405160405180910390a45050565b60008383600b82604051611f9391906148d7565b908152602001604051809103902060010160109054906101000a900460ff1615611fbc57600080fd5b6000600960008373ffffffffffffffffffffffffffffffffffffffff1673ffffffffffffffffffffffffffffffffffffffff1681526020019081526020016000208360405161200b91906148d7565b908152602001604051809103902060009054906101000a90046fffffffffffffffffffffffffffffffff166fffffffffffffffffffffffffffffffff161161205257600080fd5b6000600860008373ffffffffffffffffffffffffffffffffffffffff1673ffffffffffffffffffffffffffffffffffffffff168152602001908152602001600020836040516120a191906148d7565b908152602001604051809103902054146120ba57600080fd5b6000600960008773ffffffffffffffffffffffffffffffffffffffff1673ffffffffffffffffffffffffffffffffffffffff1681526020019081526020016000208760405161210991906148d7565b908152602001604051809103902060009054906101000a90046fffffffffffffffffffffffffffffffff1690506000600b8860405161214891906148d7565b908152602001604051809103902060000180546121649061537a565b80601f01602080910402602001604051908101604052809291908181526020018280546121909061537a565b80156121dd5780601f106121b2576101008083540402835291602001916121dd565b820191906000526020600020905b8154815290600101906020018083116121c057829003601f168201915b505050505090506000816121f084612ad9565b604051602001612201929190614912565b6040516020818303038152906040529050600061221e600f612ce6565b905080600860008b73ffffffffffffffffffffffffffffffffffffffff1673ffffffffffffffffffffffffffffffffffffffff1681526020019081526020016000208b60405161226e91906148d7565b90815260200160405180910390208190555061228a8982612cf4565b8873ffffffffffffffffffffffffffffffffffffffff167f436ed5ad57b88689854d2b756b16ffc1e461f71b9c88bc4316a6b58e9d7fc8098b86848c6040516122d69493929190614b0c565b60405180910390a26122e88183612d12565b6122f2600f611dd2565b600d8a60405161230291906148d7565b908152602001604051809103902080549050600960008b73ffffffffffffffffffffffffffffffffffffffff1673ffffffffffffffffffffffffffffffffffffffff1681526020019081526020016000208b60405161236191906148d7565b908152602001604051809103902060009054906101000a90046fffffffffffffffffffffffffffffffff166fffffffffffffffffffffffffffffffff16116123ae576123ad898b612d86565b5b8096505050505050509392505050565b60006123c982611e52565b612408576040517f08c379a00000000000000000000000000000000000000000000000000000000081526004016123ff90614cb8565b60405180910390fd5b600061241383610f2f565b90508073ffffffffffffffffffffffffffffffffffffffff168473ffffffffffffffffffffffffffffffffffffffff16148061248257508373ffffffffffffffffffffffffffffffffffffffff1661246a84610c10565b73ffffffffffffffffffffffffffffffffffffffff16145b8061249357506124928185611619565b5b91505092915050565b8273ffffffffffffffffffffffffffffffffffffffff166124bc82610f2f565b73ffffffffffffffffffffffffffffffffffffffff1614612512576040517f08c379a000000000000000000000000000000000000000000000000000000000815260040161250990614c18565b60405180910390fd5b600073ffffffffffffffffffffffffffffffffffffffff168273ffffffffffffffffffffffffffffffffffffffff161415612582576040517f08c379a000000000000000000000000000000000000000000000000000000000815260040161257990614c58565b60405180910390fd5b61258d8383836131a3565b612598600082611ec6565b6001600360008573ffffffffffffffffffffffffffffffffffffffff1673ffffffffffffffffffffffffffffffffffffffff16815260200190815260200160002060008282546125e89190615226565b925050819055506001600360008473ffffffffffffffffffffffffffffffffffffffff1673ffffffffffffffffffffffffffffffffffffffff168152602001908152602001600020600082825461263f919061513a565b92505081905550816002600083815260200190815260200160002060006101000a81548173ffffffffffffffffffffffffffffffffffffffff021916908373ffffffffffffffffffffffffffffffffffffffff160217905550808273ffffffffffffffffffffffffffffffffffffffff168473ffffffffffffffffffffffffffffffffffffffff167fddf252ad1be2c89b69c2b068fc378daa952ba7f163c4a11628f55a4df523b3ef60405160405180910390a46126fe8383836131a8565b505050565b6000600760009054906101000a900473ffffffffffffffffffffffffffffffffffffffff16905081600760006101000a81548173ffffffffffffffffffffffffffffffffffffffff021916908373ffffffffffffffffffffffffffffffffffffffff1602179055508173ffffffffffffffffffffffffffffffffffffffff168173ffffffffffffffffffffffffffffffffffffffff167f8be0079c531659141344cd1fd0a4f28419497f9722a3daafe3b4186f6b6457e060405160405180910390a35050565b8173ffffffffffffffffffffffffffffffffffffffff168373ffffffffffffffffffffffffffffffffffffffff161415612838576040517f08c379a000000000000000000000000000000000000000000000000000000000815260040161282f90614c78565b60405180910390fd5b80600560008573ffffffffffffffffffffffffffffffffffffffff1673ffffffffffffffffffffffffffffffffffffffff16815260200190815260200160002060008473ffffffffffffffffffffffffffffffffffffffff1673ffffffffffffffffffffffffffffffffffffffff16815260200190815260200160002060006101000a81548160ff0219169083151502179055508173ffffffffffffffffffffffffffffffffffffffff168373ffffffffffffffffffffffffffffffffffffffff167f17307eab39ab6107e8899845ad3d59bd9653f200f220920489ca2b5937696c31836040516129299190614a31565b60405180910390a3505050565b61294184848461249c565b61294d848484846131ad565b61298c576040517f08c379a000000000000000000000000000000000000000000000000000000000815260040161298390614bd8565b60405180910390fd5b50505050565b606060405180602001604052806000815250905090565b60606129b482611e52565b6129f3576040517f08c379a00000000000000000000000000000000000000000000000000000000081526004016129ea90614e78565b60405180910390fd5b60006129fd612992565b90506000815111612a1d5760405180602001604052806000815250612a48565b80612a2784613344565b604051602001612a389291906148ee565b6040516020818303038152906040525b915050919050565b612ad3846323b872dd60e01b858585604051602401612a7193929190614985565b604051602081830303815290604052907bffffffffffffffffffffffffffffffffffffffffffffffffffffffff19166020820180517bffffffffffffffffffffffffffffffffffffffffffffffffffffffff83818316178352505050506134f1565b50505050565b60606000826fffffffffffffffffffffffffffffffff161415612b33576040518060400160405280600181526020017f30000000000000000000000000000000000000000000000000000000000000008152509050612ce1565b600082905060005b6000826fffffffffffffffffffffffffffffffff1614612b77578080612b60906153dd565b915050600a82612b709190615190565b9150612b3b565b6000816fffffffffffffffffffffffffffffffff1667ffffffffffffffff811115612bcb577f4e487b7100000000000000000000000000000000000000000000000000000000600052604160045260246000fd5b6040519080825280601f01601f191660200182016040528015612bfd5781602001600182028036833780820191505090505b50905060008290508593505b6000846fffffffffffffffffffffffffffffffff1614612cd957600a84612c30919061545f565b6030612c3c91906150f4565b60f81b8282612c4a90615350565b9250826fffffffffffffffffffffffffffffffff1681518110612c96577f4e487b7100000000000000000000000000000000000000000000000000000000600052603260045260246000fd5b60200101907effffffffffffffffffffffffffffffffffffffffffffffffffffffffffffff1916908160001a905350600a84612cd29190615190565b9350612c09565b819450505050505b919050565b600081600001549050919050565b612d0e8282604051806020016040528060008152506135b8565b5050565b612d1b82611e52565b612d5a576040517f08c379a0000000000000000000000000000000000000000000000000000000008152600401612d5190614d78565b60405180910390fd5b80600660008481526020019081526020016000209080519060200190612d81929190613a76565b505050565b8082600d82604051612d9891906148d7565b908152602001604051809103902080549050600960008373ffffffffffffffffffffffffffffffffffffffff1673ffffffffffffffffffffffffffffffffffffffff16815260200190815260200160002083604051612df791906148d7565b908152602001604051809103902060009054906101000a90046fffffffffffffffffffffffffffffffff166fffffffffffffffffffffffffffffffff161115612e3f57600080fd5b6000600d84604051612e5191906148d7565b90815260200160405180910390206001600960008873ffffffffffffffffffffffffffffffffffffffff1673ffffffffffffffffffffffffffffffffffffffff16815260200190815260200160002086604051612eae91906148d7565b908152602001604051809103902060009054906101000a90046fffffffffffffffffffffffffffffffff16612ee391906151f2565b6fffffffffffffffffffffffffffffffff1681548110612f2c577f4e487b7100000000000000000000000000000000000000000000000000000000600052603260045260246000fd5b906000526020600020015490506000811415612f7d576040517f08c379a0000000000000000000000000000000000000000000000000000000008152600401612f7490614bb8565b60405180910390fd5b600e60009054906101000a900473ffffffffffffffffffffffffffffffffffffffff1673ffffffffffffffffffffffffffffffffffffffff166370a08231306040518263ffffffff1660e01b8152600401612fd89190614941565b60206040518083038186803b158015612ff057600080fd5b505afa158015613004573d6000803e3d6000fd5b505050506040513d601f19601f820116820180604052508101906130289190614270565b81111561306a576040517f08c379a000000000000000000000000000000000000000000000000000000000815260040161306190614e38565b60405180910390fd5b6000600960008773ffffffffffffffffffffffffffffffffffffffff1673ffffffffffffffffffffffffffffffffffffffff168152602001908152602001600020856040516130b991906148d7565b908152602001604051809103902060006101000a8154816fffffffffffffffffffffffffffffffff02191690836fffffffffffffffffffffffffffffffff16021790555061312a600e60009054906101000a900473ffffffffffffffffffffffffffffffffffffffff168683613613565b600e60009054906101000a900473ffffffffffffffffffffffffffffffffffffffff1673ffffffffffffffffffffffffffffffffffffffff167f3be5b7a71e84ed12875d241991c70855ac5817d847039e17a9d895c1ceb0f18a8683604051613194929190614a08565b60405180910390a25050505050565b505050565b505050565b60006131ce8473ffffffffffffffffffffffffffffffffffffffff16613699565b15613337578373ffffffffffffffffffffffffffffffffffffffff1663150b7a026131f7611ebe565b8786866040518563ffffffff1660e01b815260040161321994939291906149bc565b602060405180830381600087803b15801561323357600080fd5b505af192505050801561326457506040513d601f19601f82011682018060405250810190613261919061400a565b60015b6132e7573d8060008114613294576040519150601f19603f3d011682016040523d82523d6000602084013e613299565b606091505b506000815114156132df576040517f08c379a00000000000000000000000000000000000000000000000000000000081526004016132d690614bd8565b60405180910390fd5b805181602001fd5b63150b7a0260e01b7bffffffffffffffffffffffffffffffffffffffffffffffffffffffff1916817bffffffffffffffffffffffffffffffffffffffffffffffffffffffff19161491505061333c565b600190505b949350505050565b6060600082141561338c576040518060400160405280600181526020017f300000000000000000000000000000000000000000000000000000000000000081525090506134ec565b600082905060005b600082146133be5780806133a790615416565b915050600a826133b791906151c1565b9150613394565b60008167ffffffffffffffff811115613400577f4e487b7100000000000000000000000000000000000000000000000000000000600052604160045260246000fd5b6040519080825280601f01601f1916602001820160405280156134325781602001600182028036833780820191505090505b5090505b600085146134e55760018261344b9190615226565b9150600a8561345a9190615490565b6030613466919061513a565b60f81b8183815181106134a2577f4e487b7100000000000000000000000000000000000000000000000000000000600052603260045260246000fd5b60200101907effffffffffffffffffffffffffffffffffffffffffffffffffffffffffffff1916908160001a905350600a856134de91906151c1565b9450613436565b8093505050505b919050565b6000613553826040518060400160405280602081526020017f5361666545524332303a206c6f772d6c6576656c2063616c6c206661696c65648152508573ffffffffffffffffffffffffffffffffffffffff166136bc9092919063ffffffff16565b90506000815111156135b357808060200190518101906135739190613fb8565b6135b2576040517f08c379a00000000000000000000000000000000000000000000000000000000081526004016135a990614f38565b60405180910390fd5b5b505050565b6135c283836136d4565b6135cf60008484846131ad565b61360e576040517f08c379a000000000000000000000000000000000000000000000000000000000815260040161360590614bd8565b60405180910390fd5b505050565b6136948363a9059cbb60e01b8484604051602401613632929190614a08565b604051602081830303815290604052907bffffffffffffffffffffffffffffffffffffffffffffffffffffffff19166020820180517bffffffffffffffffffffffffffffffffffffffffffffffffffffffff83818316178352505050506134f1565b505050565b6000808273ffffffffffffffffffffffffffffffffffffffff163b119050919050565b60606136cb84846000856138ae565b90509392505050565b600073ffffffffffffffffffffffffffffffffffffffff168273ffffffffffffffffffffffffffffffffffffffff161415613744576040517f08c379a000000000000000000000000000000000000000000000000000000000815260040161373b90614dd8565b60405180910390fd5b61374d81611e52565b1561378d576040517f08c379a000000000000000000000000000000000000000000000000000000000815260040161378490614c38565b60405180910390fd5b613799600083836131a3565b6001600360008473ffffffffffffffffffffffffffffffffffffffff1673ffffffffffffffffffffffffffffffffffffffff16815260200190815260200160002060008282546137e9919061513a565b92505081905550816002600083815260200190815260200160002060006101000a81548173ffffffffffffffffffffffffffffffffffffffff021916908373ffffffffffffffffffffffffffffffffffffffff160217905550808273ffffffffffffffffffffffffffffffffffffffff16600073ffffffffffffffffffffffffffffffffffffffff167fddf252ad1be2c89b69c2b068fc378daa952ba7f163c4a11628f55a4df523b3ef60405160405180910390a46138aa600083836131a8565b5050565b6060824710156138f3576040517f08c379a00000000000000000000000000000000000000000000000000000000081526004016138ea90614c98565b60405180910390fd5b6138fc85613699565b61393b576040517f08c379a000000000000000000000000000000000000000000000000000000000815260040161393290614ef8565b60405180910390fd5b6000808673ffffffffffffffffffffffffffffffffffffffff16858760405161396491906148c0565b60006040518083038185875af1925050503d80600081146139a1576040519150601f19603f3d011682016040523d82523d6000602084013e6139a6565b606091505b50915091506139b68282866139c2565b92505050949350505050565b606083156139d257829050613a22565b6000835111156139e55782518084602001fd5b816040517f08c379a0000000000000000000000000000000000000000000000000000000008152600401613a199190614a67565b60405180910390fd5b9392505050565b828054828255906000526020600020908101928215613a65579160200282015b82811115613a64578251825591602001919060010190613a49565b5b509050613a729190613afc565b5090565b828054613a829061537a565b90600052602060002090601f016020900481019282613aa45760008555613aeb565b82601f10613abd57805160ff1916838001178555613aeb565b82800160010185558215613aeb579182015b82811115613aea578251825591602001919060010190613acf565b5b509050613af89190613afc565b5090565b5b80821115613b15576000816000905550600101613afd565b5090565b6000613b2c613b2784614fb3565b614f8e565b90508083825260208201905082856020860282011115613b4b57600080fd5b60005b85811015613b7b5781613b618882613c6d565b845260208401935060208301925050600181019050613b4e565b5050509392505050565b6000613b98613b9384614fdf565b614f8e565b90508083825260208201905082856020860282011115613bb757600080fd5b60005b85811015613be75781613bcd8882613d93565b845260208401935060208301925050600181019050613bba565b5050509392505050565b6000613c04613bff8461500b565b614f8e565b905082815260208101848484011115613c1c57600080fd5b613c2784828561530e565b509392505050565b6000613c42613c3d8461503c565b614f8e565b905082815260208101848484011115613c5a57600080fd5b613c6584828561530e565b509392505050565b600081359050613c7c81615e41565b92915050565b600082601f830112613c9357600080fd5b8135613ca3848260208601613b19565b91505092915050565b600082601f830112613cbd57600080fd5b8135613ccd848260208601613b85565b91505092915050565b600081359050613ce581615e58565b92915050565b600081519050613cfa81615e58565b92915050565b600081359050613d0f81615e6f565b92915050565b600081519050613d2481615e6f565b92915050565b600082601f830112613d3b57600080fd5b8135613d4b848260208601613bf1565b91505092915050565b600082601f830112613d6557600080fd5b8135613d75848260208601613c2f565b91505092915050565b600081359050613d8d81615e86565b92915050565b600081359050613da281615e9d565b92915050565b600081519050613db781615e9d565b92915050565b600060208284031215613dcf57600080fd5b6000613ddd84828501613c6d565b91505092915050565b60008060408385031215613df957600080fd5b6000613e0785828601613c6d565b9250506020613e1885828601613c6d565b9150509250929050565b600080600060608486031215613e3757600080fd5b6000613e4586828701613c6d565b9350506020613e5686828701613c6d565b9250506040613e6786828701613d93565b9150509250925092565b60008060008060808587031215613e8757600080fd5b6000613e9587828801613c6d565b9450506020613ea687828801613c6d565b9350506040613eb787828801613d93565b925050606085013567ffffffffffffffff811115613ed457600080fd5b613ee087828801613d2a565b91505092959194509250565b60008060408385031215613eff57600080fd5b6000613f0d85828601613c6d565b9250506020613f1e85828601613cd6565b9150509250929050565b60008060408385031215613f3b57600080fd5b6000613f4985828601613c6d565b925050602083013567ffffffffffffffff811115613f6657600080fd5b613f7285828601613d54565b9150509250929050565b60008060408385031215613f8f57600080fd5b6000613f9d85828601613c6d565b9250506020613fae85828601613d93565b9150509250929050565b600060208284031215613fca57600080fd5b6000613fd884828501613ceb565b91505092915050565b600060208284031215613ff357600080fd5b600061400184828501613d00565b91505092915050565b60006020828403121561401c57600080fd5b600061402a84828501613d15565b91505092915050565b60006020828403121561404557600080fd5b600082013567ffffffffffffffff81111561405f57600080fd5b61406b84828501613d54565b91505092915050565b6000806040838503121561408757600080fd5b600083013567ffffffffffffffff8111156140a157600080fd5b6140ad85828601613d54565b92505060206140be85828601613c6d565b9150509250929050565b600080604083850312156140db57600080fd5b600083013567ffffffffffffffff8111156140f557600080fd5b61410185828601613d54565b925050602083013567ffffffffffffffff81111561411e57600080fd5b61412a85828601613c82565b9150509250929050565b600080600080600060a0868803121561414c57600080fd5b600086013567ffffffffffffffff81111561416657600080fd5b61417288828901613d54565b955050602086013567ffffffffffffffff81111561418f57600080fd5b61419b88828901613d54565b94505060406141ac88828901613d7e565b935050606086013567ffffffffffffffff8111156141c957600080fd5b6141d588828901613cac565b92505060806141e688828901613d93565b9150509295509295909350565b6000806040838503121561420657600080fd5b600083013567ffffffffffffffff81111561422057600080fd5b61422c85828601613d54565b925050602061423d85828601613d93565b9150509250929050565b60006020828403121561425957600080fd5b600061426784828501613d93565b91505092915050565b60006020828403121561428257600080fd5b600061429084828501613da8565b91505092915050565b60006142a583836148a2565b60208301905092915050565b6142ba8161525a565b82525050565b60006142cb8261507d565b6142d581856150ab565b93506142e08361506d565b8060005b838110156143115781516142f88882614299565b97506143038361509e565b9250506001810190506142e4565b5085935050505092915050565b6143278161526c565b82525050565b600061433882615088565b61434281856150bc565b935061435281856020860161531d565b61435b8161557d565b840191505092915050565b600061437182615088565b61437b81856150cd565b935061438b81856020860161531d565b80840191505092915050565b6143a0816152ea565b82525050565b60006143b182615093565b6143bb81856150d8565b93506143cb81856020860161531d565b6143d48161557d565b840191505092915050565b60006143ea82615093565b6143f481856150e9565b935061440481856020860161531d565b80840191505092915050565b600061441d6032836150d8565b91506144288261558e565b604082019050919050565b60006144406029836150d8565b915061444b826155dd565b604082019050919050565b6000614463601b836150d8565b915061446e8261562c565b602082019050919050565b60006144866023836150d8565b915061449182615655565b604082019050919050565b60006144a96032836150d8565b91506144b4826156a4565b604082019050919050565b60006144cc6026836150d8565b91506144d7826156f3565b604082019050919050565b60006144ef6025836150d8565b91506144fa82615742565b604082019050919050565b6000614512601c836150d8565b915061451d82615791565b602082019050919050565b60006145356024836150d8565b9150614540826157ba565b604082019050919050565b60006145586019836150d8565b915061456382615809565b602082019050919050565b600061457b6026836150d8565b915061458682615832565b604082019050919050565b600061459e602c836150d8565b91506145a982615881565b604082019050919050565b60006145c16028836150d8565b91506145cc826158d0565b604082019050919050565b60006145e46038836150d8565b91506145ef8261591f565b604082019050919050565b60006146076022836150d8565b91506146128261596e565b604082019050919050565b600061462a602a836150d8565b9150614635826159bd565b604082019050919050565b600061464d6029836150d8565b915061465882615a0c565b604082019050919050565b6000614670602e836150d8565b915061467b82615a5b565b604082019050919050565b60006146936021836150d8565b915061469e82615aaa565b604082019050919050565b60006146b6601d836150d8565b91506146c182615af9565b602082019050919050565b60006146d96020836150d8565b91506146e482615b22565b602082019050919050565b60006146fc6031836150d8565b915061470782615b4b565b604082019050919050565b600061471f602c836150d8565b915061472a82615b9a565b604082019050919050565b60006147426005836150e9565b915061474d82615be9565b600582019050919050565b6000614765601d836150d8565b915061477082615c12565b602082019050919050565b60006147886020836150d8565b915061479382615c3b565b602082019050919050565b60006147ab602f836150d8565b91506147b682615c64565b604082019050919050565b60006147ce6015836150d8565b91506147d982615cb3565b602082019050919050565b60006147f16021836150d8565b91506147fc82615cdc565b604082019050919050565b60006148146031836150d8565b915061481f82615d2b565b604082019050919050565b6000614837601d836150d8565b915061484282615d7a565b602082019050919050565b600061485a6036836150d8565b915061486582615da3565b604082019050919050565b600061487d602a836150d8565b915061488882615df2565b604082019050919050565b61489c816152a4565b82525050565b6148ab816152e0565b82525050565b6148ba816152e0565b82525050565b60006148cc8284614366565b915081905092915050565b60006148e382846143df565b915081905092915050565b60006148fa82856143df565b915061490682846143df565b91508190509392505050565b600061491e82856143df565b915061492a82846143df565b915061493582614735565b91508190509392505050565b600060208201905061495660008301846142b1565b92915050565b600060408201905061497160008301856142b1565b61497e60208301846142b1565b9392505050565b600060608201905061499a60008301866142b1565b6149a760208301856142b1565b6149b460408301846148b1565b949350505050565b60006080820190506149d160008301876142b1565b6149de60208301866142b1565b6149eb60408301856148b1565b81810360608301526149fd818461432d565b905095945050505050565b6000604082019050614a1d60008301856142b1565b614a2a60208301846148b1565b9392505050565b6000602082019050614a46600083018461431e565b92915050565b6000602082019050614a616000830184614397565b92915050565b60006020820190508181036000830152614a8181846143a6565b905092915050565b60006040820190508181036000830152614aa381856143a6565b90508181036020830152614ab781846142c0565b90509392505050565b60006080820190508181036000830152614ada81876143a6565b9050614ae96020830186614893565b614af6604083018561431e565b614b0360608301846148b1565b95945050505050565b60006080820190508181036000830152614b2681876143a6565b9050614b356020830186614893565b614b4260408301856148b1565b614b4f606083018461431e565b95945050505050565b60006020820190508181036000830152614b7181614410565b9050919050565b60006020820190508181036000830152614b9181614433565b9050919050565b60006020820190508181036000830152614bb181614456565b9050919050565b60006020820190508181036000830152614bd181614479565b9050919050565b60006020820190508181036000830152614bf18161449c565b9050919050565b60006020820190508181036000830152614c11816144bf565b9050919050565b60006020820190508181036000830152614c31816144e2565b9050919050565b60006020820190508181036000830152614c5181614505565b9050919050565b60006020820190508181036000830152614c7181614528565b9050919050565b60006020820190508181036000830152614c918161454b565b9050919050565b60006020820190508181036000830152614cb18161456e565b9050919050565b60006020820190508181036000830152614cd181614591565b9050919050565b60006020820190508181036000830152614cf1816145b4565b9050919050565b60006020820190508181036000830152614d11816145d7565b9050919050565b60006020820190508181036000830152614d31816145fa565b9050919050565b60006020820190508181036000830152614d518161461d565b9050919050565b60006020820190508181036000830152614d7181614640565b9050919050565b60006020820190508181036000830152614d9181614663565b9050919050565b60006020820190508181036000830152614db181614686565b9050919050565b60006020820190508181036000830152614dd1816146a9565b9050919050565b60006020820190508181036000830152614df1816146cc565b9050919050565b60006020820190508181036000830152614e11816146ef565b9050919050565b60006020820190508181036000830152614e3181614712565b9050919050565b60006020820190508181036000830152614e5181614758565b9050919050565b60006020820190508181036000830152614e718161477b565b9050919050565b60006020820190508181036000830152614e918161479e565b9050919050565b60006020820190508181036000830152614eb1816147c1565b9050919050565b60006020820190508181036000830152614ed1816147e4565b9050919050565b60006020820190508181036000830152614ef181614807565b9050919050565b60006020820190508181036000830152614f118161482a565b9050919050565b60006020820190508181036000830152614f318161484d565b9050919050565b60006020820190508181036000830152614f5181614870565b9050919050565b6000602082019050614f6d6000830184614893565b92915050565b6000602082019050614f8860008301846148b1565b92915050565b6000614f98614fa9565b9050614fa482826153ac565b919050565b6000604051905090565b600067ffffffffffffffff821115614fce57614fcd61554e565b5b602082029050602081019050919050565b600067ffffffffffffffff821115614ffa57614ff961554e565b5b602082029050602081019050919050565b600067ffffffffffffffff8211156150265761502561554e565b5b61502f8261557d565b9050602081019050919050565b600067ffffffffffffffff8211156150575761505661554e565b5b6150608261557d565b9050602081019050919050565b6000819050602082019050919050565b600081519050919050565b600081519050919050565b600081519050919050565b6000602082019050919050565b600082825260208201905092915050565b600082825260208201905092915050565b600081905092915050565b600082825260208201905092915050565b600081905092915050565b60006150ff826152a4565b915061510a836152a4565b9250826fffffffffffffffffffffffffffffffff0382111561512f5761512e6154c1565b5b828201905092915050565b6000615145826152e0565b9150615150836152e0565b9250827fffffffffffffffffffffffffffffffffffffffffffffffffffffffffffffffff03821115615185576151846154c1565b5b828201905092915050565b600061519b826152a4565b91506151a6836152a4565b9250826151b6576151b56154f0565b5b828204905092915050565b60006151cc826152e0565b91506151d7836152e0565b9250826151e7576151e66154f0565b5b828204905092915050565b60006151fd826152a4565b9150615208836152a4565b92508282101561521b5761521a6154c1565b5b828203905092915050565b6000615231826152e0565b915061523c836152e0565b92508282101561524f5761524e6154c1565b5b828203905092915050565b6000615265826152c0565b9050919050565b60008115159050919050565b60007fffffffff0000000000000000000000000000000000000000000000000000000082169050919050565b60006fffffffffffffffffffffffffffffffff82169050919050565b600073ffffffffffffffffffffffffffffffffffffffff82169050919050565b6000819050919050565b60006152f5826152fc565b9050919050565b6000615307826152c0565b9050919050565b82818337600083830152505050565b60005b8381101561533b578082015181840152602081019050615320565b8381111561534a576000848401525b50505050565b600061535b826152a4565b9150600082141561536f5761536e6154c1565b5b600182039050919050565b6000600282049050600182168061539257607f821691505b602082108114156153a6576153a561551f565b5b50919050565b6153b58261557d565b810181811067ffffffffffffffff821117156153d4576153d361554e565b5b80604052505050565b60006153e8826152a4565b91506fffffffffffffffffffffffffffffffff82141561540b5761540a6154c1565b5b600182019050919050565b6000615421826152e0565b91507fffffffffffffffffffffffffffffffffffffffffffffffffffffffffffffffff821415615454576154536154c1565b5b600182019050919050565b600061546a826152a4565b9150615475836152a4565b925082615485576154846154f0565b5b828206905092915050565b600061549b826152e0565b91506154a6836152e0565b9250826154b6576154b56154f0565b5b828206905092915050565b7f4e487b7100000000000000000000000000000000000000000000000000000000600052601160045260246000fd5b7f4e487b7100000000000000000000000000000000000000000000000000000000600052601260045260246000fd5b7f4e487b7100000000000000000000000000000000000000000000000000000000600052602260045260246000fd5b7f4e487b7100000000000000000000000000000000000000000000000000000000600052604160045260246000fd5b6000601f19601f8301169050919050565b7f426f756e74794d616b65723a204c696d6974206d757374206265206d6f72652060008201527f7468616e206e6f206f6620726577617264730000000000000000000000000000602082015250565b7f426f756e74794d616b65723a204c696d6974206d75737420626520677265617460008201527f6572207468616e20300000000000000000000000000000000000000000000000602082015250565b7f496e76616c69642056616c756520666f722074696d657374616d700000000000600082015250565b7f5061796d656e743a206163636f756e74206973206e6f7420647565207061796d60008201527f656e740000000000000000000000000000000000000000000000000000000000602082015250565b7f4552433732313a207472616e7366657220746f206e6f6e20455243373231526560008201527f63656976657220696d706c656d656e7465720000000000000000000000000000602082015250565b7f4f776e61626c653a206e6577206f776e657220697320746865207a65726f206160008201527f6464726573730000000000000000000000000000000000000000000000000000602082015250565b7f4552433732313a207472616e736665722066726f6d20696e636f72726563742060008201527f6f776e6572000000000000000000000000000000000000000000000000000000602082015250565b7f4552433732313a20746f6b656e20616c7265616479206d696e74656400000000600082015250565b7f4552433732313a207472616e7366657220746f20746865207a65726f2061646460008201527f7265737300000000000000000000000000000000000000000000000000000000602082015250565b7f4552433732313a20617070726f766520746f2063616c6c657200000000000000600082015250565b7f416464726573733a20696e73756666696369656e742062616c616e636520666f60008201527f722063616c6c0000000000000000000000000000000000000000000000000000602082015250565b7f4552433732313a206f70657261746f7220717565727920666f72206e6f6e657860008201527f697374656e7420746f6b656e0000000000000000000000000000000000000000602082015250565b7f5061796d656e743a20496e73756666696369656e742062616c616e6365206f6660008201527f2063726561746f72000000000000000000000000000000000000000000000000602082015250565b7f4552433732313a20617070726f76652063616c6c6572206973206e6f74206f7760008201527f6e6572206e6f7220617070726f76656420666f7220616c6c0000000000000000602082015250565b7f426f756e74794d616b65723a20426f756e747920616c7265616479206578697360008201527f7473000000000000000000000000000000000000000000000000000000000000602082015250565b7f4552433732313a2062616c616e636520717565727920666f7220746865207a6560008201527f726f206164647265737300000000000000000000000000000000000000000000602082015250565b7f4552433732313a206f776e657220717565727920666f72206e6f6e657869737460008201527f656e7420746f6b656e0000000000000000000000000000000000000000000000602082015250565b7f45524337323155524953746f726167653a2055524920736574206f66206e6f6e60008201527f6578697374656e7420746f6b656e000000000000000000000000000000000000602082015250565b7f426f756e74794d616b65723a20426f756e7479206973206e6f7420616374697660008201527f6500000000000000000000000000000000000000000000000000000000000000602082015250565b7f426f756e74794d616b65723a204e6f7420626f756e74792061646d696e000000600082015250565b7f4552433732313a206d696e7420746f20746865207a65726f2061646472657373600082015250565b7f45524337323155524953746f726167653a2055524920717565727920666f722060008201527f6e6f6e6578697374656e7420746f6b656e000000000000000000000000000000602082015250565b7f4552433732313a20617070726f76656420717565727920666f72206e6f6e657860008201527f697374656e7420746f6b656e0000000000000000000000000000000000000000602082015250565b7f2e6a736f6e000000000000000000000000000000000000000000000000000000600082015250565b7f5061796d656e743a20496e73756666696369656e742062616c616e6365000000600082015250565b7f4f776e61626c653a2063616c6c6572206973206e6f7420746865206f776e6572600082015250565b7f4552433732314d657461646174613a2055524920717565727920666f72206e6f60008201527f6e6578697374656e7420746f6b656e0000000000000000000000000000000000602082015250565b7f5061796d656e743a204e6f7420617070726f7665640000000000000000000000600082015250565b7f4552433732313a20617070726f76616c20746f2063757272656e74206f776e6560008201527f7200000000000000000000000000000000000000000000000000000000000000602082015250565b7f4552433732313a207472616e736665722063616c6c6572206973206e6f74206f60008201527f776e6572206e6f7220617070726f766564000000000000000000000000000000602082015250565b7f416464726573733a2063616c6c20746f206e6f6e2d636f6e7472616374000000600082015250565b7f426f756e74794d616b65723a204e6f206f662077696e6e657273206d7573742060008201527f626520657175616c20746f20746f6b656e4c696d747300000000000000000000602082015250565b7f5361666545524332303a204552433230206f7065726174696f6e20646964206e60008201527f6f74207375636365656400000000000000000000000000000000000000000000602082015250565b615e4a8161525a565b8114615e5557600080fd5b50565b615e618161526c565b8114615e6c57600080fd5b50565b615e7881615278565b8114615e8357600080fd5b50565b615e8f816152a4565b8114615e9a57600080fd5b50565b615ea6816152e0565b8114615eb157600080fd5b5056fea2646970667358221220c6b16ae38a069880fcbb940d8d68a03222538e81645e4141f051d4c134a30dea64736f6c63430008040033",
  "linkReferences": {},
  "deployedLinkReferences": {}
}