{
  "_format": "hh-sol-artifact-1",
  "contractName": "BountyMaker",
  "sourceName": "contracts/BountyMaker.sol",
  "abi": [
    {
      "inputs": [
        {
          "internalType": "contract IERC20",
          "name": "_token",
          "type": "address"
        }
      ],
      "stateMutability": "nonpayable",
      "type": "constructor"
    },
    {
      "anonymous": false,
      "inputs": [
        {
          "indexed": true,
          "internalType": "address",
          "name": "owner",
          "type": "address"
        },
        {
          "indexed": true,
          "internalType": "address",
          "name": "approved",
          "type": "address"
        },
        {
          "indexed": true,
          "internalType": "uint256",
          "name": "tokenId",
          "type": "uint256"
        }
      ],
      "name": "Approval",
      "type": "event"
    },
    {
      "anonymous": false,
      "inputs": [
        {
          "indexed": true,
          "internalType": "address",
          "name": "owner",
          "type": "address"
        },
        {
          "indexed": true,
          "internalType": "address",
          "name": "operator",
          "type": "address"
        },
        {
          "indexed": false,
          "internalType": "bool",
          "name": "approved",
          "type": "bool"
        }
      ],
      "name": "ApprovalForAll",
      "type": "event"
    },
    {
      "anonymous": false,
      "inputs": [
        {
          "indexed": false,
          "internalType": "string",
          "name": "_bountyId",
          "type": "string"
        },
        {
          "indexed": false,
          "internalType": "uint256[]",
          "name": "_rewards",
          "type": "uint256[]"
        }
      ],
      "name": "BountyCreated",
      "type": "event"
    },
    {
      "anonymous": false,
      "inputs": [
        {
          "indexed": true,
          "internalType": "address",
          "name": "_receiver",
          "type": "address"
        },
        {
          "indexed": false,
          "internalType": "string",
          "name": "_bountyId",
          "type": "string"
        },
        {
          "indexed": false,
          "internalType": "uint128",
          "name": "_bountyIndex",
          "type": "uint128"
        },
        {
          "indexed": false,
          "internalType": "uint256",
          "name": "_contractIndex",
          "type": "uint256"
        },
        {
          "indexed": false,
          "internalType": "bool",
          "name": "_isAdmin",
          "type": "bool"
        }
      ],
      "name": "Claim",
      "type": "event"
    },
    {
      "anonymous": false,
      "inputs": [
        {
          "indexed": true,
          "internalType": "contract IERC20",
          "name": "token",
          "type": "address"
        },
        {
          "indexed": false,
          "internalType": "address",
          "name": "to",
          "type": "address"
        },
        {
          "indexed": false,
          "internalType": "uint256",
          "name": "amount",
          "type": "uint256"
        }
      ],
      "name": "ERC20PaymentReleased",
      "type": "event"
    },
    {
      "anonymous": false,
      "inputs": [
        {
          "indexed": true,
          "internalType": "address",
          "name": "previousOwner",
          "type": "address"
        },
        {
          "indexed": true,
          "internalType": "address",
          "name": "newOwner",
          "type": "address"
        }
      ],
      "name": "OwnershipTransferred",
      "type": "event"
    },
    {
      "anonymous": false,
      "inputs": [
        {
          "indexed": true,
          "internalType": "address",
          "name": "from",
          "type": "address"
        },
        {
          "indexed": true,
          "internalType": "address",
          "name": "to",
          "type": "address"
        },
        {
          "indexed": true,
          "internalType": "uint256",
          "name": "tokenId",
          "type": "uint256"
        }
      ],
      "name": "Transfer",
      "type": "event"
    },
    {
      "anonymous": false,
      "inputs": [
        {
          "indexed": false,
          "internalType": "string",
          "name": "_bountyId",
          "type": "string"
        }
      ],
      "name": "WinnersDeclared",
      "type": "event"
    },
    {
      "inputs": [
        {
          "internalType": "string",
          "name": "_bountyId",
          "type": "string"
        },
        {
          "internalType": "address",
          "name": "to",
          "type": "address"
        }
      ],
      "name": "adminClaimToken",
      "outputs": [
        {
          "internalType": "uint256",
          "name": "",
          "type": "uint256"
        }
      ],
      "stateMutability": "nonpayable",
      "type": "function"
    },
    {
      "inputs": [
        {
          "internalType": "address",
          "name": "to",
          "type": "address"
        },
        {
          "internalType": "uint256",
          "name": "tokenId",
          "type": "uint256"
        }
      ],
      "name": "approve",
      "outputs": [],
      "stateMutability": "nonpayable",
      "type": "function"
    },
    {
      "inputs": [
        {
          "internalType": "address",
          "name": "owner",
          "type": "address"
        }
      ],
      "name": "balanceOf",
      "outputs": [
        {
          "internalType": "uint256",
          "name": "",
          "type": "uint256"
        }
      ],
      "stateMutability": "view",
      "type": "function"
    },
    {
      "inputs": [
        {
          "internalType": "string",
          "name": "",
          "type": "string"
        }
      ],
      "name": "bountys",
      "outputs": [
        {
          "internalType": "string",
          "name": "uri",
          "type": "string"
        },
        {
          "internalType": "uint128",
          "name": "tokenLimit",
          "type": "uint128"
        },
        {
          "internalType": "bool",
          "name": "active",
          "type": "bool"
        },
        {
          "internalType": "uint256",
          "name": "endTime",
          "type": "uint256"
        }
      ],
      "stateMutability": "view",
      "type": "function"
    },
    {
      "inputs": [
        {
          "internalType": "string",
          "name": "_bountyId",
          "type": "string"
        }
      ],
      "name": "claimToken",
      "outputs": [
        {
          "internalType": "uint256",
          "name": "",
          "type": "uint256"
        }
      ],
      "stateMutability": "nonpayable",
      "type": "function"
    },
    {
      "inputs": [
        {
          "internalType": "address",
          "name": "",
          "type": "address"
        },
        {
          "internalType": "string",
          "name": "",
          "type": "string"
        }
      ],
      "name": "claimed",
      "outputs": [
        {
          "internalType": "uint256",
          "name": "",
          "type": "uint256"
        }
      ],
      "stateMutability": "view",
      "type": "function"
    },
    {
      "inputs": [
        {
          "internalType": "string",
          "name": "_bountyId",
          "type": "string"
        },
        {
          "internalType": "string",
          "name": "uri",
          "type": "string"
        },
        {
          "internalType": "uint128",
          "name": "_tokenLimit",
          "type": "uint128"
        },
        {
          "internalType": "uint256[]",
          "name": "_rewards",
          "type": "uint256[]"
        },
        {
          "internalType": "uint256",
          "name": "_endTime",
          "type": "uint256"
        }
      ],
      "name": "createBounty",
      "outputs": [],
      "stateMutability": "nonpayable",
      "type": "function"
    },
    {
      "inputs": [
        {
          "internalType": "uint256",
          "name": "tokenId",
          "type": "uint256"
        }
      ],
      "name": "getApproved",
      "outputs": [
        {
          "internalType": "address",
          "name": "",
          "type": "address"
        }
      ],
      "stateMutability": "view",
      "type": "function"
    },
    {
      "inputs": [
        {
          "internalType": "address",
          "name": "owner",
          "type": "address"
        },
        {
          "internalType": "address",
          "name": "operator",
          "type": "address"
        }
      ],
      "name": "isApprovedForAll",
      "outputs": [
        {
          "internalType": "bool",
          "name": "",
          "type": "bool"
        }
      ],
      "stateMutability": "view",
      "type": "function"
    },
    {
      "inputs": [],
      "name": "name",
      "outputs": [
        {
          "internalType": "string",
          "name": "",
          "type": "string"
        }
      ],
      "stateMutability": "view",
      "type": "function"
    },
    {
      "inputs": [],
      "name": "owner",
      "outputs": [
        {
          "internalType": "address",
          "name": "",
          "type": "address"
        }
      ],
      "stateMutability": "view",
      "type": "function"
    },
    {
      "inputs": [
        {
          "internalType": "uint256",
          "name": "tokenId",
          "type": "uint256"
        }
      ],
      "name": "ownerOf",
      "outputs": [
        {
          "internalType": "address",
          "name": "",
          "type": "address"
        }
      ],
      "stateMutability": "view",
      "type": "function"
    },
    {
      "inputs": [],
      "name": "renounceOwnership",
      "outputs": [],
      "stateMutability": "nonpayable",
      "type": "function"
    },
    {
      "inputs": [
        {
          "internalType": "string",
          "name": "",
          "type": "string"
        },
        {
          "internalType": "uint256",
          "name": "",
          "type": "uint256"
        }
      ],
      "name": "rewards",
      "outputs": [
        {
          "internalType": "uint256",
          "name": "",
          "type": "uint256"
        }
      ],
      "stateMutability": "view",
      "type": "function"
    },
    {
      "inputs": [
        {
          "internalType": "address",
          "name": "from",
          "type": "address"
        },
        {
          "internalType": "address",
          "name": "to",
          "type": "address"
        },
        {
          "internalType": "uint256",
          "name": "tokenId",
          "type": "uint256"
        }
      ],
      "name": "safeTransferFrom",
      "outputs": [],
      "stateMutability": "nonpayable",
      "type": "function"
    },
    {
      "inputs": [
        {
          "internalType": "address",
          "name": "from",
          "type": "address"
        },
        {
          "internalType": "address",
          "name": "to",
          "type": "address"
        },
        {
          "internalType": "uint256",
          "name": "tokenId",
          "type": "uint256"
        },
        {
          "internalType": "bytes",
          "name": "_data",
          "type": "bytes"
        }
      ],
      "name": "safeTransferFrom",
      "outputs": [],
      "stateMutability": "nonpayable",
      "type": "function"
    },
    {
      "inputs": [
        {
          "internalType": "address",
          "name": "operator",
          "type": "address"
        },
        {
          "internalType": "bool",
          "name": "approved",
          "type": "bool"
        }
      ],
      "name": "setApprovalForAll",
      "outputs": [],
      "stateMutability": "nonpayable",
      "type": "function"
    },
    {
      "inputs": [
        {
          "internalType": "string",
          "name": "_bountyId",
          "type": "string"
        },
        {
          "internalType": "address[]",
          "name": "_winners",
          "type": "address[]"
        }
      ],
      "name": "setBountyWinners",
      "outputs": [],
      "stateMutability": "nonpayable",
      "type": "function"
    },
    {
      "inputs": [
        {
          "internalType": "bytes4",
          "name": "interfaceId",
          "type": "bytes4"
        }
      ],
      "name": "supportsInterface",
      "outputs": [
        {
          "internalType": "bool",
          "name": "",
          "type": "bool"
        }
      ],
      "stateMutability": "view",
      "type": "function"
    },
    {
      "inputs": [],
      "name": "symbol",
      "outputs": [
        {
          "internalType": "string",
          "name": "",
          "type": "string"
        }
      ],
      "stateMutability": "view",
      "type": "function"
    },
    {
      "inputs": [],
      "name": "token",
      "outputs": [
        {
          "internalType": "contract IERC20",
          "name": "",
          "type": "address"
        }
      ],
      "stateMutability": "view",
      "type": "function"
    },
    {
      "inputs": [
        {
          "internalType": "uint256",
          "name": "tokenId",
          "type": "uint256"
        }
      ],
      "name": "tokenURI",
      "outputs": [
        {
          "internalType": "string",
          "name": "",
          "type": "string"
        }
      ],
      "stateMutability": "view",
      "type": "function"
    },
    {
      "inputs": [
        {
          "internalType": "address",
          "name": "from",
          "type": "address"
        },
        {
          "internalType": "address",
          "name": "to",
          "type": "address"
        },
        {
          "internalType": "uint256",
          "name": "tokenId",
          "type": "uint256"
        }
      ],
      "name": "transferFrom",
      "outputs": [],
      "stateMutability": "nonpayable",
      "type": "function"
    },
    {
      "inputs": [
        {
          "internalType": "address",
          "name": "newOwner",
          "type": "address"
        }
      ],
      "name": "transferOwnership",
      "outputs": [],
      "stateMutability": "nonpayable",
      "type": "function"
    },
    {
      "inputs": [
        {
          "internalType": "address",
          "name": "_admin",
          "type": "address"
        },
        {
          "internalType": "bool",
          "name": "isAdmin",
          "type": "bool"
        }
      ],
      "name": "updateAdmin",
      "outputs": [],
      "stateMutability": "nonpayable",
      "type": "function"
    },
    {
      "inputs": [
        {
          "internalType": "address",
          "name": "",
          "type": "address"
        },
        {
          "internalType": "string",
          "name": "",
          "type": "string"
        }
      ],
      "name": "winners",
      "outputs": [
        {
          "internalType": "uint128",
          "name": "",
          "type": "uint128"
        }
      ],
      "stateMutability": "view",
      "type": "function"
    },
    {
      "inputs": [
        {
          "internalType": "string",
          "name": "",
          "type": "string"
        },
        {
          "internalType": "uint256",
          "name": "",
          "type": "uint256"
        }
      ],
      "name": "wins",
      "outputs": [
        {
          "internalType": "string",
          "name": "",
          "type": "string"
        }
      ],
      "stateMutability": "view",
      "type": "function"
    },
    {
      "stateMutability": "payable",
      "type": "receive"
    }
  ],
  "bytecode": "0x60806040523480156200001157600080fd5b506040516200655238038062006552833981810160405281019062000037919062000359565b6040518060400160405280600b81526020017f626f756e74794d616b65720000000000000000000000000000000000000000008152506040518060400160405280600b81526020017f424f554e54594d414b45520000000000000000000000000000000000000000008152508160009080519060200190620000bb92919062000292565b508060019080519060200190620000d492919062000292565b505050620000f7620000eb620001ae60201b60201c565b620001b660201b60201c565b6001600a60003373ffffffffffffffffffffffffffffffffffffffff1673ffffffffffffffffffffffffffffffffffffffff16815260200190815260200160002060006101000a81548160ff02191690831515021790555080600e60006101000a81548173ffffffffffffffffffffffffffffffffffffffff021916908373ffffffffffffffffffffffffffffffffffffffff160217905550620001a7600f6200027c60201b62001d501760201c565b506200044c565b600033905090565b6000600760009054906101000a900473ffffffffffffffffffffffffffffffffffffffff16905081600760006101000a81548173ffffffffffffffffffffffffffffffffffffffff021916908373ffffffffffffffffffffffffffffffffffffffff1602179055508173ffffffffffffffffffffffffffffffffffffffff168173ffffffffffffffffffffffffffffffffffffffff167f8be0079c531659141344cd1fd0a4f28419497f9722a3daafe3b4186f6b6457e060405160405180910390a35050565b6001816000016000828254019250508190555050565b828054620002a090620003cd565b90600052602060002090601f016020900481019282620002c4576000855562000310565b82601f10620002df57805160ff191683800117855562000310565b8280016001018555821562000310579182015b828111156200030f578251825591602001919060010190620002f2565b5b5090506200031f919062000323565b5090565b5b808211156200033e57600081600090555060010162000324565b5090565b600081519050620003538162000432565b92915050565b6000602082840312156200036c57600080fd5b60006200037c8482850162000342565b91505092915050565b60006200039282620003ad565b9050919050565b6000620003a68262000385565b9050919050565b600073ffffffffffffffffffffffffffffffffffffffff82169050919050565b60006002820490506001821680620003e657607f821691505b60208210811415620003fd57620003fc62000403565b5b50919050565b7f4e487b7100000000000000000000000000000000000000000000000000000000600052602260045260246000fd5b6200043d8162000399565b81146200044957600080fd5b50565b6160f6806200045c6000396000f3fe6080604052600436106101a05760003560e01c806375621cdd116100ec578063c87b56dd1161008a578063e985e9c511610064578063e985e9c514610642578063ebeccacc1461067f578063f2fde38b146106a8578063fc0c546a146106d1576101a7565b8063c87b56dd1461058b578063d44b87d1146105c8578063dbc1910214610605576101a7565b806395d89b41116100c657806395d89b41146104d1578063a22cb465146104fc578063b7ce9bc014610525578063b88d4fde14610562576101a7565b806375621cdd146104295780638da5cb5b146104695780639564b59c14610494576101a7565b806323b872dd116101595780636352211e116101335780636352211e1461036f578063670a6fd9146103ac57806370a08231146103d5578063715018a614610412576101a7565b806323b872dd146102e057806342842e0e146103095780635bc0ceb114610332576101a7565b806301ffc9a7146101ac578063034a7c50146101e957806306fdde0314610212578063081812fc1461023d578063095ea7b31461027a578063163cf2e3146102a3576101a7565b366101a757005b600080fd5b3480156101b857600080fd5b506101d360048036038101906101ce9190614037565b6106fc565b6040516101e09190614af0565b60405180910390f35b3480156101f557600080fd5b50610210600480360381019061020b919061411e565b6107de565b005b34801561021e57600080fd5b50610227610ad2565b6040516102349190614b26565b60405180910390f35b34801561024957600080fd5b50610264600480360381019061025f919061429d565b610b64565b6040516102719190614a00565b60405180910390f35b34801561028657600080fd5b506102a1600480360381019061029c9190613fd2565b610be9565b005b3480156102af57600080fd5b506102ca60048036038101906102c591906140ca565b610d01565b6040516102d79190615092565b60405180910390f35b3480156102ec57600080fd5b5061030760048036038101906103029190613e78565b610d74565b005b34801561031557600080fd5b50610330600480360381019061032b9190613e78565b610dd4565b005b34801561033e57600080fd5b5061035960048036038101906103549190614249565b610df4565b6040516103669190615092565b60405180910390f35b34801561037b57600080fd5b506103966004803603810190610391919061429d565b610e3b565b6040516103a39190614a00565b60405180910390f35b3480156103b857600080fd5b506103d360048036038101906103ce9190613f42565b610eed565b005b3480156103e157600080fd5b506103fc60048036038101906103f79190613e13565b610fc4565b6040516104099190615092565b60405180910390f35b34801561041e57600080fd5b5061042761107c565b005b34801561043557600080fd5b50610450600480360381019061044b9190614089565b611104565b6040516104609493929190614b7f565b60405180910390f35b34801561047557600080fd5b5061047e6111fb565b60405161048b9190614a00565b60405180910390f35b3480156104a057600080fd5b506104bb60048036038101906104b69190614249565b611225565b6040516104c89190614b26565b60405180910390f35b3480156104dd57600080fd5b506104e66112f4565b6040516104f39190614b26565b60405180910390f35b34801561050857600080fd5b50610523600480360381019061051e9190613f42565b611386565b005b34801561053157600080fd5b5061054c60048036038101906105479190614089565b61139c565b6040516105599190615092565b60405180910390f35b34801561056e57600080fd5b5061058960048036038101906105849190613ec7565b6113b1565b005b34801561059757600080fd5b506105b260048036038101906105ad919061429d565b611413565b6040516105bf9190614b26565b60405180910390f35b3480156105d457600080fd5b506105ef60048036038101906105ea9190613f7e565b611565565b6040516105fc9190615077565b60405180910390f35b34801561061157600080fd5b5061062c60048036038101906106279190613f7e565b6115b9565b6040516106399190615092565b60405180910390f35b34801561064e57600080fd5b5061066960048036038101906106649190613e3c565b6115f4565b6040516106769190614af0565b60405180910390f35b34801561068b57600080fd5b506106a660048036038101906106a1919061418a565b611688565b005b3480156106b457600080fd5b506106cf60048036038101906106ca9190613e13565b611c32565b005b3480156106dd57600080fd5b506106e6611d2a565b6040516106f39190614b0b565b60405180910390f35b60007f80ac58cd000000000000000000000000000000000000000000000000000000007bffffffffffffffffffffffffffffffffffffffffffffffffffffffff1916827bffffffffffffffffffffffffffffffffffffffffffffffffffffffff191614806107c757507f5b5e139f000000000000000000000000000000000000000000000000000000007bffffffffffffffffffffffffffffffffffffffffffffffffffffffff1916827bffffffffffffffffffffffffffffffffffffffffffffffffffffffff1916145b806107d757506107d682611d66565b5b9050919050565b60011515600a60003373ffffffffffffffffffffffffffffffffffffffff1673ffffffffffffffffffffffffffffffffffffffff16815260200190815260200160002060009054906101000a900460ff1615151461083b57600080fd5b600b8260405161084b9190614996565b908152602001604051809103902060010160109054906101000a900460ff166108a9576040517f08c379a00000000000000000000000000000000000000000000000000000000081526004016108a090614eb7565b60405180910390fd5b8051600b836040516108bb9190614996565b908152602001604051809103902060010160009054906101000a90046fffffffffffffffffffffffffffffffff166fffffffffffffffffffffffffffffffff161461093b576040517f08c379a000000000000000000000000000000000000000000000000000000000815260040161093290615017565b60405180910390fd5b60005b8151816fffffffffffffffffffffffffffffffff161015610a5c576001816109669190615213565b6009600084846fffffffffffffffffffffffffffffffff16815181106109b5577f4e487b7100000000000000000000000000000000000000000000000000000000600052603260045260246000fd5b602002602001015173ffffffffffffffffffffffffffffffffffffffff1673ffffffffffffffffffffffffffffffffffffffff16815260200190815260200160002084604051610a059190614996565b908152602001604051809103902060006101000a8154816fffffffffffffffffffffffffffffffff02191690836fffffffffffffffffffffffffffffffff1602179055508080610a54906154fc565b91505061093e565b506000600b83604051610a6f9190614996565b908152602001604051809103902060010160106101000a81548160ff0219169083151502179055507fddc8f81580442cf3c79ef7ad3ad4c7a7afcd120b34730556fa217aca493cbde782604051610ac69190614b26565b60405180910390a15050565b606060008054610ae190615499565b80601f0160208091040260200160405190810160405280929190818152602001828054610b0d90615499565b8015610b5a5780601f10610b2f57610100808354040283529160200191610b5a565b820191906000526020600020905b815481529060010190602001808311610b3d57829003601f168201915b5050505050905090565b6000610b6f82611dd0565b610bae576040517f08c379a0000000000000000000000000000000000000000000000000000000008152600401610ba590614f17565b60405180910390fd5b6004600083815260200190815260200160002060009054906101000a900473ffffffffffffffffffffffffffffffffffffffff169050919050565b6000610bf482610e3b565b90508073ffffffffffffffffffffffffffffffffffffffff168373ffffffffffffffffffffffffffffffffffffffff161415610c65576040517f08c379a0000000000000000000000000000000000000000000000000000000008152600401610c5c90614fb7565b60405180910390fd5b8073ffffffffffffffffffffffffffffffffffffffff16610c84611e3c565b73ffffffffffffffffffffffffffffffffffffffff161480610cb35750610cb281610cad611e3c565b6115f4565b5b610cf2576040517f08c379a0000000000000000000000000000000000000000000000000000000008152600401610ce990614df7565b60405180910390fd5b610cfc8383611e44565b505050565b600060011515600a60003373ffffffffffffffffffffffffffffffffffffffff1673ffffffffffffffffffffffffffffffffffffffff16815260200190815260200160002060009054906101000a900460ff16151514610d6057600080fd5b610d6c83836001611efd565b905092915050565b610d85610d7f611e3c565b826123de565b610dc4576040517f08c379a0000000000000000000000000000000000000000000000000000000008152600401610dbb90614fd7565b60405180910390fd5b610dcf8383836124bc565b505050565b610def838383604051806020016040528060008152506113b1565b505050565b600c828051602081018201805184825260208301602085012081835280955050505050508181548110610e2657600080fd5b90600052602060002001600091509150505481565b6000806002600084815260200190815260200160002060009054906101000a900473ffffffffffffffffffffffffffffffffffffffff169050600073ffffffffffffffffffffffffffffffffffffffff168173ffffffffffffffffffffffffffffffffffffffff161415610ee4576040517f08c379a0000000000000000000000000000000000000000000000000000000008152600401610edb90614e57565b60405180910390fd5b80915050919050565b610ef5611e3c565b73ffffffffffffffffffffffffffffffffffffffff16610f136111fb565b73ffffffffffffffffffffffffffffffffffffffff1614610f69576040517f08c379a0000000000000000000000000000000000000000000000000000000008152600401610f6090614f57565b60405180910390fd5b80600a60008473ffffffffffffffffffffffffffffffffffffffff1673ffffffffffffffffffffffffffffffffffffffff16815260200190815260200160002060006101000a81548160ff0219169083151502179055505050565b60008073ffffffffffffffffffffffffffffffffffffffff168273ffffffffffffffffffffffffffffffffffffffff161415611035576040517f08c379a000000000000000000000000000000000000000000000000000000000815260040161102c90614e37565b60405180910390fd5b600360008373ffffffffffffffffffffffffffffffffffffffff1673ffffffffffffffffffffffffffffffffffffffff168152602001908152602001600020549050919050565b611084611e3c565b73ffffffffffffffffffffffffffffffffffffffff166110a26111fb565b73ffffffffffffffffffffffffffffffffffffffff16146110f8576040517f08c379a00000000000000000000000000000000000000000000000000000000081526004016110ef90614f57565b60405180910390fd5b6111026000612723565b565b600b8180516020810182018051848252602083016020850120818352809550505050505060009150905080600001805461113d90615499565b80601f016020809104026020016040519081016040528092919081815260200182805461116990615499565b80156111b65780601f1061118b576101008083540402835291602001916111b6565b820191906000526020600020905b81548152906001019060200180831161119957829003601f168201915b5050505050908060010160009054906101000a90046fffffffffffffffffffffffffffffffff16908060010160109054906101000a900460ff16908060020154905084565b6000600760009054906101000a900473ffffffffffffffffffffffffffffffffffffffff16905090565b600d82805160208101820180518482526020830160208501208183528095505050505050818154811061125757600080fd5b9060005260206000200160009150915050805461127390615499565b80601f016020809104026020016040519081016040528092919081815260200182805461129f90615499565b80156112ec5780601f106112c1576101008083540402835291602001916112ec565b820191906000526020600020905b8154815290600101906020018083116112cf57829003601f168201915b505050505081565b60606001805461130390615499565b80601f016020809104026020016040519081016040528092919081815260200182805461132f90615499565b801561137c5780601f106113515761010080835404028352916020019161137c565b820191906000526020600020905b81548152906001019060200180831161135f57829003601f168201915b5050505050905090565b611398611391611e3c565b83836127e9565b5050565b60006113aa82336000611efd565b9050919050565b6113c26113bc611e3c565b836123de565b611401576040517f08c379a00000000000000000000000000000000000000000000000000000000081526004016113f890614fd7565b60405180910390fd5b61140d84848484612956565b50505050565b606061141e82611dd0565b61145d576040517f08c379a000000000000000000000000000000000000000000000000000000000815260040161145490614ef7565b60405180910390fd5b600060066000848152602001908152602001600020805461147d90615499565b80601f01602080910402602001604051908101604052809291908181526020018280546114a990615499565b80156114f65780601f106114cb576101008083540402835291602001916114f6565b820191906000526020600020905b8154815290600101906020018083116114d957829003601f168201915b5050505050905060006115076129b2565b905060008151141561151d578192505050611560565b60008251111561155257808260405160200161153a9291906149ad565b60405160208183030381529060405292505050611560565b61155b846129c9565b925050505b919050565b6009602052816000526040600020818051602081018201805184825260208301602085012081835280955050505050506000915091509054906101000a90046fffffffffffffffffffffffffffffffff1681565b600860205281600052604060002081805160208101820180518482526020830160208501208183528095505050505050600091509150505481565b6000600560008473ffffffffffffffffffffffffffffffffffffffff1673ffffffffffffffffffffffffffffffffffffffff16815260200190815260200160002060008373ffffffffffffffffffffffffffffffffffffffff1673ffffffffffffffffffffffffffffffffffffffff16815260200190815260200160002060009054906101000a900460ff16905092915050565b60011515600a60003373ffffffffffffffffffffffffffffffffffffffff1673ffffffffffffffffffffffffffffffffffffffff16815260200190815260200160002060009054906101000a900460ff161515146116e557600080fd5b428111611727576040517f08c379a000000000000000000000000000000000000000000000000000000000815260040161171e90614c57565b60405180910390fd5b6000600b866040516117399190614996565b908152602001604051809103902060010160009054906101000a90046fffffffffffffffffffffffffffffffff166fffffffffffffffffffffffffffffffff16146117b9576040517f08c379a00000000000000000000000000000000000000000000000000000000081526004016117b090614e17565b60405180910390fd5b6000836fffffffffffffffffffffffffffffffff161161180e576040517f08c379a000000000000000000000000000000000000000000000000000000000815260040161180590614c37565b60405180910390fd5b8151836fffffffffffffffffffffffffffffffff161015611864576040517f08c379a000000000000000000000000000000000000000000000000000000000815260040161185b90614c17565b60405180910390fd5b6000805b83518110156118d2578381815181106118aa577f4e487b7100000000000000000000000000000000000000000000000000000000600052603260045260246000fd5b6020026020010151826118bd9190615259565b915080806118ca90615535565b915050611868565b50600e60009054906101000a900473ffffffffffffffffffffffffffffffffffffffff1673ffffffffffffffffffffffffffffffffffffffff166370a08231336040518263ffffffff1660e01b815260040161192e9190614a00565b60206040518083038186803b15801561194657600080fd5b505afa15801561195a573d6000803e3d6000fd5b505050506040513d601f19601f8201168201806040525081019061197e91906142c6565b81106119bf576040517f08c379a00000000000000000000000000000000000000000000000000000000081526004016119b690614dd7565b60405180910390fd5b600e60009054906101000a900473ffffffffffffffffffffffffffffffffffffffff1673ffffffffffffffffffffffffffffffffffffffff1663dd62ed3e33306040518363ffffffff1660e01b8152600401611a1c929190614a1b565b60206040518083038186803b158015611a3457600080fd5b505afa158015611a48573d6000803e3d6000fd5b505050506040513d601f19601f82011682018060405250810190611a6c91906142c6565b8110611aad576040517f08c379a0000000000000000000000000000000000000000000000000000000008152600401611aa490614f97565b60405180910390fd5b611adb600e60009054906101000a900473ffffffffffffffffffffffffffffffffffffffff16333084612a70565b60006040518060800160405280878152602001866fffffffffffffffffffffffffffffffff16815260200160011515815260200184815250905083600c88604051611b269190614996565b90815260200160405180910390209080519060200190611b47929190613a7f565b5080600b88604051611b599190614996565b90815260200160405180910390206000820151816000019080519060200190611b83929190613acc565b5060208201518160010160006101000a8154816fffffffffffffffffffffffffffffffff02191690836fffffffffffffffffffffffffffffffff16021790555060408201518160010160106101000a81548160ff021916908315150217905550606082015181600201559050507fa310019f6fd75fa5b16ca49a8a2b046f9b872fa6d6ea4ef1e35fb3e4cf9adec88785604051611c21929190614b48565b60405180910390a150505050505050565b611c3a611e3c565b73ffffffffffffffffffffffffffffffffffffffff16611c586111fb565b73ffffffffffffffffffffffffffffffffffffffff1614611cae576040517f08c379a0000000000000000000000000000000000000000000000000000000008152600401611ca590614f57565b60405180910390fd5b600073ffffffffffffffffffffffffffffffffffffffff168173ffffffffffffffffffffffffffffffffffffffff161415611d1e576040517f08c379a0000000000000000000000000000000000000000000000000000000008152600401611d1590614cd7565b60405180910390fd5b611d2781612723565b50565b600e60009054906101000a900473ffffffffffffffffffffffffffffffffffffffff1681565b6001816000016000828254019250508190555050565b60007f01ffc9a7000000000000000000000000000000000000000000000000000000007bffffffffffffffffffffffffffffffffffffffffffffffffffffffff1916827bffffffffffffffffffffffffffffffffffffffffffffffffffffffff1916149050919050565b60008073ffffffffffffffffffffffffffffffffffffffff166002600084815260200190815260200160002060009054906101000a900473ffffffffffffffffffffffffffffffffffffffff1673ffffffffffffffffffffffffffffffffffffffff1614159050919050565b600033905090565b816004600083815260200190815260200160002060006101000a81548173ffffffffffffffffffffffffffffffffffffffff021916908373ffffffffffffffffffffffffffffffffffffffff160217905550808273ffffffffffffffffffffffffffffffffffffffff16611eb783610e3b565b73ffffffffffffffffffffffffffffffffffffffff167f8c5be1e5ebec7d5bd14f71427d1e84f3dd0314c0f7b2291e5b200ac8c7c3b92560405160405180910390a45050565b60008383600b82604051611f119190614996565b908152602001604051809103902060010160109054906101000a900460ff1615611f70576040517f08c379a0000000000000000000000000000000000000000000000000000000008152600401611f6790614e97565b60405180910390fd5b6000600960008373ffffffffffffffffffffffffffffffffffffffff1673ffffffffffffffffffffffffffffffffffffffff16815260200190815260200160002083604051611fbf9190614996565b908152602001604051809103902060009054906101000a90046fffffffffffffffffffffffffffffffff166fffffffffffffffffffffffffffffffff161161203c576040517f08c379a000000000000000000000000000000000000000000000000000000000815260040161203390614db7565b60405180910390fd5b6000600860008373ffffffffffffffffffffffffffffffffffffffff1673ffffffffffffffffffffffffffffffffffffffff1681526020019081526020016000208360405161208b9190614996565b908152602001604051809103902054146120da576040517f08c379a00000000000000000000000000000000000000000000000000000000081526004016120d190615057565b60405180910390fd5b6000600960008773ffffffffffffffffffffffffffffffffffffffff1673ffffffffffffffffffffffffffffffffffffffff168152602001908152602001600020876040516121299190614996565b908152602001604051809103902060009054906101000a90046fffffffffffffffffffffffffffffffff1690506000600b886040516121689190614996565b9081526020016040518091039020600001805461218490615499565b80601f01602080910402602001604051908101604052809291908181526020018280546121b090615499565b80156121fd5780601f106121d2576101008083540402835291602001916121fd565b820191906000526020600020905b8154815290600101906020018083116121e057829003601f168201915b5050505050905060008161221084612af9565b6040516020016122219291906149d1565b6040516020818303038152906040529050600061223e600f612d06565b905080600860008b73ffffffffffffffffffffffffffffffffffffffff1673ffffffffffffffffffffffffffffffffffffffff1681526020019081526020016000208b60405161228e9190614996565b9081526020016040518091039020819055506122aa8982612d14565b8873ffffffffffffffffffffffffffffffffffffffff167f436ed5ad57b88689854d2b756b16ffc1e461f71b9c88bc4316a6b58e9d7fc8098b86848c6040516122f69493929190614bcb565b60405180910390a26123088183612d32565b612312600f611d50565b600c8a6040516123229190614996565b908152602001604051809103902080549050600960008b73ffffffffffffffffffffffffffffffffffffffff1673ffffffffffffffffffffffffffffffffffffffff1681526020019081526020016000208b6040516123819190614996565b908152602001604051809103902060009054906101000a90046fffffffffffffffffffffffffffffffff166fffffffffffffffffffffffffffffffff16116123ce576123cd898b612da6565b5b8096505050505050509392505050565b60006123e982611dd0565b612428576040517f08c379a000000000000000000000000000000000000000000000000000000000815260040161241f90614d97565b60405180910390fd5b600061243383610e3b565b90508073ffffffffffffffffffffffffffffffffffffffff168473ffffffffffffffffffffffffffffffffffffffff1614806124a257508373ffffffffffffffffffffffffffffffffffffffff1661248a84610b64565b73ffffffffffffffffffffffffffffffffffffffff16145b806124b357506124b281856115f4565b5b91505092915050565b8273ffffffffffffffffffffffffffffffffffffffff166124dc82610e3b565b73ffffffffffffffffffffffffffffffffffffffff1614612532576040517f08c379a000000000000000000000000000000000000000000000000000000000815260040161252990614cf7565b60405180910390fd5b600073ffffffffffffffffffffffffffffffffffffffff168273ffffffffffffffffffffffffffffffffffffffff1614156125a2576040517f08c379a000000000000000000000000000000000000000000000000000000000815260040161259990614d37565b60405180910390fd5b6125ad8383836131f9565b6125b8600082611e44565b6001600360008573ffffffffffffffffffffffffffffffffffffffff1673ffffffffffffffffffffffffffffffffffffffff16815260200190815260200160002060008282546126089190615345565b925050819055506001600360008473ffffffffffffffffffffffffffffffffffffffff1673ffffffffffffffffffffffffffffffffffffffff168152602001908152602001600020600082825461265f9190615259565b92505081905550816002600083815260200190815260200160002060006101000a81548173ffffffffffffffffffffffffffffffffffffffff021916908373ffffffffffffffffffffffffffffffffffffffff160217905550808273ffffffffffffffffffffffffffffffffffffffff168473ffffffffffffffffffffffffffffffffffffffff167fddf252ad1be2c89b69c2b068fc378daa952ba7f163c4a11628f55a4df523b3ef60405160405180910390a461271e8383836131fe565b505050565b6000600760009054906101000a900473ffffffffffffffffffffffffffffffffffffffff16905081600760006101000a81548173ffffffffffffffffffffffffffffffffffffffff021916908373ffffffffffffffffffffffffffffffffffffffff1602179055508173ffffffffffffffffffffffffffffffffffffffff168173ffffffffffffffffffffffffffffffffffffffff167f8be0079c531659141344cd1fd0a4f28419497f9722a3daafe3b4186f6b6457e060405160405180910390a35050565b8173ffffffffffffffffffffffffffffffffffffffff168373ffffffffffffffffffffffffffffffffffffffff161415612858576040517f08c379a000000000000000000000000000000000000000000000000000000000815260040161284f90614d57565b60405180910390fd5b80600560008573ffffffffffffffffffffffffffffffffffffffff1673ffffffffffffffffffffffffffffffffffffffff16815260200190815260200160002060008473ffffffffffffffffffffffffffffffffffffffff1673ffffffffffffffffffffffffffffffffffffffff16815260200190815260200160002060006101000a81548160ff0219169083151502179055508173ffffffffffffffffffffffffffffffffffffffff168373ffffffffffffffffffffffffffffffffffffffff167f17307eab39ab6107e8899845ad3d59bd9653f200f220920489ca2b5937696c31836040516129499190614af0565b60405180910390a3505050565b6129618484846124bc565b61296d84848484613203565b6129ac576040517f08c379a00000000000000000000000000000000000000000000000000000000081526004016129a390614c97565b60405180910390fd5b50505050565b606060405180602001604052806000815250905090565b60606129d482611dd0565b612a13576040517f08c379a0000000000000000000000000000000000000000000000000000000008152600401612a0a90614f77565b60405180910390fd5b6000612a1d6129b2565b90506000815111612a3d5760405180602001604052806000815250612a68565b80612a478461339a565b604051602001612a589291906149ad565b6040516020818303038152906040525b915050919050565b612af3846323b872dd60e01b858585604051602401612a9193929190614a44565b604051602081830303815290604052907bffffffffffffffffffffffffffffffffffffffffffffffffffffffff19166020820180517bffffffffffffffffffffffffffffffffffffffffffffffffffffffff8381831617835250505050613547565b50505050565b60606000826fffffffffffffffffffffffffffffffff161415612b53576040518060400160405280600181526020017f30000000000000000000000000000000000000000000000000000000000000008152509050612d01565b600082905060005b6000826fffffffffffffffffffffffffffffffff1614612b97578080612b80906154fc565b915050600a82612b9091906152af565b9150612b5b565b6000816fffffffffffffffffffffffffffffffff1667ffffffffffffffff811115612beb577f4e487b7100000000000000000000000000000000000000000000000000000000600052604160045260246000fd5b6040519080825280601f01601f191660200182016040528015612c1d5781602001600182028036833780820191505090505b50905060008290508593505b6000846fffffffffffffffffffffffffffffffff1614612cf957600a84612c50919061557e565b6030612c5c9190615213565b60f81b8282612c6a9061546f565b9250826fffffffffffffffffffffffffffffffff1681518110612cb6577f4e487b7100000000000000000000000000000000000000000000000000000000600052603260045260246000fd5b60200101907effffffffffffffffffffffffffffffffffffffffffffffffffffffffffffff1916908160001a905350600a84612cf291906152af565b9350612c29565b819450505050505b919050565b600081600001549050919050565b612d2e82826040518060200160405280600081525061360e565b5050565b612d3b82611dd0565b612d7a576040517f08c379a0000000000000000000000000000000000000000000000000000000008152600401612d7190614e77565b60405180910390fd5b80600660008481526020019081526020016000209080519060200190612da1929190613acc565b505050565b8082600c82604051612db89190614996565b908152602001604051809103902080549050600960008373ffffffffffffffffffffffffffffffffffffffff1673ffffffffffffffffffffffffffffffffffffffff16815260200190815260200160002083604051612e179190614996565b908152602001604051809103902060009054906101000a90046fffffffffffffffffffffffffffffffff166fffffffffffffffffffffffffffffffff161115612e95576040517f08c379a0000000000000000000000000000000000000000000000000000000008152600401612e8c90614cb7565b60405180910390fd5b6000600c84604051612ea79190614996565b90815260200160405180910390206001600960008873ffffffffffffffffffffffffffffffffffffffff1673ffffffffffffffffffffffffffffffffffffffff16815260200190815260200160002086604051612f049190614996565b908152602001604051809103902060009054906101000a90046fffffffffffffffffffffffffffffffff16612f399190615311565b6fffffffffffffffffffffffffffffffff1681548110612f82577f4e487b7100000000000000000000000000000000000000000000000000000000600052603260045260246000fd5b906000526020600020015490506000811415612fd3576040517f08c379a0000000000000000000000000000000000000000000000000000000008152600401612fca90614c77565b60405180910390fd5b600e60009054906101000a900473ffffffffffffffffffffffffffffffffffffffff1673ffffffffffffffffffffffffffffffffffffffff166370a08231306040518263ffffffff1660e01b815260040161302e9190614a00565b60206040518083038186803b15801561304657600080fd5b505afa15801561305a573d6000803e3d6000fd5b505050506040513d601f19601f8201168201806040525081019061307e91906142c6565b8111156130c0576040517f08c379a00000000000000000000000000000000000000000000000000000000081526004016130b790614f37565b60405180910390fd5b6000600960008773ffffffffffffffffffffffffffffffffffffffff1673ffffffffffffffffffffffffffffffffffffffff1681526020019081526020016000208560405161310f9190614996565b908152602001604051809103902060006101000a8154816fffffffffffffffffffffffffffffffff02191690836fffffffffffffffffffffffffffffffff160217905550613180600e60009054906101000a900473ffffffffffffffffffffffffffffffffffffffff168683613669565b600e60009054906101000a900473ffffffffffffffffffffffffffffffffffffffff1673ffffffffffffffffffffffffffffffffffffffff167f3be5b7a71e84ed12875d241991c70855ac5817d847039e17a9d895c1ceb0f18a86836040516131ea929190614ac7565b60405180910390a25050505050565b505050565b505050565b60006132248473ffffffffffffffffffffffffffffffffffffffff166136ef565b1561338d578373ffffffffffffffffffffffffffffffffffffffff1663150b7a0261324d611e3c565b8786866040518563ffffffff1660e01b815260040161326f9493929190614a7b565b602060405180830381600087803b15801561328957600080fd5b505af19250505080156132ba57506040513d601f19601f820116820180604052508101906132b79190614060565b60015b61333d573d80600081146132ea576040519150601f19603f3d011682016040523d82523d6000602084013e6132ef565b606091505b50600081511415613335576040517f08c379a000000000000000000000000000000000000000000000000000000000815260040161332c90614c97565b60405180910390fd5b805181602001fd5b63150b7a0260e01b7bffffffffffffffffffffffffffffffffffffffffffffffffffffffff1916817bffffffffffffffffffffffffffffffffffffffffffffffffffffffff191614915050613392565b600190505b949350505050565b606060008214156133e2576040518060400160405280600181526020017f30000000000000000000000000000000000000000000000000000000000000008152509050613542565b600082905060005b600082146134145780806133fd90615535565b915050600a8261340d91906152e0565b91506133ea565b60008167ffffffffffffffff811115613456577f4e487b7100000000000000000000000000000000000000000000000000000000600052604160045260246000fd5b6040519080825280601f01601f1916602001820160405280156134885781602001600182028036833780820191505090505b5090505b6000851461353b576001826134a19190615345565b9150600a856134b091906155af565b60306134bc9190615259565b60f81b8183815181106134f8577f4e487b7100000000000000000000000000000000000000000000000000000000600052603260045260246000fd5b60200101907effffffffffffffffffffffffffffffffffffffffffffffffffffffffffffff1916908160001a905350600a8561353491906152e0565b945061348c565b8093505050505b919050565b60006135a9826040518060400160405280602081526020017f5361666545524332303a206c6f772d6c6576656c2063616c6c206661696c65648152508573ffffffffffffffffffffffffffffffffffffffff166137129092919063ffffffff16565b905060008151111561360957808060200190518101906135c9919061400e565b613608576040517f08c379a00000000000000000000000000000000000000000000000000000000081526004016135ff90615037565b60405180910390fd5b5b505050565b613618838361372a565b6136256000848484613203565b613664576040517f08c379a000000000000000000000000000000000000000000000000000000000815260040161365b90614c97565b60405180910390fd5b505050565b6136ea8363a9059cbb60e01b8484604051602401613688929190614ac7565b604051602081830303815290604052907bffffffffffffffffffffffffffffffffffffffffffffffffffffffff19166020820180517bffffffffffffffffffffffffffffffffffffffffffffffffffffffff8381831617835250505050613547565b505050565b6000808273ffffffffffffffffffffffffffffffffffffffff163b119050919050565b60606137218484600085613904565b90509392505050565b600073ffffffffffffffffffffffffffffffffffffffff168273ffffffffffffffffffffffffffffffffffffffff16141561379a576040517f08c379a000000000000000000000000000000000000000000000000000000000815260040161379190614ed7565b60405180910390fd5b6137a381611dd0565b156137e3576040517f08c379a00000000000000000000000000000000000000000000000000000000081526004016137da90614d17565b60405180910390fd5b6137ef600083836131f9565b6001600360008473ffffffffffffffffffffffffffffffffffffffff1673ffffffffffffffffffffffffffffffffffffffff168152602001908152602001600020600082825461383f9190615259565b92505081905550816002600083815260200190815260200160002060006101000a81548173ffffffffffffffffffffffffffffffffffffffff021916908373ffffffffffffffffffffffffffffffffffffffff160217905550808273ffffffffffffffffffffffffffffffffffffffff16600073ffffffffffffffffffffffffffffffffffffffff167fddf252ad1be2c89b69c2b068fc378daa952ba7f163c4a11628f55a4df523b3ef60405160405180910390a4613900600083836131fe565b5050565b606082471015613949576040517f08c379a000000000000000000000000000000000000000000000000000000000815260040161394090614d77565b60405180910390fd5b613952856136ef565b613991576040517f08c379a000000000000000000000000000000000000000000000000000000000815260040161398890614ff7565b60405180910390fd5b6000808673ffffffffffffffffffffffffffffffffffffffff1685876040516139ba919061497f565b60006040518083038185875af1925050503d80600081146139f7576040519150601f19603f3d011682016040523d82523d6000602084013e6139fc565b606091505b5091509150613a0c828286613a18565b92505050949350505050565b60608315613a2857829050613a78565b600083511115613a3b5782518084602001fd5b816040517f08c379a0000000000000000000000000000000000000000000000000000000008152600401613a6f9190614b26565b60405180910390fd5b9392505050565b828054828255906000526020600020908101928215613abb579160200282015b82811115613aba578251825591602001919060010190613a9f565b5b509050613ac89190613b52565b5090565b828054613ad890615499565b90600052602060002090601f016020900481019282613afa5760008555613b41565b82601f10613b1357805160ff1916838001178555613b41565b82800160010185558215613b41579182015b82811115613b40578251825591602001919060010190613b25565b5b509050613b4e9190613b52565b5090565b5b80821115613b6b576000816000905550600101613b53565b5090565b6000613b82613b7d846150d2565b6150ad565b90508083825260208201905082856020860282011115613ba157600080fd5b60005b85811015613bd15781613bb78882613cc3565b845260208401935060208301925050600181019050613ba4565b5050509392505050565b6000613bee613be9846150fe565b6150ad565b90508083825260208201905082856020860282011115613c0d57600080fd5b60005b85811015613c3d5781613c238882613de9565b845260208401935060208301925050600181019050613c10565b5050509392505050565b6000613c5a613c558461512a565b6150ad565b905082815260208101848484011115613c7257600080fd5b613c7d84828561542d565b509392505050565b6000613c98613c938461515b565b6150ad565b905082815260208101848484011115613cb057600080fd5b613cbb84828561542d565b509392505050565b600081359050613cd28161604d565b92915050565b600082601f830112613ce957600080fd5b8135613cf9848260208601613b6f565b91505092915050565b600082601f830112613d1357600080fd5b8135613d23848260208601613bdb565b91505092915050565b600081359050613d3b81616064565b92915050565b600081519050613d5081616064565b92915050565b600081359050613d658161607b565b92915050565b600081519050613d7a8161607b565b92915050565b600082601f830112613d9157600080fd5b8135613da1848260208601613c47565b91505092915050565b600082601f830112613dbb57600080fd5b8135613dcb848260208601613c85565b91505092915050565b600081359050613de381616092565b92915050565b600081359050613df8816160a9565b92915050565b600081519050613e0d816160a9565b92915050565b600060208284031215613e2557600080fd5b6000613e3384828501613cc3565b91505092915050565b60008060408385031215613e4f57600080fd5b6000613e5d85828601613cc3565b9250506020613e6e85828601613cc3565b9150509250929050565b600080600060608486031215613e8d57600080fd5b6000613e9b86828701613cc3565b9350506020613eac86828701613cc3565b9250506040613ebd86828701613de9565b9150509250925092565b60008060008060808587031215613edd57600080fd5b6000613eeb87828801613cc3565b9450506020613efc87828801613cc3565b9350506040613f0d87828801613de9565b925050606085013567ffffffffffffffff811115613f2a57600080fd5b613f3687828801613d80565b91505092959194509250565b60008060408385031215613f5557600080fd5b6000613f6385828601613cc3565b9250506020613f7485828601613d2c565b9150509250929050565b60008060408385031215613f9157600080fd5b6000613f9f85828601613cc3565b925050602083013567ffffffffffffffff811115613fbc57600080fd5b613fc885828601613daa565b9150509250929050565b60008060408385031215613fe557600080fd5b6000613ff385828601613cc3565b925050602061400485828601613de9565b9150509250929050565b60006020828403121561402057600080fd5b600061402e84828501613d41565b91505092915050565b60006020828403121561404957600080fd5b600061405784828501613d56565b91505092915050565b60006020828403121561407257600080fd5b600061408084828501613d6b565b91505092915050565b60006020828403121561409b57600080fd5b600082013567ffffffffffffffff8111156140b557600080fd5b6140c184828501613daa565b91505092915050565b600080604083850312156140dd57600080fd5b600083013567ffffffffffffffff8111156140f757600080fd5b61410385828601613daa565b925050602061411485828601613cc3565b9150509250929050565b6000806040838503121561413157600080fd5b600083013567ffffffffffffffff81111561414b57600080fd5b61415785828601613daa565b925050602083013567ffffffffffffffff81111561417457600080fd5b61418085828601613cd8565b9150509250929050565b600080600080600060a086880312156141a257600080fd5b600086013567ffffffffffffffff8111156141bc57600080fd5b6141c888828901613daa565b955050602086013567ffffffffffffffff8111156141e557600080fd5b6141f188828901613daa565b945050604061420288828901613dd4565b935050606086013567ffffffffffffffff81111561421f57600080fd5b61422b88828901613d02565b925050608061423c88828901613de9565b9150509295509295909350565b6000806040838503121561425c57600080fd5b600083013567ffffffffffffffff81111561427657600080fd5b61428285828601613daa565b925050602061429385828601613de9565b9150509250929050565b6000602082840312156142af57600080fd5b60006142bd84828501613de9565b91505092915050565b6000602082840312156142d857600080fd5b60006142e684828501613dfe565b91505092915050565b60006142fb8383614961565b60208301905092915050565b61431081615379565b82525050565b60006143218261519c565b61432b81856151ca565b93506143368361518c565b8060005b8381101561436757815161434e88826142ef565b9750614359836151bd565b92505060018101905061433a565b5085935050505092915050565b61437d8161538b565b82525050565b600061438e826151a7565b61439881856151db565b93506143a881856020860161543c565b6143b18161569c565b840191505092915050565b60006143c7826151a7565b6143d181856151ec565b93506143e181856020860161543c565b80840191505092915050565b6143f681615409565b82525050565b6000614407826151b2565b61441181856151f7565b935061442181856020860161543c565b61442a8161569c565b840191505092915050565b6000614440826151b2565b61444a8185615208565b935061445a81856020860161543c565b80840191505092915050565b60006144736032836151f7565b915061447e826156ad565b604082019050919050565b60006144966029836151f7565b91506144a1826156fc565b604082019050919050565b60006144b9601b836151f7565b91506144c48261574b565b602082019050919050565b60006144dc6023836151f7565b91506144e782615774565b604082019050919050565b60006144ff6032836151f7565b915061450a826157c3565b604082019050919050565b6000614522602f836151f7565b915061452d82615812565b604082019050919050565b60006145456026836151f7565b915061455082615861565b604082019050919050565b60006145686025836151f7565b9150614573826158b0565b604082019050919050565b600061458b601c836151f7565b9150614596826158ff565b602082019050919050565b60006145ae600e83615208565b91506145b982615928565b600e82019050919050565b60006145d16024836151f7565b91506145dc82615951565b604082019050919050565b60006145f46019836151f7565b91506145ff826159a0565b602082019050919050565b60006146176026836151f7565b9150614622826159c9565b604082019050919050565b600061463a602c836151f7565b915061464582615a18565b604082019050919050565b600061465d6020836151f7565b915061466882615a67565b602082019050919050565b60006146806028836151f7565b915061468b82615a90565b604082019050919050565b60006146a36038836151f7565b91506146ae82615adf565b604082019050919050565b60006146c66022836151f7565b91506146d182615b2e565b604082019050919050565b60006146e9602a836151f7565b91506146f482615b7d565b604082019050919050565b600061470c6029836151f7565b915061471782615bcc565b604082019050919050565b600061472f602e836151f7565b915061473a82615c1b565b604082019050919050565b60006147526027836151f7565b915061475d82615c6a565b604082019050919050565b60006147756021836151f7565b915061478082615cb9565b604082019050919050565b60006147986020836151f7565b91506147a382615d08565b602082019050919050565b60006147bb6031836151f7565b91506147c682615d31565b604082019050919050565b60006147de602c836151f7565b91506147e982615d80565b604082019050919050565b6000614801601d836151f7565b915061480c82615dcf565b602082019050919050565b60006148246020836151f7565b915061482f82615df8565b602082019050919050565b6000614847602f836151f7565b915061485282615e21565b604082019050919050565b600061486a6015836151f7565b915061487582615e70565b602082019050919050565b600061488d6021836151f7565b915061489882615e99565b604082019050919050565b60006148b06031836151f7565b91506148bb82615ee8565b604082019050919050565b60006148d3601d836151f7565b91506148de82615f37565b602082019050919050565b60006148f66036836151f7565b915061490182615f60565b604082019050919050565b6000614919602a836151f7565b915061492482615faf565b604082019050919050565b600061493c602e836151f7565b915061494782615ffe565b604082019050919050565b61495b816153c3565b82525050565b61496a816153ff565b82525050565b614979816153ff565b82525050565b600061498b82846143bc565b915081905092915050565b60006149a28284614435565b915081905092915050565b60006149b98285614435565b91506149c58284614435565b91508190509392505050565b60006149dd8285614435565b91506149e98284614435565b91506149f4826145a1565b91508190509392505050565b6000602082019050614a156000830184614307565b92915050565b6000604082019050614a306000830185614307565b614a3d6020830184614307565b9392505050565b6000606082019050614a596000830186614307565b614a666020830185614307565b614a736040830184614970565b949350505050565b6000608082019050614a906000830187614307565b614a9d6020830186614307565b614aaa6040830185614970565b8181036060830152614abc8184614383565b905095945050505050565b6000604082019050614adc6000830185614307565b614ae96020830184614970565b9392505050565b6000602082019050614b056000830184614374565b92915050565b6000602082019050614b2060008301846143ed565b92915050565b60006020820190508181036000830152614b4081846143fc565b905092915050565b60006040820190508181036000830152614b6281856143fc565b90508181036020830152614b768184614316565b90509392505050565b60006080820190508181036000830152614b9981876143fc565b9050614ba86020830186614952565b614bb56040830185614374565b614bc26060830184614970565b95945050505050565b60006080820190508181036000830152614be581876143fc565b9050614bf46020830186614952565b614c016040830185614970565b614c0e6060830184614374565b95945050505050565b60006020820190508181036000830152614c3081614466565b9050919050565b60006020820190508181036000830152614c5081614489565b9050919050565b60006020820190508181036000830152614c70816144ac565b9050919050565b60006020820190508181036000830152614c90816144cf565b9050919050565b60006020820190508181036000830152614cb0816144f2565b9050919050565b60006020820190508181036000830152614cd081614515565b9050919050565b60006020820190508181036000830152614cf081614538565b9050919050565b60006020820190508181036000830152614d108161455b565b9050919050565b60006020820190508181036000830152614d308161457e565b9050919050565b60006020820190508181036000830152614d50816145c4565b9050919050565b60006020820190508181036000830152614d70816145e7565b9050919050565b60006020820190508181036000830152614d908161460a565b9050919050565b60006020820190508181036000830152614db08161462d565b9050919050565b60006020820190508181036000830152614dd081614650565b9050919050565b60006020820190508181036000830152614df081614673565b9050919050565b60006020820190508181036000830152614e1081614696565b9050919050565b60006020820190508181036000830152614e30816146b9565b9050919050565b60006020820190508181036000830152614e50816146dc565b9050919050565b60006020820190508181036000830152614e70816146ff565b9050919050565b60006020820190508181036000830152614e9081614722565b9050919050565b60006020820190508181036000830152614eb081614745565b9050919050565b60006020820190508181036000830152614ed081614768565b9050919050565b60006020820190508181036000830152614ef08161478b565b9050919050565b60006020820190508181036000830152614f10816147ae565b9050919050565b60006020820190508181036000830152614f30816147d1565b9050919050565b60006020820190508181036000830152614f50816147f4565b9050919050565b60006020820190508181036000830152614f7081614817565b9050919050565b60006020820190508181036000830152614f908161483a565b9050919050565b60006020820190508181036000830152614fb08161485d565b9050919050565b60006020820190508181036000830152614fd081614880565b9050919050565b60006020820190508181036000830152614ff0816148a3565b9050919050565b60006020820190508181036000830152615010816148c6565b9050919050565b60006020820190508181036000830152615030816148e9565b9050919050565b600060208201905081810360008301526150508161490c565b9050919050565b600060208201905081810360008301526150708161492f565b9050919050565b600060208201905061508c6000830184614952565b92915050565b60006020820190506150a76000830184614970565b92915050565b60006150b76150c8565b90506150c382826154cb565b919050565b6000604051905090565b600067ffffffffffffffff8211156150ed576150ec61566d565b5b602082029050602081019050919050565b600067ffffffffffffffff8211156151195761511861566d565b5b602082029050602081019050919050565b600067ffffffffffffffff8211156151455761514461566d565b5b61514e8261569c565b9050602081019050919050565b600067ffffffffffffffff8211156151765761517561566d565b5b61517f8261569c565b9050602081019050919050565b6000819050602082019050919050565b600081519050919050565b600081519050919050565b600081519050919050565b6000602082019050919050565b600082825260208201905092915050565b600082825260208201905092915050565b600081905092915050565b600082825260208201905092915050565b600081905092915050565b600061521e826153c3565b9150615229836153c3565b9250826fffffffffffffffffffffffffffffffff0382111561524e5761524d6155e0565b5b828201905092915050565b6000615264826153ff565b915061526f836153ff565b9250827fffffffffffffffffffffffffffffffffffffffffffffffffffffffffffffffff038211156152a4576152a36155e0565b5b828201905092915050565b60006152ba826153c3565b91506152c5836153c3565b9250826152d5576152d461560f565b5b828204905092915050565b60006152eb826153ff565b91506152f6836153ff565b9250826153065761530561560f565b5b828204905092915050565b600061531c826153c3565b9150615327836153c3565b92508282101561533a576153396155e0565b5b828203905092915050565b6000615350826153ff565b915061535b836153ff565b92508282101561536e5761536d6155e0565b5b828203905092915050565b6000615384826153df565b9050919050565b60008115159050919050565b60007fffffffff0000000000000000000000000000000000000000000000000000000082169050919050565b60006fffffffffffffffffffffffffffffffff82169050919050565b600073ffffffffffffffffffffffffffffffffffffffff82169050919050565b6000819050919050565b60006154148261541b565b9050919050565b6000615426826153df565b9050919050565b82818337600083830152505050565b60005b8381101561545a57808201518184015260208101905061543f565b83811115615469576000848401525b50505050565b600061547a826153c3565b9150600082141561548e5761548d6155e0565b5b600182039050919050565b600060028204905060018216806154b157607f821691505b602082108114156154c5576154c461563e565b5b50919050565b6154d48261569c565b810181811067ffffffffffffffff821117156154f3576154f261566d565b5b80604052505050565b6000615507826153c3565b91506fffffffffffffffffffffffffffffffff82141561552a576155296155e0565b5b600182019050919050565b6000615540826153ff565b91507fffffffffffffffffffffffffffffffffffffffffffffffffffffffffffffffff821415615573576155726155e0565b5b600182019050919050565b6000615589826153c3565b9150615594836153c3565b9250826155a4576155a361560f565b5b828206905092915050565b60006155ba826153ff565b91506155c5836153ff565b9250826155d5576155d461560f565b5b828206905092915050565b7f4e487b7100000000000000000000000000000000000000000000000000000000600052601160045260246000fd5b7f4e487b7100000000000000000000000000000000000000000000000000000000600052601260045260246000fd5b7f4e487b7100000000000000000000000000000000000000000000000000000000600052602260045260246000fd5b7f4e487b7100000000000000000000000000000000000000000000000000000000600052604160045260246000fd5b6000601f19601f8301169050919050565b7f426f756e74794d616b65723a204c696d6974206d757374206265206d6f72652060008201527f7468616e206e6f206f6620726577617264730000000000000000000000000000602082015250565b7f426f756e74794d616b65723a204c696d6974206d75737420626520677265617460008201527f6572207468616e20300000000000000000000000000000000000000000000000602082015250565b7f496e76616c69642056616c756520666f722074696d657374616d700000000000600082015250565b7f5061796d656e743a206163636f756e74206973206e6f7420647565207061796d60008201527f656e740000000000000000000000000000000000000000000000000000000000602082015250565b7f4552433732313a207472616e7366657220746f206e6f6e20455243373231526560008201527f63656976657220696d706c656d656e7465720000000000000000000000000000602082015250565b7f426f756e74794d616b65723a2061646472657373206973206e6f7420656c696760008201527f69626c6520666f72207265776172640000000000000000000000000000000000602082015250565b7f4f776e61626c653a206e6577206f776e657220697320746865207a65726f206160008201527f6464726573730000000000000000000000000000000000000000000000000000602082015250565b7f4552433732313a207472616e736665722066726f6d20696e636f72726563742060008201527f6f776e6572000000000000000000000000000000000000000000000000000000602082015250565b7f4552433732313a20746f6b656e20616c7265616479206d696e74656400000000600082015250565b7f2f6d657461646174612e6a736f6e000000000000000000000000000000000000600082015250565b7f4552433732313a207472616e7366657220746f20746865207a65726f2061646460008201527f7265737300000000000000000000000000000000000000000000000000000000602082015250565b7f4552433732313a20617070726f766520746f2063616c6c657200000000000000600082015250565b7f416464726573733a20696e73756666696369656e742062616c616e636520666f60008201527f722063616c6c0000000000000000000000000000000000000000000000000000602082015250565b7f4552433732313a206f70657261746f7220717565727920666f72206e6f6e657860008201527f697374656e7420746f6b656e0000000000000000000000000000000000000000602082015250565b7f426f756e74794d616b65723a206164647265737320686173206e6f7420776f6e600082015250565b7f5061796d656e743a20496e73756666696369656e742062616c616e6365206f6660008201527f2063726561746f72000000000000000000000000000000000000000000000000602082015250565b7f4552433732313a20617070726f76652063616c6c6572206973206e6f74206f7760008201527f6e6572206e6f7220617070726f76656420666f7220616c6c0000000000000000602082015250565b7f426f756e74794d616b65723a20426f756e747920616c7265616479206578697360008201527f7473000000000000000000000000000000000000000000000000000000000000602082015250565b7f4552433732313a2062616c616e636520717565727920666f7220746865207a6560008201527f726f206164647265737300000000000000000000000000000000000000000000602082015250565b7f4552433732313a206f776e657220717565727920666f72206e6f6e657869737460008201527f656e7420746f6b656e0000000000000000000000000000000000000000000000602082015250565b7f45524337323155524953746f726167653a2055524920736574206f66206e6f6e60008201527f6578697374656e7420746f6b656e000000000000000000000000000000000000602082015250565b7f426f756e74794d616b65723a20626f756e7479206973206e6f742066696e697360008201527f6865642079657400000000000000000000000000000000000000000000000000602082015250565b7f426f756e74794d616b65723a20426f756e7479206973206e6f7420616374697660008201527f6500000000000000000000000000000000000000000000000000000000000000602082015250565b7f4552433732313a206d696e7420746f20746865207a65726f2061646472657373600082015250565b7f45524337323155524953746f726167653a2055524920717565727920666f722060008201527f6e6f6e6578697374656e7420746f6b656e000000000000000000000000000000602082015250565b7f4552433732313a20617070726f76656420717565727920666f72206e6f6e657860008201527f697374656e7420746f6b656e0000000000000000000000000000000000000000602082015250565b7f5061796d656e743a20496e73756666696369656e742062616c616e6365000000600082015250565b7f4f776e61626c653a2063616c6c6572206973206e6f7420746865206f776e6572600082015250565b7f4552433732314d657461646174613a2055524920717565727920666f72206e6f60008201527f6e6578697374656e7420746f6b656e0000000000000000000000000000000000602082015250565b7f5061796d656e743a204e6f7420617070726f7665640000000000000000000000600082015250565b7f4552433732313a20617070726f76616c20746f2063757272656e74206f776e6560008201527f7200000000000000000000000000000000000000000000000000000000000000602082015250565b7f4552433732313a207472616e736665722063616c6c6572206973206e6f74206f60008201527f776e6572206e6f7220617070726f766564000000000000000000000000000000602082015250565b7f416464726573733a2063616c6c20746f206e6f6e2d636f6e7472616374000000600082015250565b7f426f756e74794d616b65723a204e6f206f662077696e6e657273206d7573742060008201527f626520657175616c20746f20746f6b656e4c696d747300000000000000000000602082015250565b7f5361666545524332303a204552433230206f7065726174696f6e20646964206e60008201527f6f74207375636365656400000000000000000000000000000000000000000000602082015250565b7f426f756e74794d616b65723a20616464726573732068617320616c726561647960008201527f20636c61696d656420746f6b656e000000000000000000000000000000000000602082015250565b61605681615379565b811461606157600080fd5b50565b61606d8161538b565b811461607857600080fd5b50565b61608481615397565b811461608f57600080fd5b50565b61609b816153c3565b81146160a657600080fd5b50565b6160b2816153ff565b81146160bd57600080fd5b5056fea26469706673582212207196d23d72203b7f86a26aa71e992e4ebf6e23b03b7d32e51d7a18b15ae1336f64736f6c63430008040033",
  "linkReferences": {},
  "deployedLinkReferences": {}
}