{
  "_format": "hh-sol-artifact-1",
  "contractName": "BountyMaker",
  "sourceName": "contracts/BountyMaker.sol",
  "abi": [
    {
      "inputs": [
        {
          "internalType": "contract IERC20",
          "name": "_token",
          "type": "address"
        }
      ],
      "stateMutability": "nonpayable",
      "type": "constructor"
    },
    {
      "anonymous": false,
      "inputs": [
        {
          "indexed": true,
          "internalType": "address",
          "name": "owner",
          "type": "address"
        },
        {
          "indexed": true,
          "internalType": "address",
          "name": "approved",
          "type": "address"
        },
        {
          "indexed": true,
          "internalType": "uint256",
          "name": "tokenId",
          "type": "uint256"
        }
      ],
      "name": "Approval",
      "type": "event"
    },
    {
      "anonymous": false,
      "inputs": [
        {
          "indexed": true,
          "internalType": "address",
          "name": "owner",
          "type": "address"
        },
        {
          "indexed": true,
          "internalType": "address",
          "name": "operator",
          "type": "address"
        },
        {
          "indexed": false,
          "internalType": "bool",
          "name": "approved",
          "type": "bool"
        }
      ],
      "name": "ApprovalForAll",
      "type": "event"
    },
    {
      "anonymous": false,
      "inputs": [
        {
          "indexed": false,
          "internalType": "string",
          "name": "_bountyId",
          "type": "string"
        },
        {
          "indexed": false,
          "internalType": "uint256[]",
          "name": "_rewards",
          "type": "uint256[]"
        }
      ],
      "name": "BountyCreated",
      "type": "event"
    },
    {
      "anonymous": false,
      "inputs": [
        {
          "indexed": true,
          "internalType": "address",
          "name": "_receiver",
          "type": "address"
        },
        {
          "indexed": false,
          "internalType": "string",
          "name": "_bountyId",
          "type": "string"
        },
        {
          "indexed": false,
          "internalType": "uint128",
          "name": "_bountyIndex",
          "type": "uint128"
        },
        {
          "indexed": false,
          "internalType": "uint256",
          "name": "_contractIndex",
          "type": "uint256"
        },
        {
          "indexed": false,
          "internalType": "bool",
          "name": "_isAdmin",
          "type": "bool"
        }
      ],
      "name": "Claim",
      "type": "event"
    },
    {
      "anonymous": false,
      "inputs": [
        {
          "indexed": true,
          "internalType": "contract IERC20",
          "name": "token",
          "type": "address"
        },
        {
          "indexed": false,
          "internalType": "address",
          "name": "to",
          "type": "address"
        },
        {
          "indexed": false,
          "internalType": "uint256",
          "name": "amount",
          "type": "uint256"
        }
      ],
      "name": "ERC20PaymentReleased",
      "type": "event"
    },
    {
      "anonymous": false,
      "inputs": [
        {
          "indexed": true,
          "internalType": "address",
          "name": "previousOwner",
          "type": "address"
        },
        {
          "indexed": true,
          "internalType": "address",
          "name": "newOwner",
          "type": "address"
        }
      ],
      "name": "OwnershipTransferred",
      "type": "event"
    },
    {
      "anonymous": false,
      "inputs": [
        {
          "indexed": true,
          "internalType": "address",
          "name": "from",
          "type": "address"
        },
        {
          "indexed": true,
          "internalType": "address",
          "name": "to",
          "type": "address"
        },
        {
          "indexed": true,
          "internalType": "uint256",
          "name": "tokenId",
          "type": "uint256"
        }
      ],
      "name": "Transfer",
      "type": "event"
    },
    {
      "anonymous": false,
      "inputs": [
        {
          "indexed": false,
          "internalType": "string",
          "name": "_bountyId",
          "type": "string"
        }
      ],
      "name": "WinnersDeclared",
      "type": "event"
    },
    {
      "inputs": [
        {
          "internalType": "string",
          "name": "_bountyId",
          "type": "string"
        },
        {
          "internalType": "address",
          "name": "to",
          "type": "address"
        }
      ],
      "name": "adminClaimToken",
      "outputs": [
        {
          "internalType": "uint256",
          "name": "",
          "type": "uint256"
        }
      ],
      "stateMutability": "nonpayable",
      "type": "function"
    },
    {
      "inputs": [
        {
          "internalType": "address",
          "name": "to",
          "type": "address"
        },
        {
          "internalType": "uint256",
          "name": "tokenId",
          "type": "uint256"
        }
      ],
      "name": "approve",
      "outputs": [],
      "stateMutability": "nonpayable",
      "type": "function"
    },
    {
      "inputs": [
        {
          "internalType": "address",
          "name": "owner",
          "type": "address"
        }
      ],
      "name": "balanceOf",
      "outputs": [
        {
          "internalType": "uint256",
          "name": "",
          "type": "uint256"
        }
      ],
      "stateMutability": "view",
      "type": "function"
    },
    {
      "inputs": [
        {
          "internalType": "string",
          "name": "",
          "type": "string"
        }
      ],
      "name": "bountys",
      "outputs": [
        {
          "internalType": "string",
          "name": "uri",
          "type": "string"
        },
        {
          "internalType": "uint128",
          "name": "tokenLimit",
          "type": "uint128"
        },
        {
          "internalType": "bool",
          "name": "active",
          "type": "bool"
        },
        {
          "internalType": "uint256",
          "name": "endTime",
          "type": "uint256"
        }
      ],
      "stateMutability": "view",
      "type": "function"
    },
    {
      "inputs": [
        {
          "internalType": "string",
          "name": "_bountyId",
          "type": "string"
        }
      ],
      "name": "claimToken",
      "outputs": [
        {
          "internalType": "uint256",
          "name": "",
          "type": "uint256"
        }
      ],
      "stateMutability": "nonpayable",
      "type": "function"
    },
    {
      "inputs": [
        {
          "internalType": "address",
          "name": "",
          "type": "address"
        },
        {
          "internalType": "string",
          "name": "",
          "type": "string"
        }
      ],
      "name": "claimed",
      "outputs": [
        {
          "internalType": "uint256",
          "name": "",
          "type": "uint256"
        }
      ],
      "stateMutability": "view",
      "type": "function"
    },
    {
      "inputs": [
        {
          "internalType": "string",
          "name": "_bountyId",
          "type": "string"
        },
        {
          "internalType": "string",
          "name": "uri",
          "type": "string"
        },
        {
          "internalType": "uint128",
          "name": "_tokenLimit",
          "type": "uint128"
        },
        {
          "internalType": "uint256[]",
          "name": "_rewards",
          "type": "uint256[]"
        },
        {
          "internalType": "uint256",
          "name": "_endTime",
          "type": "uint256"
        }
      ],
      "name": "createBounty",
      "outputs": [],
      "stateMutability": "nonpayable",
      "type": "function"
    },
    {
      "inputs": [
        {
          "internalType": "uint256",
          "name": "tokenId",
          "type": "uint256"
        }
      ],
      "name": "getApproved",
      "outputs": [
        {
          "internalType": "address",
          "name": "",
          "type": "address"
        }
      ],
      "stateMutability": "view",
      "type": "function"
    },
    {
      "inputs": [
        {
          "internalType": "address",
          "name": "owner",
          "type": "address"
        },
        {
          "internalType": "address",
          "name": "operator",
          "type": "address"
        }
      ],
      "name": "isApprovedForAll",
      "outputs": [
        {
          "internalType": "bool",
          "name": "",
          "type": "bool"
        }
      ],
      "stateMutability": "view",
      "type": "function"
    },
    {
      "inputs": [],
      "name": "name",
      "outputs": [
        {
          "internalType": "string",
          "name": "",
          "type": "string"
        }
      ],
      "stateMutability": "view",
      "type": "function"
    },
    {
      "inputs": [],
      "name": "owner",
      "outputs": [
        {
          "internalType": "address",
          "name": "",
          "type": "address"
        }
      ],
      "stateMutability": "view",
      "type": "function"
    },
    {
      "inputs": [
        {
          "internalType": "uint256",
          "name": "tokenId",
          "type": "uint256"
        }
      ],
      "name": "ownerOf",
      "outputs": [
        {
          "internalType": "address",
          "name": "",
          "type": "address"
        }
      ],
      "stateMutability": "view",
      "type": "function"
    },
    {
      "inputs": [],
      "name": "renounceOwnership",
      "outputs": [],
      "stateMutability": "nonpayable",
      "type": "function"
    },
    {
      "inputs": [
        {
          "internalType": "string",
          "name": "",
          "type": "string"
        },
        {
          "internalType": "uint256",
          "name": "",
          "type": "uint256"
        }
      ],
      "name": "rewards",
      "outputs": [
        {
          "internalType": "uint256",
          "name": "",
          "type": "uint256"
        }
      ],
      "stateMutability": "view",
      "type": "function"
    },
    {
      "inputs": [
        {
          "internalType": "address",
          "name": "from",
          "type": "address"
        },
        {
          "internalType": "address",
          "name": "to",
          "type": "address"
        },
        {
          "internalType": "uint256",
          "name": "tokenId",
          "type": "uint256"
        }
      ],
      "name": "safeTransferFrom",
      "outputs": [],
      "stateMutability": "nonpayable",
      "type": "function"
    },
    {
      "inputs": [
        {
          "internalType": "address",
          "name": "from",
          "type": "address"
        },
        {
          "internalType": "address",
          "name": "to",
          "type": "address"
        },
        {
          "internalType": "uint256",
          "name": "tokenId",
          "type": "uint256"
        },
        {
          "internalType": "bytes",
          "name": "_data",
          "type": "bytes"
        }
      ],
      "name": "safeTransferFrom",
      "outputs": [],
      "stateMutability": "nonpayable",
      "type": "function"
    },
    {
      "inputs": [
        {
          "internalType": "address",
          "name": "operator",
          "type": "address"
        },
        {
          "internalType": "bool",
          "name": "approved",
          "type": "bool"
        }
      ],
      "name": "setApprovalForAll",
      "outputs": [],
      "stateMutability": "nonpayable",
      "type": "function"
    },
    {
      "inputs": [
        {
          "internalType": "string",
          "name": "_bountyId",
          "type": "string"
        },
        {
          "internalType": "address[]",
          "name": "_winners",
          "type": "address[]"
        }
      ],
      "name": "setBountyWinners",
      "outputs": [],
      "stateMutability": "nonpayable",
      "type": "function"
    },
    {
      "inputs": [
        {
          "internalType": "bytes4",
          "name": "interfaceId",
          "type": "bytes4"
        }
      ],
      "name": "supportsInterface",
      "outputs": [
        {
          "internalType": "bool",
          "name": "",
          "type": "bool"
        }
      ],
      "stateMutability": "view",
      "type": "function"
    },
    {
      "inputs": [],
      "name": "symbol",
      "outputs": [
        {
          "internalType": "string",
          "name": "",
          "type": "string"
        }
      ],
      "stateMutability": "view",
      "type": "function"
    },
    {
      "inputs": [],
      "name": "token",
      "outputs": [
        {
          "internalType": "contract IERC20",
          "name": "",
          "type": "address"
        }
      ],
      "stateMutability": "view",
      "type": "function"
    },
    {
      "inputs": [
        {
          "internalType": "uint256",
          "name": "tokenId",
          "type": "uint256"
        }
      ],
      "name": "tokenURI",
      "outputs": [
        {
          "internalType": "string",
          "name": "",
          "type": "string"
        }
      ],
      "stateMutability": "view",
      "type": "function"
    },
    {
      "inputs": [
        {
          "internalType": "address",
          "name": "from",
          "type": "address"
        },
        {
          "internalType": "address",
          "name": "to",
          "type": "address"
        },
        {
          "internalType": "uint256",
          "name": "tokenId",
          "type": "uint256"
        }
      ],
      "name": "transferFrom",
      "outputs": [],
      "stateMutability": "nonpayable",
      "type": "function"
    },
    {
      "inputs": [
        {
          "internalType": "address",
          "name": "newOwner",
          "type": "address"
        }
      ],
      "name": "transferOwnership",
      "outputs": [],
      "stateMutability": "nonpayable",
      "type": "function"
    },
    {
      "inputs": [
        {
          "internalType": "address",
          "name": "_admin",
          "type": "address"
        },
        {
          "internalType": "bool",
          "name": "isAdmin",
          "type": "bool"
        }
      ],
      "name": "updateAdmin",
      "outputs": [],
      "stateMutability": "nonpayable",
      "type": "function"
    },
    {
      "inputs": [
        {
          "internalType": "address",
          "name": "",
          "type": "address"
        },
        {
          "internalType": "string",
          "name": "",
          "type": "string"
        }
      ],
      "name": "winners",
      "outputs": [
        {
          "internalType": "uint128",
          "name": "",
          "type": "uint128"
        }
      ],
      "stateMutability": "view",
      "type": "function"
    },
    {
      "stateMutability": "payable",
      "type": "receive"
    }
  ],
  "bytecode": "0x60806040523480156200001157600080fd5b506040516200642b3803806200642b833981810160405281019062000037919062000359565b6040518060400160405280600b81526020017f626f756e74794d616b65720000000000000000000000000000000000000000008152506040518060400160405280600b81526020017f424f554e54594d414b45520000000000000000000000000000000000000000008152508160009080519060200190620000bb92919062000292565b508060019080519060200190620000d492919062000292565b505050620000f7620000eb620001ae60201b60201c565b620001b660201b60201c565b6001600a60003373ffffffffffffffffffffffffffffffffffffffff1673ffffffffffffffffffffffffffffffffffffffff16815260200190815260200160002060006101000a81548160ff02191690831515021790555080600d60006101000a81548173ffffffffffffffffffffffffffffffffffffffff021916908373ffffffffffffffffffffffffffffffffffffffff160217905550620001a7600e6200027c60201b62001c291760201c565b506200044c565b600033905090565b6000600760009054906101000a900473ffffffffffffffffffffffffffffffffffffffff16905081600760006101000a81548173ffffffffffffffffffffffffffffffffffffffff021916908373ffffffffffffffffffffffffffffffffffffffff1602179055508173ffffffffffffffffffffffffffffffffffffffff168173ffffffffffffffffffffffffffffffffffffffff167f8be0079c531659141344cd1fd0a4f28419497f9722a3daafe3b4186f6b6457e060405160405180910390a35050565b6001816000016000828254019250508190555050565b828054620002a090620003cd565b90600052602060002090601f016020900481019282620002c4576000855562000310565b82601f10620002df57805160ff191683800117855562000310565b8280016001018555821562000310579182015b828111156200030f578251825591602001919060010190620002f2565b5b5090506200031f919062000323565b5090565b5b808211156200033e57600081600090555060010162000324565b5090565b600081519050620003538162000432565b92915050565b6000602082840312156200036c57600080fd5b60006200037c8482850162000342565b91505092915050565b60006200039282620003ad565b9050919050565b6000620003a68262000385565b9050919050565b600073ffffffffffffffffffffffffffffffffffffffff82169050919050565b60006002820490506001821680620003e657607f821691505b60208210811415620003fd57620003fc62000403565b5b50919050565b7f4e487b7100000000000000000000000000000000000000000000000000000000600052602260045260246000fd5b6200043d8162000399565b81146200044957600080fd5b50565b615fcf806200045c6000396000f3fe6080604052600436106101855760003560e01c806375621cdd116100d1578063c87b56dd1161008a578063e985e9c511610064578063e985e9c5146105ea578063ebeccacc14610627578063f2fde38b14610650578063fc0c546a146106795761018c565b8063c87b56dd14610533578063d44b87d114610570578063dbc19102146105ad5761018c565b806375621cdd1461040e5780638da5cb5b1461044e57806395d89b4114610479578063a22cb465146104a4578063b7ce9bc0146104cd578063b88d4fde1461050a5761018c565b806323b872dd1161013e5780636352211e116101185780636352211e14610354578063670a6fd91461039157806370a08231146103ba578063715018a6146103f75761018c565b806323b872dd146102c557806342842e0e146102ee5780635bc0ceb1146103175761018c565b806301ffc9a714610191578063034a7c50146101ce57806306fdde03146101f7578063081812fc14610222578063095ea7b31461025f578063163cf2e3146102885761018c565b3661018c57005b600080fd5b34801561019d57600080fd5b506101b860048036038101906101b39190613f10565b6106a4565b6040516101c591906149c9565b60405180910390f35b3480156101da57600080fd5b506101f560048036038101906101f09190613ff7565b610786565b005b34801561020357600080fd5b5061020c610a7a565b60405161021991906149ff565b60405180910390f35b34801561022e57600080fd5b5061024960048036038101906102449190614176565b610b0c565b60405161025691906148d9565b60405180910390f35b34801561026b57600080fd5b5061028660048036038101906102819190613eab565b610b91565b005b34801561029457600080fd5b506102af60048036038101906102aa9190613fa3565b610ca9565b6040516102bc9190614f6b565b60405180910390f35b3480156102d157600080fd5b506102ec60048036038101906102e79190613d51565b610d1c565b005b3480156102fa57600080fd5b5061031560048036038101906103109190613d51565b610d7c565b005b34801561032357600080fd5b5061033e60048036038101906103399190614122565b610d9c565b60405161034b9190614f6b565b60405180910390f35b34801561036057600080fd5b5061037b60048036038101906103769190614176565b610de3565b60405161038891906148d9565b60405180910390f35b34801561039d57600080fd5b506103b860048036038101906103b39190613e1b565b610e95565b005b3480156103c657600080fd5b506103e160048036038101906103dc9190613cec565b610f6c565b6040516103ee9190614f6b565b60405180910390f35b34801561040357600080fd5b5061040c611024565b005b34801561041a57600080fd5b5061043560048036038101906104309190613f62565b6110ac565b6040516104459493929190614a58565b60405180910390f35b34801561045a57600080fd5b506104636111a3565b60405161047091906148d9565b60405180910390f35b34801561048557600080fd5b5061048e6111cd565b60405161049b91906149ff565b60405180910390f35b3480156104b057600080fd5b506104cb60048036038101906104c69190613e1b565b61125f565b005b3480156104d957600080fd5b506104f460048036038101906104ef9190613f62565b611275565b6040516105019190614f6b565b60405180910390f35b34801561051657600080fd5b50610531600480360381019061052c9190613da0565b61128a565b005b34801561053f57600080fd5b5061055a60048036038101906105559190614176565b6112ec565b60405161056791906149ff565b60405180910390f35b34801561057c57600080fd5b5061059760048036038101906105929190613e57565b61143e565b6040516105a49190614f50565b60405180910390f35b3480156105b957600080fd5b506105d460048036038101906105cf9190613e57565b611492565b6040516105e19190614f6b565b60405180910390f35b3480156105f657600080fd5b50610611600480360381019061060c9190613d15565b6114cd565b60405161061e91906149c9565b60405180910390f35b34801561063357600080fd5b5061064e60048036038101906106499190614063565b611561565b005b34801561065c57600080fd5b5061067760048036038101906106729190613cec565b611b0b565b005b34801561068557600080fd5b5061068e611c03565b60405161069b91906149e4565b60405180910390f35b60007f80ac58cd000000000000000000000000000000000000000000000000000000007bffffffffffffffffffffffffffffffffffffffffffffffffffffffff1916827bffffffffffffffffffffffffffffffffffffffffffffffffffffffff1916148061076f57507f5b5e139f000000000000000000000000000000000000000000000000000000007bffffffffffffffffffffffffffffffffffffffffffffffffffffffff1916827bffffffffffffffffffffffffffffffffffffffffffffffffffffffff1916145b8061077f575061077e82611c3f565b5b9050919050565b60011515600a60003373ffffffffffffffffffffffffffffffffffffffff1673ffffffffffffffffffffffffffffffffffffffff16815260200190815260200160002060009054906101000a900460ff161515146107e357600080fd5b600b826040516107f3919061486f565b908152602001604051809103902060010160109054906101000a900460ff16610851576040517f08c379a000000000000000000000000000000000000000000000000000000000815260040161084890614d90565b60405180910390fd5b8051600b83604051610863919061486f565b908152602001604051809103902060010160009054906101000a90046fffffffffffffffffffffffffffffffff166fffffffffffffffffffffffffffffffff16146108e3576040517f08c379a00000000000000000000000000000000000000000000000000000000081526004016108da90614ef0565b60405180910390fd5b60005b8151816fffffffffffffffffffffffffffffffff161015610a045760018161090e91906150ec565b6009600084846fffffffffffffffffffffffffffffffff168151811061095d577f4e487b7100000000000000000000000000000000000000000000000000000000600052603260045260246000fd5b602002602001015173ffffffffffffffffffffffffffffffffffffffff1673ffffffffffffffffffffffffffffffffffffffff168152602001908152602001600020846040516109ad919061486f565b908152602001604051809103902060006101000a8154816fffffffffffffffffffffffffffffffff02191690836fffffffffffffffffffffffffffffffff16021790555080806109fc906153d5565b9150506108e6565b506000600b83604051610a17919061486f565b908152602001604051809103902060010160106101000a81548160ff0219169083151502179055507fddc8f81580442cf3c79ef7ad3ad4c7a7afcd120b34730556fa217aca493cbde782604051610a6e91906149ff565b60405180910390a15050565b606060008054610a8990615372565b80601f0160208091040260200160405190810160405280929190818152602001828054610ab590615372565b8015610b025780601f10610ad757610100808354040283529160200191610b02565b820191906000526020600020905b815481529060010190602001808311610ae557829003601f168201915b5050505050905090565b6000610b1782611ca9565b610b56576040517f08c379a0000000000000000000000000000000000000000000000000000000008152600401610b4d90614df0565b60405180910390fd5b6004600083815260200190815260200160002060009054906101000a900473ffffffffffffffffffffffffffffffffffffffff169050919050565b6000610b9c82610de3565b90508073ffffffffffffffffffffffffffffffffffffffff168373ffffffffffffffffffffffffffffffffffffffff161415610c0d576040517f08c379a0000000000000000000000000000000000000000000000000000000008152600401610c0490614e90565b60405180910390fd5b8073ffffffffffffffffffffffffffffffffffffffff16610c2c611d15565b73ffffffffffffffffffffffffffffffffffffffff161480610c5b5750610c5a81610c55611d15565b6114cd565b5b610c9a576040517f08c379a0000000000000000000000000000000000000000000000000000000008152600401610c9190614cd0565b60405180910390fd5b610ca48383611d1d565b505050565b600060011515600a60003373ffffffffffffffffffffffffffffffffffffffff1673ffffffffffffffffffffffffffffffffffffffff16815260200190815260200160002060009054906101000a900460ff16151514610d0857600080fd5b610d1483836001611dd6565b905092915050565b610d2d610d27611d15565b826122b7565b610d6c576040517f08c379a0000000000000000000000000000000000000000000000000000000008152600401610d6390614eb0565b60405180910390fd5b610d77838383612395565b505050565b610d978383836040518060200160405280600081525061128a565b505050565b600c828051602081018201805184825260208301602085012081835280955050505050508181548110610dce57600080fd5b90600052602060002001600091509150505481565b6000806002600084815260200190815260200160002060009054906101000a900473ffffffffffffffffffffffffffffffffffffffff169050600073ffffffffffffffffffffffffffffffffffffffff168173ffffffffffffffffffffffffffffffffffffffff161415610e8c576040517f08c379a0000000000000000000000000000000000000000000000000000000008152600401610e8390614d30565b60405180910390fd5b80915050919050565b610e9d611d15565b73ffffffffffffffffffffffffffffffffffffffff16610ebb6111a3565b73ffffffffffffffffffffffffffffffffffffffff1614610f11576040517f08c379a0000000000000000000000000000000000000000000000000000000008152600401610f0890614e30565b60405180910390fd5b80600a60008473ffffffffffffffffffffffffffffffffffffffff1673ffffffffffffffffffffffffffffffffffffffff16815260200190815260200160002060006101000a81548160ff0219169083151502179055505050565b60008073ffffffffffffffffffffffffffffffffffffffff168273ffffffffffffffffffffffffffffffffffffffff161415610fdd576040517f08c379a0000000000000000000000000000000000000000000000000000000008152600401610fd490614d10565b60405180910390fd5b600360008373ffffffffffffffffffffffffffffffffffffffff1673ffffffffffffffffffffffffffffffffffffffff168152602001908152602001600020549050919050565b61102c611d15565b73ffffffffffffffffffffffffffffffffffffffff1661104a6111a3565b73ffffffffffffffffffffffffffffffffffffffff16146110a0576040517f08c379a000000000000000000000000000000000000000000000000000000000815260040161109790614e30565b60405180910390fd5b6110aa60006125fc565b565b600b818051602081018201805184825260208301602085012081835280955050505050506000915090508060000180546110e590615372565b80601f016020809104026020016040519081016040528092919081815260200182805461111190615372565b801561115e5780601f106111335761010080835404028352916020019161115e565b820191906000526020600020905b81548152906001019060200180831161114157829003601f168201915b5050505050908060010160009054906101000a90046fffffffffffffffffffffffffffffffff16908060010160109054906101000a900460ff16908060020154905084565b6000600760009054906101000a900473ffffffffffffffffffffffffffffffffffffffff16905090565b6060600180546111dc90615372565b80601f016020809104026020016040519081016040528092919081815260200182805461120890615372565b80156112555780601f1061122a57610100808354040283529160200191611255565b820191906000526020600020905b81548152906001019060200180831161123857829003601f168201915b5050505050905090565b61127161126a611d15565b83836126c2565b5050565b600061128382336000611dd6565b9050919050565b61129b611295611d15565b836122b7565b6112da576040517f08c379a00000000000000000000000000000000000000000000000000000000081526004016112d190614eb0565b60405180910390fd5b6112e68484848461282f565b50505050565b60606112f782611ca9565b611336576040517f08c379a000000000000000000000000000000000000000000000000000000000815260040161132d90614dd0565b60405180910390fd5b600060066000848152602001908152602001600020805461135690615372565b80601f016020809104026020016040519081016040528092919081815260200182805461138290615372565b80156113cf5780601f106113a4576101008083540402835291602001916113cf565b820191906000526020600020905b8154815290600101906020018083116113b257829003601f168201915b5050505050905060006113e061288b565b90506000815114156113f6578192505050611439565b60008251111561142b578082604051602001611413929190614886565b60405160208183030381529060405292505050611439565b611434846128a2565b925050505b919050565b6009602052816000526040600020818051602081018201805184825260208301602085012081835280955050505050506000915091509054906101000a90046fffffffffffffffffffffffffffffffff1681565b600860205281600052604060002081805160208101820180518482526020830160208501208183528095505050505050600091509150505481565b6000600560008473ffffffffffffffffffffffffffffffffffffffff1673ffffffffffffffffffffffffffffffffffffffff16815260200190815260200160002060008373ffffffffffffffffffffffffffffffffffffffff1673ffffffffffffffffffffffffffffffffffffffff16815260200190815260200160002060009054906101000a900460ff16905092915050565b60011515600a60003373ffffffffffffffffffffffffffffffffffffffff1673ffffffffffffffffffffffffffffffffffffffff16815260200190815260200160002060009054906101000a900460ff161515146115be57600080fd5b428111611600576040517f08c379a00000000000000000000000000000000000000000000000000000000081526004016115f790614b30565b60405180910390fd5b6000600b86604051611612919061486f565b908152602001604051809103902060010160009054906101000a90046fffffffffffffffffffffffffffffffff166fffffffffffffffffffffffffffffffff1614611692576040517f08c379a000000000000000000000000000000000000000000000000000000000815260040161168990614cf0565b60405180910390fd5b6000836fffffffffffffffffffffffffffffffff16116116e7576040517f08c379a00000000000000000000000000000000000000000000000000000000081526004016116de90614b10565b60405180910390fd5b8151836fffffffffffffffffffffffffffffffff16101561173d576040517f08c379a000000000000000000000000000000000000000000000000000000000815260040161173490614af0565b60405180910390fd5b6000805b83518110156117ab57838181518110611783577f4e487b7100000000000000000000000000000000000000000000000000000000600052603260045260246000fd5b6020026020010151826117969190615132565b915080806117a39061540e565b915050611741565b50600d60009054906101000a900473ffffffffffffffffffffffffffffffffffffffff1673ffffffffffffffffffffffffffffffffffffffff166370a08231336040518263ffffffff1660e01b815260040161180791906148d9565b60206040518083038186803b15801561181f57600080fd5b505afa158015611833573d6000803e3d6000fd5b505050506040513d601f19601f82011682018060405250810190611857919061419f565b8110611898576040517f08c379a000000000000000000000000000000000000000000000000000000000815260040161188f90614cb0565b60405180910390fd5b600d60009054906101000a900473ffffffffffffffffffffffffffffffffffffffff1673ffffffffffffffffffffffffffffffffffffffff1663dd62ed3e33306040518363ffffffff1660e01b81526004016118f59291906148f4565b60206040518083038186803b15801561190d57600080fd5b505afa158015611921573d6000803e3d6000fd5b505050506040513d601f19601f82011682018060405250810190611945919061419f565b8110611986576040517f08c379a000000000000000000000000000000000000000000000000000000000815260040161197d90614e70565b60405180910390fd5b6119b4600d60009054906101000a900473ffffffffffffffffffffffffffffffffffffffff16333084612949565b60006040518060800160405280878152602001866fffffffffffffffffffffffffffffffff16815260200160011515815260200184815250905083600c886040516119ff919061486f565b90815260200160405180910390209080519060200190611a20929190613958565b5080600b88604051611a32919061486f565b90815260200160405180910390206000820151816000019080519060200190611a5c9291906139a5565b5060208201518160010160006101000a8154816fffffffffffffffffffffffffffffffff02191690836fffffffffffffffffffffffffffffffff16021790555060408201518160010160106101000a81548160ff021916908315150217905550606082015181600201559050507fa310019f6fd75fa5b16ca49a8a2b046f9b872fa6d6ea4ef1e35fb3e4cf9adec88785604051611afa929190614a21565b60405180910390a150505050505050565b611b13611d15565b73ffffffffffffffffffffffffffffffffffffffff16611b316111a3565b73ffffffffffffffffffffffffffffffffffffffff1614611b87576040517f08c379a0000000000000000000000000000000000000000000000000000000008152600401611b7e90614e30565b60405180910390fd5b600073ffffffffffffffffffffffffffffffffffffffff168173ffffffffffffffffffffffffffffffffffffffff161415611bf7576040517f08c379a0000000000000000000000000000000000000000000000000000000008152600401611bee90614bb0565b60405180910390fd5b611c00816125fc565b50565b600d60009054906101000a900473ffffffffffffffffffffffffffffffffffffffff1681565b6001816000016000828254019250508190555050565b60007f01ffc9a7000000000000000000000000000000000000000000000000000000007bffffffffffffffffffffffffffffffffffffffffffffffffffffffff1916827bffffffffffffffffffffffffffffffffffffffffffffffffffffffff1916149050919050565b60008073ffffffffffffffffffffffffffffffffffffffff166002600084815260200190815260200160002060009054906101000a900473ffffffffffffffffffffffffffffffffffffffff1673ffffffffffffffffffffffffffffffffffffffff1614159050919050565b600033905090565b816004600083815260200190815260200160002060006101000a81548173ffffffffffffffffffffffffffffffffffffffff021916908373ffffffffffffffffffffffffffffffffffffffff160217905550808273ffffffffffffffffffffffffffffffffffffffff16611d9083610de3565b73ffffffffffffffffffffffffffffffffffffffff167f8c5be1e5ebec7d5bd14f71427d1e84f3dd0314c0f7b2291e5b200ac8c7c3b92560405160405180910390a45050565b60008383600b82604051611dea919061486f565b908152602001604051809103902060010160109054906101000a900460ff1615611e49576040517f08c379a0000000000000000000000000000000000000000000000000000000008152600401611e4090614d70565b60405180910390fd5b6000600960008373ffffffffffffffffffffffffffffffffffffffff1673ffffffffffffffffffffffffffffffffffffffff16815260200190815260200160002083604051611e98919061486f565b908152602001604051809103902060009054906101000a90046fffffffffffffffffffffffffffffffff166fffffffffffffffffffffffffffffffff1611611f15576040517f08c379a0000000000000000000000000000000000000000000000000000000008152600401611f0c90614c90565b60405180910390fd5b6000600860008373ffffffffffffffffffffffffffffffffffffffff1673ffffffffffffffffffffffffffffffffffffffff16815260200190815260200160002083604051611f64919061486f565b90815260200160405180910390205414611fb3576040517f08c379a0000000000000000000000000000000000000000000000000000000008152600401611faa90614f30565b60405180910390fd5b6000600960008773ffffffffffffffffffffffffffffffffffffffff1673ffffffffffffffffffffffffffffffffffffffff16815260200190815260200160002087604051612002919061486f565b908152602001604051809103902060009054906101000a90046fffffffffffffffffffffffffffffffff1690506000600b88604051612041919061486f565b9081526020016040518091039020600001805461205d90615372565b80601f016020809104026020016040519081016040528092919081815260200182805461208990615372565b80156120d65780601f106120ab576101008083540402835291602001916120d6565b820191906000526020600020905b8154815290600101906020018083116120b957829003601f168201915b505050505090506000816120e9846129d2565b6040516020016120fa9291906148aa565b60405160208183030381529060405290506000612117600e612bdf565b905080600860008b73ffffffffffffffffffffffffffffffffffffffff1673ffffffffffffffffffffffffffffffffffffffff1681526020019081526020016000208b604051612167919061486f565b9081526020016040518091039020819055506121838982612bed565b8873ffffffffffffffffffffffffffffffffffffffff167f436ed5ad57b88689854d2b756b16ffc1e461f71b9c88bc4316a6b58e9d7fc8098b86848c6040516121cf9493929190614aa4565b60405180910390a26121e18183612c0b565b6121eb600e611c29565b600c8a6040516121fb919061486f565b908152602001604051809103902080549050600960008b73ffffffffffffffffffffffffffffffffffffffff1673ffffffffffffffffffffffffffffffffffffffff1681526020019081526020016000208b60405161225a919061486f565b908152602001604051809103902060009054906101000a90046fffffffffffffffffffffffffffffffff166fffffffffffffffffffffffffffffffff16116122a7576122a6898b612c7f565b5b8096505050505050509392505050565b60006122c282611ca9565b612301576040517f08c379a00000000000000000000000000000000000000000000000000000000081526004016122f890614c70565b60405180910390fd5b600061230c83610de3565b90508073ffffffffffffffffffffffffffffffffffffffff168473ffffffffffffffffffffffffffffffffffffffff16148061237b57508373ffffffffffffffffffffffffffffffffffffffff1661236384610b0c565b73ffffffffffffffffffffffffffffffffffffffff16145b8061238c575061238b81856114cd565b5b91505092915050565b8273ffffffffffffffffffffffffffffffffffffffff166123b582610de3565b73ffffffffffffffffffffffffffffffffffffffff161461240b576040517f08c379a000000000000000000000000000000000000000000000000000000000815260040161240290614bd0565b60405180910390fd5b600073ffffffffffffffffffffffffffffffffffffffff168273ffffffffffffffffffffffffffffffffffffffff16141561247b576040517f08c379a000000000000000000000000000000000000000000000000000000000815260040161247290614c10565b60405180910390fd5b6124868383836130d2565b612491600082611d1d565b6001600360008573ffffffffffffffffffffffffffffffffffffffff1673ffffffffffffffffffffffffffffffffffffffff16815260200190815260200160002060008282546124e1919061521e565b925050819055506001600360008473ffffffffffffffffffffffffffffffffffffffff1673ffffffffffffffffffffffffffffffffffffffff16815260200190815260200160002060008282546125389190615132565b92505081905550816002600083815260200190815260200160002060006101000a81548173ffffffffffffffffffffffffffffffffffffffff021916908373ffffffffffffffffffffffffffffffffffffffff160217905550808273ffffffffffffffffffffffffffffffffffffffff168473ffffffffffffffffffffffffffffffffffffffff167fddf252ad1be2c89b69c2b068fc378daa952ba7f163c4a11628f55a4df523b3ef60405160405180910390a46125f78383836130d7565b505050565b6000600760009054906101000a900473ffffffffffffffffffffffffffffffffffffffff16905081600760006101000a81548173ffffffffffffffffffffffffffffffffffffffff021916908373ffffffffffffffffffffffffffffffffffffffff1602179055508173ffffffffffffffffffffffffffffffffffffffff168173ffffffffffffffffffffffffffffffffffffffff167f8be0079c531659141344cd1fd0a4f28419497f9722a3daafe3b4186f6b6457e060405160405180910390a35050565b8173ffffffffffffffffffffffffffffffffffffffff168373ffffffffffffffffffffffffffffffffffffffff161415612731576040517f08c379a000000000000000000000000000000000000000000000000000000000815260040161272890614c30565b60405180910390fd5b80600560008573ffffffffffffffffffffffffffffffffffffffff1673ffffffffffffffffffffffffffffffffffffffff16815260200190815260200160002060008473ffffffffffffffffffffffffffffffffffffffff1673ffffffffffffffffffffffffffffffffffffffff16815260200190815260200160002060006101000a81548160ff0219169083151502179055508173ffffffffffffffffffffffffffffffffffffffff168373ffffffffffffffffffffffffffffffffffffffff167f17307eab39ab6107e8899845ad3d59bd9653f200f220920489ca2b5937696c318360405161282291906149c9565b60405180910390a3505050565b61283a848484612395565b612846848484846130dc565b612885576040517f08c379a000000000000000000000000000000000000000000000000000000000815260040161287c90614b70565b60405180910390fd5b50505050565b606060405180602001604052806000815250905090565b60606128ad82611ca9565b6128ec576040517f08c379a00000000000000000000000000000000000000000000000000000000081526004016128e390614e50565b60405180910390fd5b60006128f661288b565b905060008151116129165760405180602001604052806000815250612941565b8061292084613273565b604051602001612931929190614886565b6040516020818303038152906040525b915050919050565b6129cc846323b872dd60e01b85858560405160240161296a9392919061491d565b604051602081830303815290604052907bffffffffffffffffffffffffffffffffffffffffffffffffffffffff19166020820180517bffffffffffffffffffffffffffffffffffffffffffffffffffffffff8381831617835250505050613420565b50505050565b60606000826fffffffffffffffffffffffffffffffff161415612a2c576040518060400160405280600181526020017f30000000000000000000000000000000000000000000000000000000000000008152509050612bda565b600082905060005b6000826fffffffffffffffffffffffffffffffff1614612a70578080612a59906153d5565b915050600a82612a699190615188565b9150612a34565b6000816fffffffffffffffffffffffffffffffff1667ffffffffffffffff811115612ac4577f4e487b7100000000000000000000000000000000000000000000000000000000600052604160045260246000fd5b6040519080825280601f01601f191660200182016040528015612af65781602001600182028036833780820191505090505b50905060008290508593505b6000846fffffffffffffffffffffffffffffffff1614612bd257600a84612b299190615457565b6030612b3591906150ec565b60f81b8282612b4390615348565b9250826fffffffffffffffffffffffffffffffff1681518110612b8f577f4e487b7100000000000000000000000000000000000000000000000000000000600052603260045260246000fd5b60200101907effffffffffffffffffffffffffffffffffffffffffffffffffffffffffffff1916908160001a905350600a84612bcb9190615188565b9350612b02565b819450505050505b919050565b600081600001549050919050565b612c078282604051806020016040528060008152506134e7565b5050565b612c1482611ca9565b612c53576040517f08c379a0000000000000000000000000000000000000000000000000000000008152600401612c4a90614d50565b60405180910390fd5b80600660008481526020019081526020016000209080519060200190612c7a9291906139a5565b505050565b8082600c82604051612c91919061486f565b908152602001604051809103902080549050600960008373ffffffffffffffffffffffffffffffffffffffff1673ffffffffffffffffffffffffffffffffffffffff16815260200190815260200160002083604051612cf0919061486f565b908152602001604051809103902060009054906101000a90046fffffffffffffffffffffffffffffffff166fffffffffffffffffffffffffffffffff161115612d6e576040517f08c379a0000000000000000000000000000000000000000000000000000000008152600401612d6590614b90565b60405180910390fd5b6000600c84604051612d80919061486f565b90815260200160405180910390206001600960008873ffffffffffffffffffffffffffffffffffffffff1673ffffffffffffffffffffffffffffffffffffffff16815260200190815260200160002086604051612ddd919061486f565b908152602001604051809103902060009054906101000a90046fffffffffffffffffffffffffffffffff16612e1291906151ea565b6fffffffffffffffffffffffffffffffff1681548110612e5b577f4e487b7100000000000000000000000000000000000000000000000000000000600052603260045260246000fd5b906000526020600020015490506000811415612eac576040517f08c379a0000000000000000000000000000000000000000000000000000000008152600401612ea390614b50565b60405180910390fd5b600d60009054906101000a900473ffffffffffffffffffffffffffffffffffffffff1673ffffffffffffffffffffffffffffffffffffffff166370a08231306040518263ffffffff1660e01b8152600401612f0791906148d9565b60206040518083038186803b158015612f1f57600080fd5b505afa158015612f33573d6000803e3d6000fd5b505050506040513d601f19601f82011682018060405250810190612f57919061419f565b811115612f99576040517f08c379a0000000000000000000000000000000000000000000000000000000008152600401612f9090614e10565b60405180910390fd5b6000600960008773ffffffffffffffffffffffffffffffffffffffff1673ffffffffffffffffffffffffffffffffffffffff16815260200190815260200160002085604051612fe8919061486f565b908152602001604051809103902060006101000a8154816fffffffffffffffffffffffffffffffff02191690836fffffffffffffffffffffffffffffffff160217905550613059600d60009054906101000a900473ffffffffffffffffffffffffffffffffffffffff168683613542565b600d60009054906101000a900473ffffffffffffffffffffffffffffffffffffffff1673ffffffffffffffffffffffffffffffffffffffff167f3be5b7a71e84ed12875d241991c70855ac5817d847039e17a9d895c1ceb0f18a86836040516130c39291906149a0565b60405180910390a25050505050565b505050565b505050565b60006130fd8473ffffffffffffffffffffffffffffffffffffffff166135c8565b15613266578373ffffffffffffffffffffffffffffffffffffffff1663150b7a02613126611d15565b8786866040518563ffffffff1660e01b81526004016131489493929190614954565b602060405180830381600087803b15801561316257600080fd5b505af192505050801561319357506040513d601f19601f820116820180604052508101906131909190613f39565b60015b613216573d80600081146131c3576040519150601f19603f3d011682016040523d82523d6000602084013e6131c8565b606091505b5060008151141561320e576040517f08c379a000000000000000000000000000000000000000000000000000000000815260040161320590614b70565b60405180910390fd5b805181602001fd5b63150b7a0260e01b7bffffffffffffffffffffffffffffffffffffffffffffffffffffffff1916817bffffffffffffffffffffffffffffffffffffffffffffffffffffffff19161491505061326b565b600190505b949350505050565b606060008214156132bb576040518060400160405280600181526020017f3000000000000000000000000000000000000000000000000000000000000000815250905061341b565b600082905060005b600082146132ed5780806132d69061540e565b915050600a826132e691906151b9565b91506132c3565b60008167ffffffffffffffff81111561332f577f4e487b7100000000000000000000000000000000000000000000000000000000600052604160045260246000fd5b6040519080825280601f01601f1916602001820160405280156133615781602001600182028036833780820191505090505b5090505b600085146134145760018261337a919061521e565b9150600a856133899190615488565b60306133959190615132565b60f81b8183815181106133d1577f4e487b7100000000000000000000000000000000000000000000000000000000600052603260045260246000fd5b60200101907effffffffffffffffffffffffffffffffffffffffffffffffffffffffffffff1916908160001a905350600a8561340d91906151b9565b9450613365565b8093505050505b919050565b6000613482826040518060400160405280602081526020017f5361666545524332303a206c6f772d6c6576656c2063616c6c206661696c65648152508573ffffffffffffffffffffffffffffffffffffffff166135eb9092919063ffffffff16565b90506000815111156134e257808060200190518101906134a29190613ee7565b6134e1576040517f08c379a00000000000000000000000000000000000000000000000000000000081526004016134d890614f10565b60405180910390fd5b5b505050565b6134f18383613603565b6134fe60008484846130dc565b61353d576040517f08c379a000000000000000000000000000000000000000000000000000000000815260040161353490614b70565b60405180910390fd5b505050565b6135c38363a9059cbb60e01b84846040516024016135619291906149a0565b604051602081830303815290604052907bffffffffffffffffffffffffffffffffffffffffffffffffffffffff19166020820180517bffffffffffffffffffffffffffffffffffffffffffffffffffffffff8381831617835250505050613420565b505050565b6000808273ffffffffffffffffffffffffffffffffffffffff163b119050919050565b60606135fa84846000856137dd565b90509392505050565b600073ffffffffffffffffffffffffffffffffffffffff168273ffffffffffffffffffffffffffffffffffffffff161415613673576040517f08c379a000000000000000000000000000000000000000000000000000000000815260040161366a90614db0565b60405180910390fd5b61367c81611ca9565b156136bc576040517f08c379a00000000000000000000000000000000000000000000000000000000081526004016136b390614bf0565b60405180910390fd5b6136c8600083836130d2565b6001600360008473ffffffffffffffffffffffffffffffffffffffff1673ffffffffffffffffffffffffffffffffffffffff16815260200190815260200160002060008282546137189190615132565b92505081905550816002600083815260200190815260200160002060006101000a81548173ffffffffffffffffffffffffffffffffffffffff021916908373ffffffffffffffffffffffffffffffffffffffff160217905550808273ffffffffffffffffffffffffffffffffffffffff16600073ffffffffffffffffffffffffffffffffffffffff167fddf252ad1be2c89b69c2b068fc378daa952ba7f163c4a11628f55a4df523b3ef60405160405180910390a46137d9600083836130d7565b5050565b606082471015613822576040517f08c379a000000000000000000000000000000000000000000000000000000000815260040161381990614c50565b60405180910390fd5b61382b856135c8565b61386a576040517f08c379a000000000000000000000000000000000000000000000000000000000815260040161386190614ed0565b60405180910390fd5b6000808673ffffffffffffffffffffffffffffffffffffffff1685876040516138939190614858565b60006040518083038185875af1925050503d80600081146138d0576040519150601f19603f3d011682016040523d82523d6000602084013e6138d5565b606091505b50915091506138e58282866138f1565b92505050949350505050565b6060831561390157829050613951565b6000835111156139145782518084602001fd5b816040517f08c379a000000000000000000000000000000000000000000000000000000000815260040161394891906149ff565b60405180910390fd5b9392505050565b828054828255906000526020600020908101928215613994579160200282015b82811115613993578251825591602001919060010190613978565b5b5090506139a19190613a2b565b5090565b8280546139b190615372565b90600052602060002090601f0160209004810192826139d35760008555613a1a565b82601f106139ec57805160ff1916838001178555613a1a565b82800160010185558215613a1a579182015b82811115613a195782518255916020019190600101906139fe565b5b509050613a279190613a2b565b5090565b5b80821115613a44576000816000905550600101613a2c565b5090565b6000613a5b613a5684614fab565b614f86565b90508083825260208201905082856020860282011115613a7a57600080fd5b60005b85811015613aaa5781613a908882613b9c565b845260208401935060208301925050600181019050613a7d565b5050509392505050565b6000613ac7613ac284614fd7565b614f86565b90508083825260208201905082856020860282011115613ae657600080fd5b60005b85811015613b165781613afc8882613cc2565b845260208401935060208301925050600181019050613ae9565b5050509392505050565b6000613b33613b2e84615003565b614f86565b905082815260208101848484011115613b4b57600080fd5b613b56848285615306565b509392505050565b6000613b71613b6c84615034565b614f86565b905082815260208101848484011115613b8957600080fd5b613b94848285615306565b509392505050565b600081359050613bab81615f26565b92915050565b600082601f830112613bc257600080fd5b8135613bd2848260208601613a48565b91505092915050565b600082601f830112613bec57600080fd5b8135613bfc848260208601613ab4565b91505092915050565b600081359050613c1481615f3d565b92915050565b600081519050613c2981615f3d565b92915050565b600081359050613c3e81615f54565b92915050565b600081519050613c5381615f54565b92915050565b600082601f830112613c6a57600080fd5b8135613c7a848260208601613b20565b91505092915050565b600082601f830112613c9457600080fd5b8135613ca4848260208601613b5e565b91505092915050565b600081359050613cbc81615f6b565b92915050565b600081359050613cd181615f82565b92915050565b600081519050613ce681615f82565b92915050565b600060208284031215613cfe57600080fd5b6000613d0c84828501613b9c565b91505092915050565b60008060408385031215613d2857600080fd5b6000613d3685828601613b9c565b9250506020613d4785828601613b9c565b9150509250929050565b600080600060608486031215613d6657600080fd5b6000613d7486828701613b9c565b9350506020613d8586828701613b9c565b9250506040613d9686828701613cc2565b9150509250925092565b60008060008060808587031215613db657600080fd5b6000613dc487828801613b9c565b9450506020613dd587828801613b9c565b9350506040613de687828801613cc2565b925050606085013567ffffffffffffffff811115613e0357600080fd5b613e0f87828801613c59565b91505092959194509250565b60008060408385031215613e2e57600080fd5b6000613e3c85828601613b9c565b9250506020613e4d85828601613c05565b9150509250929050565b60008060408385031215613e6a57600080fd5b6000613e7885828601613b9c565b925050602083013567ffffffffffffffff811115613e9557600080fd5b613ea185828601613c83565b9150509250929050565b60008060408385031215613ebe57600080fd5b6000613ecc85828601613b9c565b9250506020613edd85828601613cc2565b9150509250929050565b600060208284031215613ef957600080fd5b6000613f0784828501613c1a565b91505092915050565b600060208284031215613f2257600080fd5b6000613f3084828501613c2f565b91505092915050565b600060208284031215613f4b57600080fd5b6000613f5984828501613c44565b91505092915050565b600060208284031215613f7457600080fd5b600082013567ffffffffffffffff811115613f8e57600080fd5b613f9a84828501613c83565b91505092915050565b60008060408385031215613fb657600080fd5b600083013567ffffffffffffffff811115613fd057600080fd5b613fdc85828601613c83565b9250506020613fed85828601613b9c565b9150509250929050565b6000806040838503121561400a57600080fd5b600083013567ffffffffffffffff81111561402457600080fd5b61403085828601613c83565b925050602083013567ffffffffffffffff81111561404d57600080fd5b61405985828601613bb1565b9150509250929050565b600080600080600060a0868803121561407b57600080fd5b600086013567ffffffffffffffff81111561409557600080fd5b6140a188828901613c83565b955050602086013567ffffffffffffffff8111156140be57600080fd5b6140ca88828901613c83565b94505060406140db88828901613cad565b935050606086013567ffffffffffffffff8111156140f857600080fd5b61410488828901613bdb565b925050608061411588828901613cc2565b9150509295509295909350565b6000806040838503121561413557600080fd5b600083013567ffffffffffffffff81111561414f57600080fd5b61415b85828601613c83565b925050602061416c85828601613cc2565b9150509250929050565b60006020828403121561418857600080fd5b600061419684828501613cc2565b91505092915050565b6000602082840312156141b157600080fd5b60006141bf84828501613cd7565b91505092915050565b60006141d4838361483a565b60208301905092915050565b6141e981615252565b82525050565b60006141fa82615075565b61420481856150a3565b935061420f83615065565b8060005b8381101561424057815161422788826141c8565b975061423283615096565b925050600181019050614213565b5085935050505092915050565b61425681615264565b82525050565b600061426782615080565b61427181856150b4565b9350614281818560208601615315565b61428a81615575565b840191505092915050565b60006142a082615080565b6142aa81856150c5565b93506142ba818560208601615315565b80840191505092915050565b6142cf816152e2565b82525050565b60006142e08261508b565b6142ea81856150d0565b93506142fa818560208601615315565b61430381615575565b840191505092915050565b60006143198261508b565b61432381856150e1565b9350614333818560208601615315565b80840191505092915050565b600061434c6032836150d0565b915061435782615586565b604082019050919050565b600061436f6029836150d0565b915061437a826155d5565b604082019050919050565b6000614392601b836150d0565b915061439d82615624565b602082019050919050565b60006143b56023836150d0565b91506143c08261564d565b604082019050919050565b60006143d86032836150d0565b91506143e38261569c565b604082019050919050565b60006143fb602f836150d0565b9150614406826156eb565b604082019050919050565b600061441e6026836150d0565b91506144298261573a565b604082019050919050565b60006144416025836150d0565b915061444c82615789565b604082019050919050565b6000614464601c836150d0565b915061446f826157d8565b602082019050919050565b60006144876024836150d0565b915061449282615801565b604082019050919050565b60006144aa6019836150d0565b91506144b582615850565b602082019050919050565b60006144cd6026836150d0565b91506144d882615879565b604082019050919050565b60006144f0602c836150d0565b91506144fb826158c8565b604082019050919050565b60006145136020836150d0565b915061451e82615917565b602082019050919050565b60006145366028836150d0565b915061454182615940565b604082019050919050565b60006145596038836150d0565b91506145648261598f565b604082019050919050565b600061457c6022836150d0565b9150614587826159de565b604082019050919050565b600061459f602a836150d0565b91506145aa82615a2d565b604082019050919050565b60006145c26029836150d0565b91506145cd82615a7c565b604082019050919050565b60006145e5602e836150d0565b91506145f082615acb565b604082019050919050565b60006146086027836150d0565b915061461382615b1a565b604082019050919050565b600061462b6021836150d0565b915061463682615b69565b604082019050919050565b600061464e6020836150d0565b915061465982615bb8565b602082019050919050565b60006146716031836150d0565b915061467c82615be1565b604082019050919050565b6000614694602c836150d0565b915061469f82615c30565b604082019050919050565b60006146b76005836150e1565b91506146c282615c7f565b600582019050919050565b60006146da601d836150d0565b91506146e582615ca8565b602082019050919050565b60006146fd6020836150d0565b915061470882615cd1565b602082019050919050565b6000614720602f836150d0565b915061472b82615cfa565b604082019050919050565b60006147436015836150d0565b915061474e82615d49565b602082019050919050565b60006147666021836150d0565b915061477182615d72565b604082019050919050565b60006147896031836150d0565b915061479482615dc1565b604082019050919050565b60006147ac601d836150d0565b91506147b782615e10565b602082019050919050565b60006147cf6036836150d0565b91506147da82615e39565b604082019050919050565b60006147f2602a836150d0565b91506147fd82615e88565b604082019050919050565b6000614815602e836150d0565b915061482082615ed7565b604082019050919050565b6148348161529c565b82525050565b614843816152d8565b82525050565b614852816152d8565b82525050565b60006148648284614295565b915081905092915050565b600061487b828461430e565b915081905092915050565b6000614892828561430e565b915061489e828461430e565b91508190509392505050565b60006148b6828561430e565b91506148c2828461430e565b91506148cd826146aa565b91508190509392505050565b60006020820190506148ee60008301846141e0565b92915050565b600060408201905061490960008301856141e0565b61491660208301846141e0565b9392505050565b600060608201905061493260008301866141e0565b61493f60208301856141e0565b61494c6040830184614849565b949350505050565b600060808201905061496960008301876141e0565b61497660208301866141e0565b6149836040830185614849565b8181036060830152614995818461425c565b905095945050505050565b60006040820190506149b560008301856141e0565b6149c26020830184614849565b9392505050565b60006020820190506149de600083018461424d565b92915050565b60006020820190506149f960008301846142c6565b92915050565b60006020820190508181036000830152614a1981846142d5565b905092915050565b60006040820190508181036000830152614a3b81856142d5565b90508181036020830152614a4f81846141ef565b90509392505050565b60006080820190508181036000830152614a7281876142d5565b9050614a81602083018661482b565b614a8e604083018561424d565b614a9b6060830184614849565b95945050505050565b60006080820190508181036000830152614abe81876142d5565b9050614acd602083018661482b565b614ada6040830185614849565b614ae7606083018461424d565b95945050505050565b60006020820190508181036000830152614b098161433f565b9050919050565b60006020820190508181036000830152614b2981614362565b9050919050565b60006020820190508181036000830152614b4981614385565b9050919050565b60006020820190508181036000830152614b69816143a8565b9050919050565b60006020820190508181036000830152614b89816143cb565b9050919050565b60006020820190508181036000830152614ba9816143ee565b9050919050565b60006020820190508181036000830152614bc981614411565b9050919050565b60006020820190508181036000830152614be981614434565b9050919050565b60006020820190508181036000830152614c0981614457565b9050919050565b60006020820190508181036000830152614c298161447a565b9050919050565b60006020820190508181036000830152614c498161449d565b9050919050565b60006020820190508181036000830152614c69816144c0565b9050919050565b60006020820190508181036000830152614c89816144e3565b9050919050565b60006020820190508181036000830152614ca981614506565b9050919050565b60006020820190508181036000830152614cc981614529565b9050919050565b60006020820190508181036000830152614ce98161454c565b9050919050565b60006020820190508181036000830152614d098161456f565b9050919050565b60006020820190508181036000830152614d2981614592565b9050919050565b60006020820190508181036000830152614d49816145b5565b9050919050565b60006020820190508181036000830152614d69816145d8565b9050919050565b60006020820190508181036000830152614d89816145fb565b9050919050565b60006020820190508181036000830152614da98161461e565b9050919050565b60006020820190508181036000830152614dc981614641565b9050919050565b60006020820190508181036000830152614de981614664565b9050919050565b60006020820190508181036000830152614e0981614687565b9050919050565b60006020820190508181036000830152614e29816146cd565b9050919050565b60006020820190508181036000830152614e49816146f0565b9050919050565b60006020820190508181036000830152614e6981614713565b9050919050565b60006020820190508181036000830152614e8981614736565b9050919050565b60006020820190508181036000830152614ea981614759565b9050919050565b60006020820190508181036000830152614ec98161477c565b9050919050565b60006020820190508181036000830152614ee98161479f565b9050919050565b60006020820190508181036000830152614f09816147c2565b9050919050565b60006020820190508181036000830152614f29816147e5565b9050919050565b60006020820190508181036000830152614f4981614808565b9050919050565b6000602082019050614f65600083018461482b565b92915050565b6000602082019050614f806000830184614849565b92915050565b6000614f90614fa1565b9050614f9c82826153a4565b919050565b6000604051905090565b600067ffffffffffffffff821115614fc657614fc5615546565b5b602082029050602081019050919050565b600067ffffffffffffffff821115614ff257614ff1615546565b5b602082029050602081019050919050565b600067ffffffffffffffff82111561501e5761501d615546565b5b61502782615575565b9050602081019050919050565b600067ffffffffffffffff82111561504f5761504e615546565b5b61505882615575565b9050602081019050919050565b6000819050602082019050919050565b600081519050919050565b600081519050919050565b600081519050919050565b6000602082019050919050565b600082825260208201905092915050565b600082825260208201905092915050565b600081905092915050565b600082825260208201905092915050565b600081905092915050565b60006150f78261529c565b91506151028361529c565b9250826fffffffffffffffffffffffffffffffff03821115615127576151266154b9565b5b828201905092915050565b600061513d826152d8565b9150615148836152d8565b9250827fffffffffffffffffffffffffffffffffffffffffffffffffffffffffffffffff0382111561517d5761517c6154b9565b5b828201905092915050565b60006151938261529c565b915061519e8361529c565b9250826151ae576151ad6154e8565b5b828204905092915050565b60006151c4826152d8565b91506151cf836152d8565b9250826151df576151de6154e8565b5b828204905092915050565b60006151f58261529c565b91506152008361529c565b925082821015615213576152126154b9565b5b828203905092915050565b6000615229826152d8565b9150615234836152d8565b925082821015615247576152466154b9565b5b828203905092915050565b600061525d826152b8565b9050919050565b60008115159050919050565b60007fffffffff0000000000000000000000000000000000000000000000000000000082169050919050565b60006fffffffffffffffffffffffffffffffff82169050919050565b600073ffffffffffffffffffffffffffffffffffffffff82169050919050565b6000819050919050565b60006152ed826152f4565b9050919050565b60006152ff826152b8565b9050919050565b82818337600083830152505050565b60005b83811015615333578082015181840152602081019050615318565b83811115615342576000848401525b50505050565b60006153538261529c565b91506000821415615367576153666154b9565b5b600182039050919050565b6000600282049050600182168061538a57607f821691505b6020821081141561539e5761539d615517565b5b50919050565b6153ad82615575565b810181811067ffffffffffffffff821117156153cc576153cb615546565b5b80604052505050565b60006153e08261529c565b91506fffffffffffffffffffffffffffffffff821415615403576154026154b9565b5b600182019050919050565b6000615419826152d8565b91507fffffffffffffffffffffffffffffffffffffffffffffffffffffffffffffffff82141561544c5761544b6154b9565b5b600182019050919050565b60006154628261529c565b915061546d8361529c565b92508261547d5761547c6154e8565b5b828206905092915050565b6000615493826152d8565b915061549e836152d8565b9250826154ae576154ad6154e8565b5b828206905092915050565b7f4e487b7100000000000000000000000000000000000000000000000000000000600052601160045260246000fd5b7f4e487b7100000000000000000000000000000000000000000000000000000000600052601260045260246000fd5b7f4e487b7100000000000000000000000000000000000000000000000000000000600052602260045260246000fd5b7f4e487b7100000000000000000000000000000000000000000000000000000000600052604160045260246000fd5b6000601f19601f8301169050919050565b7f426f756e74794d616b65723a204c696d6974206d757374206265206d6f72652060008201527f7468616e206e6f206f6620726577617264730000000000000000000000000000602082015250565b7f426f756e74794d616b65723a204c696d6974206d75737420626520677265617460008201527f6572207468616e20300000000000000000000000000000000000000000000000602082015250565b7f496e76616c69642056616c756520666f722074696d657374616d700000000000600082015250565b7f5061796d656e743a206163636f756e74206973206e6f7420647565207061796d60008201527f656e740000000000000000000000000000000000000000000000000000000000602082015250565b7f4552433732313a207472616e7366657220746f206e6f6e20455243373231526560008201527f63656976657220696d706c656d656e7465720000000000000000000000000000602082015250565b7f426f756e74794d616b65723a2061646472657373206973206e6f7420656c696760008201527f69626c6520666f72207265776172640000000000000000000000000000000000602082015250565b7f4f776e61626c653a206e6577206f776e657220697320746865207a65726f206160008201527f6464726573730000000000000000000000000000000000000000000000000000602082015250565b7f4552433732313a207472616e736665722066726f6d20696e636f72726563742060008201527f6f776e6572000000000000000000000000000000000000000000000000000000602082015250565b7f4552433732313a20746f6b656e20616c7265616479206d696e74656400000000600082015250565b7f4552433732313a207472616e7366657220746f20746865207a65726f2061646460008201527f7265737300000000000000000000000000000000000000000000000000000000602082015250565b7f4552433732313a20617070726f766520746f2063616c6c657200000000000000600082015250565b7f416464726573733a20696e73756666696369656e742062616c616e636520666f60008201527f722063616c6c0000000000000000000000000000000000000000000000000000602082015250565b7f4552433732313a206f70657261746f7220717565727920666f72206e6f6e657860008201527f697374656e7420746f6b656e0000000000000000000000000000000000000000602082015250565b7f426f756e74794d616b65723a206164647265737320686173206e6f7420776f6e600082015250565b7f5061796d656e743a20496e73756666696369656e742062616c616e6365206f6660008201527f2063726561746f72000000000000000000000000000000000000000000000000602082015250565b7f4552433732313a20617070726f76652063616c6c6572206973206e6f74206f7760008201527f6e6572206e6f7220617070726f76656420666f7220616c6c0000000000000000602082015250565b7f426f756e74794d616b65723a20426f756e747920616c7265616479206578697360008201527f7473000000000000000000000000000000000000000000000000000000000000602082015250565b7f4552433732313a2062616c616e636520717565727920666f7220746865207a6560008201527f726f206164647265737300000000000000000000000000000000000000000000602082015250565b7f4552433732313a206f776e657220717565727920666f72206e6f6e657869737460008201527f656e7420746f6b656e0000000000000000000000000000000000000000000000602082015250565b7f45524337323155524953746f726167653a2055524920736574206f66206e6f6e60008201527f6578697374656e7420746f6b656e000000000000000000000000000000000000602082015250565b7f426f756e74794d616b65723a20626f756e7479206973206e6f742066696e697360008201527f6865642079657400000000000000000000000000000000000000000000000000602082015250565b7f426f756e74794d616b65723a20426f756e7479206973206e6f7420616374697660008201527f6500000000000000000000000000000000000000000000000000000000000000602082015250565b7f4552433732313a206d696e7420746f20746865207a65726f2061646472657373600082015250565b7f45524337323155524953746f726167653a2055524920717565727920666f722060008201527f6e6f6e6578697374656e7420746f6b656e000000000000000000000000000000602082015250565b7f4552433732313a20617070726f76656420717565727920666f72206e6f6e657860008201527f697374656e7420746f6b656e0000000000000000000000000000000000000000602082015250565b7f2e6a736f6e000000000000000000000000000000000000000000000000000000600082015250565b7f5061796d656e743a20496e73756666696369656e742062616c616e6365000000600082015250565b7f4f776e61626c653a2063616c6c6572206973206e6f7420746865206f776e6572600082015250565b7f4552433732314d657461646174613a2055524920717565727920666f72206e6f60008201527f6e6578697374656e7420746f6b656e0000000000000000000000000000000000602082015250565b7f5061796d656e743a204e6f7420617070726f7665640000000000000000000000600082015250565b7f4552433732313a20617070726f76616c20746f2063757272656e74206f776e6560008201527f7200000000000000000000000000000000000000000000000000000000000000602082015250565b7f4552433732313a207472616e736665722063616c6c6572206973206e6f74206f60008201527f776e6572206e6f7220617070726f766564000000000000000000000000000000602082015250565b7f416464726573733a2063616c6c20746f206e6f6e2d636f6e7472616374000000600082015250565b7f426f756e74794d616b65723a204e6f206f662077696e6e657273206d7573742060008201527f626520657175616c20746f20746f6b656e4c696d747300000000000000000000602082015250565b7f5361666545524332303a204552433230206f7065726174696f6e20646964206e60008201527f6f74207375636365656400000000000000000000000000000000000000000000602082015250565b7f426f756e74794d616b65723a20616464726573732068617320616c726561647960008201527f20636c61696d656420746f6b656e000000000000000000000000000000000000602082015250565b615f2f81615252565b8114615f3a57600080fd5b50565b615f4681615264565b8114615f5157600080fd5b50565b615f5d81615270565b8114615f6857600080fd5b50565b615f748161529c565b8114615f7f57600080fd5b50565b615f8b816152d8565b8114615f9657600080fd5b5056fea26469706673582212201d89fce711e73effa264f1098e48772a9a096210333ec825625581d2198336f064736f6c63430008040033",
  "linkReferences": {},
  "deployedLinkReferences": {}
}