{
  "_format": "hh-sol-artifact-1",
  "contractName": "BountyMaker",
  "sourceName": "contracts/BountyMaker.sol",
  "abi": [
    {
      "inputs": [
        {
          "internalType": "contract IERC20",
          "name": "_token",
          "type": "address"
        }
      ],
      "stateMutability": "nonpayable",
      "type": "constructor"
    },
    {
      "anonymous": false,
      "inputs": [
        {
          "indexed": true,
          "internalType": "address",
          "name": "owner",
          "type": "address"
        },
        {
          "indexed": true,
          "internalType": "address",
          "name": "approved",
          "type": "address"
        },
        {
          "indexed": true,
          "internalType": "uint256",
          "name": "tokenId",
          "type": "uint256"
        }
      ],
      "name": "Approval",
      "type": "event"
    },
    {
      "anonymous": false,
      "inputs": [
        {
          "indexed": true,
          "internalType": "address",
          "name": "owner",
          "type": "address"
        },
        {
          "indexed": true,
          "internalType": "address",
          "name": "operator",
          "type": "address"
        },
        {
          "indexed": false,
          "internalType": "bool",
          "name": "approved",
          "type": "bool"
        }
      ],
      "name": "ApprovalForAll",
      "type": "event"
    },
    {
      "anonymous": false,
      "inputs": [
        {
          "indexed": false,
          "internalType": "string",
          "name": "_bountyId",
          "type": "string"
        },
        {
          "indexed": false,
          "internalType": "uint256[]",
          "name": "_rewards",
          "type": "uint256[]"
        }
      ],
      "name": "BountyCreated",
      "type": "event"
    },
    {
      "anonymous": false,
      "inputs": [
        {
          "indexed": true,
          "internalType": "address",
          "name": "_receiver",
          "type": "address"
        },
        {
          "indexed": false,
          "internalType": "string",
          "name": "_bountyId",
          "type": "string"
        },
        {
          "indexed": false,
          "internalType": "uint128",
          "name": "_bountyIndex",
          "type": "uint128"
        },
        {
          "indexed": false,
          "internalType": "uint256",
          "name": "_contractIndex",
          "type": "uint256"
        },
        {
          "indexed": false,
          "internalType": "bool",
          "name": "_isAdmin",
          "type": "bool"
        }
      ],
      "name": "Claim",
      "type": "event"
    },
    {
      "anonymous": false,
      "inputs": [
        {
          "indexed": true,
          "internalType": "contract IERC20",
          "name": "token",
          "type": "address"
        },
        {
          "indexed": false,
          "internalType": "address",
          "name": "to",
          "type": "address"
        },
        {
          "indexed": false,
          "internalType": "uint256",
          "name": "amount",
          "type": "uint256"
        }
      ],
      "name": "ERC20PaymentReleased",
      "type": "event"
    },
    {
      "anonymous": false,
      "inputs": [
        {
          "indexed": true,
          "internalType": "address",
          "name": "previousOwner",
          "type": "address"
        },
        {
          "indexed": true,
          "internalType": "address",
          "name": "newOwner",
          "type": "address"
        }
      ],
      "name": "OwnershipTransferred",
      "type": "event"
    },
    {
      "anonymous": false,
      "inputs": [
        {
          "indexed": true,
          "internalType": "address",
          "name": "from",
          "type": "address"
        },
        {
          "indexed": true,
          "internalType": "address",
          "name": "to",
          "type": "address"
        },
        {
          "indexed": true,
          "internalType": "uint256",
          "name": "tokenId",
          "type": "uint256"
        }
      ],
      "name": "Transfer",
      "type": "event"
    },
    {
      "anonymous": false,
      "inputs": [
        {
          "indexed": false,
          "internalType": "string",
          "name": "_bountyId",
          "type": "string"
        },
        {
          "indexed": false,
          "internalType": "address[]",
          "name": "_winners",
          "type": "address[]"
        }
      ],
      "name": "WinnersDeclared",
      "type": "event"
    },
    {
      "inputs": [
        {
          "internalType": "string",
          "name": "_bountyId",
          "type": "string"
        },
        {
          "internalType": "address",
          "name": "to",
          "type": "address"
        }
      ],
      "name": "adminClaimToken",
      "outputs": [
        {
          "internalType": "uint256",
          "name": "",
          "type": "uint256"
        }
      ],
      "stateMutability": "nonpayable",
      "type": "function"
    },
    {
      "inputs": [
        {
          "internalType": "address",
          "name": "_admin",
          "type": "address"
        }
      ],
      "name": "amIAdmin",
      "outputs": [
        {
          "internalType": "bool",
          "name": "",
          "type": "bool"
        }
      ],
      "stateMutability": "view",
      "type": "function"
    },
    {
      "inputs": [
        {
          "internalType": "address",
          "name": "to",
          "type": "address"
        },
        {
          "internalType": "uint256",
          "name": "tokenId",
          "type": "uint256"
        }
      ],
      "name": "approve",
      "outputs": [],
      "stateMutability": "nonpayable",
      "type": "function"
    },
    {
      "inputs": [
        {
          "internalType": "address",
          "name": "owner",
          "type": "address"
        }
      ],
      "name": "balanceOf",
      "outputs": [
        {
          "internalType": "uint256",
          "name": "",
          "type": "uint256"
        }
      ],
      "stateMutability": "view",
      "type": "function"
    },
    {
      "inputs": [
        {
          "internalType": "string",
          "name": "",
          "type": "string"
        }
      ],
      "name": "bountys",
      "outputs": [
        {
          "internalType": "string",
          "name": "uri",
          "type": "string"
        },
        {
          "internalType": "uint128",
          "name": "tokenLimit",
          "type": "uint128"
        },
        {
          "internalType": "bool",
          "name": "active",
          "type": "bool"
        },
        {
          "internalType": "uint256",
          "name": "endTime",
          "type": "uint256"
        }
      ],
      "stateMutability": "view",
      "type": "function"
    },
    {
      "inputs": [
        {
          "internalType": "string",
          "name": "_bountyId",
          "type": "string"
        }
      ],
      "name": "claimToken",
      "outputs": [
        {
          "internalType": "uint256",
          "name": "",
          "type": "uint256"
        }
      ],
      "stateMutability": "nonpayable",
      "type": "function"
    },
    {
      "inputs": [
        {
          "internalType": "address",
          "name": "",
          "type": "address"
        },
        {
          "internalType": "string",
          "name": "",
          "type": "string"
        }
      ],
      "name": "claimed",
      "outputs": [
        {
          "internalType": "uint256",
          "name": "",
          "type": "uint256"
        }
      ],
      "stateMutability": "view",
      "type": "function"
    },
    {
      "inputs": [
        {
          "internalType": "string",
          "name": "_bountyId",
          "type": "string"
        },
        {
          "internalType": "string",
          "name": "uri",
          "type": "string"
        },
        {
          "internalType": "uint128",
          "name": "_tokenLimit",
          "type": "uint128"
        },
        {
          "internalType": "uint256[]",
          "name": "_rewards",
          "type": "uint256[]"
        },
        {
          "internalType": "uint256",
          "name": "_endTime",
          "type": "uint256"
        }
      ],
      "name": "createBounty",
      "outputs": [],
      "stateMutability": "nonpayable",
      "type": "function"
    },
    {
      "inputs": [
        {
          "internalType": "uint256",
          "name": "tokenId",
          "type": "uint256"
        }
      ],
      "name": "getApproved",
      "outputs": [
        {
          "internalType": "address",
          "name": "",
          "type": "address"
        }
      ],
      "stateMutability": "view",
      "type": "function"
    },
    {
      "inputs": [
        {
          "internalType": "string",
          "name": "_bountyId",
          "type": "string"
        }
      ],
      "name": "getBountyAdmin",
      "outputs": [
        {
          "internalType": "address",
          "name": "",
          "type": "address"
        }
      ],
      "stateMutability": "view",
      "type": "function"
    },
    {
      "inputs": [
        {
          "internalType": "address",
          "name": "owner",
          "type": "address"
        },
        {
          "internalType": "address",
          "name": "operator",
          "type": "address"
        }
      ],
      "name": "isApprovedForAll",
      "outputs": [
        {
          "internalType": "bool",
          "name": "",
          "type": "bool"
        }
      ],
      "stateMutability": "view",
      "type": "function"
    },
    {
      "inputs": [],
      "name": "name",
      "outputs": [
        {
          "internalType": "string",
          "name": "",
          "type": "string"
        }
      ],
      "stateMutability": "view",
      "type": "function"
    },
    {
      "inputs": [],
      "name": "open",
      "outputs": [
        {
          "internalType": "bool",
          "name": "",
          "type": "bool"
        }
      ],
      "stateMutability": "view",
      "type": "function"
    },
    {
      "inputs": [
        {
          "internalType": "bool",
          "name": "_isOpen",
          "type": "bool"
        }
      ],
      "name": "openToPublic",
      "outputs": [],
      "stateMutability": "nonpayable",
      "type": "function"
    },
    {
      "inputs": [],
      "name": "owner",
      "outputs": [
        {
          "internalType": "address",
          "name": "",
          "type": "address"
        }
      ],
      "stateMutability": "view",
      "type": "function"
    },
    {
      "inputs": [
        {
          "internalType": "uint256",
          "name": "tokenId",
          "type": "uint256"
        }
      ],
      "name": "ownerOf",
      "outputs": [
        {
          "internalType": "address",
          "name": "",
          "type": "address"
        }
      ],
      "stateMutability": "view",
      "type": "function"
    },
    {
      "inputs": [],
      "name": "renounceOwnership",
      "outputs": [],
      "stateMutability": "nonpayable",
      "type": "function"
    },
    {
      "inputs": [
        {
          "internalType": "string",
          "name": "",
          "type": "string"
        },
        {
          "internalType": "uint256",
          "name": "",
          "type": "uint256"
        }
      ],
      "name": "rewards",
      "outputs": [
        {
          "internalType": "uint256",
          "name": "",
          "type": "uint256"
        }
      ],
      "stateMutability": "view",
      "type": "function"
    },
    {
      "inputs": [
        {
          "internalType": "address",
          "name": "from",
          "type": "address"
        },
        {
          "internalType": "address",
          "name": "to",
          "type": "address"
        },
        {
          "internalType": "uint256",
          "name": "tokenId",
          "type": "uint256"
        }
      ],
      "name": "safeTransferFrom",
      "outputs": [],
      "stateMutability": "nonpayable",
      "type": "function"
    },
    {
      "inputs": [
        {
          "internalType": "address",
          "name": "from",
          "type": "address"
        },
        {
          "internalType": "address",
          "name": "to",
          "type": "address"
        },
        {
          "internalType": "uint256",
          "name": "tokenId",
          "type": "uint256"
        },
        {
          "internalType": "bytes",
          "name": "_data",
          "type": "bytes"
        }
      ],
      "name": "safeTransferFrom",
      "outputs": [],
      "stateMutability": "nonpayable",
      "type": "function"
    },
    {
      "inputs": [
        {
          "internalType": "address",
          "name": "operator",
          "type": "address"
        },
        {
          "internalType": "bool",
          "name": "approved",
          "type": "bool"
        }
      ],
      "name": "setApprovalForAll",
      "outputs": [],
      "stateMutability": "nonpayable",
      "type": "function"
    },
    {
      "inputs": [
        {
          "internalType": "string",
          "name": "_bountyId",
          "type": "string"
        },
        {
          "internalType": "address[]",
          "name": "_winners",
          "type": "address[]"
        }
      ],
      "name": "setBountyWinners",
      "outputs": [],
      "stateMutability": "nonpayable",
      "type": "function"
    },
    {
      "inputs": [
        {
          "internalType": "bytes4",
          "name": "interfaceId",
          "type": "bytes4"
        }
      ],
      "name": "supportsInterface",
      "outputs": [
        {
          "internalType": "bool",
          "name": "",
          "type": "bool"
        }
      ],
      "stateMutability": "view",
      "type": "function"
    },
    {
      "inputs": [],
      "name": "symbol",
      "outputs": [
        {
          "internalType": "string",
          "name": "",
          "type": "string"
        }
      ],
      "stateMutability": "view",
      "type": "function"
    },
    {
      "inputs": [],
      "name": "token",
      "outputs": [
        {
          "internalType": "contract IERC20",
          "name": "",
          "type": "address"
        }
      ],
      "stateMutability": "view",
      "type": "function"
    },
    {
      "inputs": [
        {
          "internalType": "uint256",
          "name": "tokenId",
          "type": "uint256"
        }
      ],
      "name": "tokenURI",
      "outputs": [
        {
          "internalType": "string",
          "name": "",
          "type": "string"
        }
      ],
      "stateMutability": "view",
      "type": "function"
    },
    {
      "inputs": [
        {
          "internalType": "address",
          "name": "from",
          "type": "address"
        },
        {
          "internalType": "address",
          "name": "to",
          "type": "address"
        },
        {
          "internalType": "uint256",
          "name": "tokenId",
          "type": "uint256"
        }
      ],
      "name": "transferFrom",
      "outputs": [],
      "stateMutability": "nonpayable",
      "type": "function"
    },
    {
      "inputs": [
        {
          "internalType": "address",
          "name": "newOwner",
          "type": "address"
        }
      ],
      "name": "transferOwnership",
      "outputs": [],
      "stateMutability": "nonpayable",
      "type": "function"
    },
    {
      "inputs": [
        {
          "internalType": "address",
          "name": "_admin",
          "type": "address"
        },
        {
          "internalType": "bool",
          "name": "isAdmin",
          "type": "bool"
        }
      ],
      "name": "updateAdmin",
      "outputs": [],
      "stateMutability": "nonpayable",
      "type": "function"
    },
    {
      "inputs": [
        {
          "internalType": "address",
          "name": "",
          "type": "address"
        },
        {
          "internalType": "string",
          "name": "",
          "type": "string"
        }
      ],
      "name": "winners",
      "outputs": [
        {
          "internalType": "uint128",
          "name": "",
          "type": "uint128"
        }
      ],
      "stateMutability": "view",
      "type": "function"
    },
    {
      "stateMutability": "payable",
      "type": "receive"
    }
  ],
  "bytecode": "0x60806040523480156200001157600080fd5b506040516200631838038062006318833981810160405281019062000037919062000374565b6040518060400160405280600b81526020017f626f756e74794d616b65720000000000000000000000000000000000000000008152506040518060400160405280600b81526020017f424f554e54594d414b45520000000000000000000000000000000000000000008152508160009080519060200190620000bb929190620002ad565b508060019080519060200190620000d4929190620002ad565b505050620000f7620000eb620001c960201b60201c565b620001d160201b60201c565b6001600a60003373ffffffffffffffffffffffffffffffffffffffff1673ffffffffffffffffffffffffffffffffffffffff16815260200190815260200160002060006101000a81548160ff02191690831515021790555080600e60006101000a81548173ffffffffffffffffffffffffffffffffffffffff021916908373ffffffffffffffffffffffffffffffffffffffff1602179055506001600e60146101000a81548160ff021916908315150217905550620001c2600f6200029760201b62001fd71760201c565b5062000467565b600033905090565b6000600760009054906101000a900473ffffffffffffffffffffffffffffffffffffffff16905081600760006101000a81548173ffffffffffffffffffffffffffffffffffffffff021916908373ffffffffffffffffffffffffffffffffffffffff1602179055508173ffffffffffffffffffffffffffffffffffffffff168173ffffffffffffffffffffffffffffffffffffffff167f8be0079c531659141344cd1fd0a4f28419497f9722a3daafe3b4186f6b6457e060405160405180910390a35050565b6001816000016000828254019250508190555050565b828054620002bb90620003e8565b90600052602060002090601f016020900481019282620002df57600085556200032b565b82601f10620002fa57805160ff19168380011785556200032b565b828001600101855582156200032b579182015b828111156200032a5782518255916020019190600101906200030d565b5b5090506200033a91906200033e565b5090565b5b80821115620003595760008160009055506001016200033f565b5090565b6000815190506200036e816200044d565b92915050565b6000602082840312156200038757600080fd5b600062000397848285016200035d565b91505092915050565b6000620003ad82620003c8565b9050919050565b6000620003c182620003a0565b9050919050565b600073ffffffffffffffffffffffffffffffffffffffff82169050919050565b600060028204905060018216806200040157607f821691505b602082108114156200041857620004176200041e565b5b50919050565b7f4e487b7100000000000000000000000000000000000000000000000000000000600052602260045260246000fd5b6200045881620003b4565b81146200046457600080fd5b50565b615ea180620004776000396000f3fe6080604052600436106101d15760003560e01c806375621cdd116100f7578063d44b87d111610095578063ebeccacc11610064578063ebeccacc14610716578063f2fde38b1461073f578063fc0c546a14610768578063fcfff16f14610793576101d8565b8063d44b87d114610636578063dbc1910214610673578063e1204cbc146106b0578063e985e9c5146106d9576101d8565b8063a22cb465116100d1578063a22cb4651461056a578063b7ce9bc014610593578063b88d4fde146105d0578063c87b56dd146105f9576101d8565b806375621cdd146104d45780638da5cb5b1461051457806395d89b411461053f576101d8565b806332d707351161016f5780636352211e1161013e5780636352211e1461041a578063670a6fd91461045757806370a0823114610480578063715018a6146104bd576101d8565b806332d707351461033a57806342842e0e146103775780635947b86e146103a05780635bc0ceb1146103dd576101d8565b8063081812fc116101ab578063081812fc1461026e578063095ea7b3146102ab578063163cf2e3146102d457806323b872dd14610311576101d8565b806301ffc9a7146101dd578063034a7c501461021a57806306fdde0314610243576101d8565b366101d857005b600080fd5b3480156101e957600080fd5b5061020460048036038101906101ff919061420f565b6107be565b6040516102119190614c12565b60405180910390f35b34801561022657600080fd5b50610241600480360381019061023c91906142f6565b6108a0565b005b34801561024f57600080fd5b50610258610c57565b6040516102659190614c48565b60405180910390f35b34801561027a57600080fd5b5061029560048036038101906102909190614475565b610ce9565b6040516102a29190614b22565b60405180910390f35b3480156102b757600080fd5b506102d260048036038101906102cd9190614181565b610d6e565b005b3480156102e057600080fd5b506102fb60048036038101906102f691906142a2565b610e86565b60405161030891906150cb565b60405180910390f35b34801561031d57600080fd5b5061033860048036038101906103339190614027565b610f0e565b005b34801561034657600080fd5b50610361600480360381019061035c9190613fc2565b610f6e565b60405161036e9190614c12565b60405180910390f35b34801561038357600080fd5b5061039e60048036038101906103999190614027565b610fc4565b005b3480156103ac57600080fd5b506103c760048036038101906103c29190614261565b610fe4565b6040516103d49190614b22565b60405180910390f35b3480156103e957600080fd5b5061040460048036038101906103ff9190614421565b61102c565b60405161041191906150cb565b60405180910390f35b34801561042657600080fd5b50610441600480360381019061043c9190614475565b611073565b60405161044e9190614b22565b60405180910390f35b34801561046357600080fd5b5061047e600480360381019061047991906140f1565b611125565b005b34801561048c57600080fd5b506104a760048036038101906104a29190613fc2565b6111fc565b6040516104b491906150cb565b60405180910390f35b3480156104c957600080fd5b506104d26112b4565b005b3480156104e057600080fd5b506104fb60048036038101906104f69190614261565b61133c565b60405161050b9493929190614cd8565b60405180910390f35b34801561052057600080fd5b50610529611433565b6040516105369190614b22565b60405180910390f35b34801561054b57600080fd5b5061055461145d565b6040516105619190614c48565b60405180910390f35b34801561057657600080fd5b50610591600480360381019061058c91906140f1565b6114ef565b005b34801561059f57600080fd5b506105ba60048036038101906105b59190614261565b611505565b6040516105c791906150cb565b60405180910390f35b3480156105dc57600080fd5b506105f760048036038101906105f29190614076565b61151a565b005b34801561060557600080fd5b50610620600480360381019061061b9190614475565b61157c565b60405161062d9190614c48565b60405180910390f35b34801561064257600080fd5b5061065d6004803603810190610658919061412d565b6116ce565b60405161066a91906150b0565b60405180910390f35b34801561067f57600080fd5b5061069a6004803603810190610695919061412d565b611722565b6040516106a791906150cb565b60405180910390f35b3480156106bc57600080fd5b506106d760048036038101906106d291906141bd565b61175d565b005b3480156106e557600080fd5b5061070060048036038101906106fb9190613feb565b6117f6565b60405161070d9190614c12565b60405180910390f35b34801561072257600080fd5b5061073d60048036038101906107389190614362565b61188a565b005b34801561074b57600080fd5b5061076660048036038101906107619190613fc2565b611ea6565b005b34801561077457600080fd5b5061077d611f9e565b60405161078a9190614c2d565b60405180910390f35b34801561079f57600080fd5b506107a8611fc4565b6040516107b59190614c12565b60405180910390f35b60007f80ac58cd000000000000000000000000000000000000000000000000000000007bffffffffffffffffffffffffffffffffffffffffffffffffffffffff1916827bffffffffffffffffffffffffffffffffffffffffffffffffffffffff1916148061088957507f5b5e139f000000000000000000000000000000000000000000000000000000007bffffffffffffffffffffffffffffffffffffffffffffffffffffffff1916827bffffffffffffffffffffffffffffffffffffffffffffffffffffffff1916145b80610899575061089882611fed565b5b9050919050565b600e60149054906101000a900460ff166109125760011515600a60003373ffffffffffffffffffffffffffffffffffffffff1673ffffffffffffffffffffffffffffffffffffffff16815260200190815260200160002060009054906101000a900460ff1615151461091157600080fd5b5b600b826040516109229190614ab8565b908152602001604051809103902060010160109054906101000a900460ff16610980576040517f08c379a000000000000000000000000000000000000000000000000000000000815260040161097790615030565b60405180910390fd5b8051600b836040516109929190614ab8565b908152602001604051809103902060010160009054906101000a90046fffffffffffffffffffffffffffffffff166fffffffffffffffffffffffffffffffff1614610a12576040517f08c379a0000000000000000000000000000000000000000000000000000000008152600401610a0990615030565b60405180910390fd5b3373ffffffffffffffffffffffffffffffffffffffff16600c83604051610a399190614ab8565b908152602001604051809103902060009054906101000a900473ffffffffffffffffffffffffffffffffffffffff1673ffffffffffffffffffffffffffffffffffffffff1614610abe576040517f08c379a0000000000000000000000000000000000000000000000000000000008152600401610ab590615030565b60405180910390fd5b60005b8151816fffffffffffffffffffffffffffffffff161015610bdf57600181610ae99190615285565b6009600084846fffffffffffffffffffffffffffffffff1681518110610b38577f4e487b7100000000000000000000000000000000000000000000000000000000600052603260045260246000fd5b602002602001015173ffffffffffffffffffffffffffffffffffffffff1673ffffffffffffffffffffffffffffffffffffffff16815260200190815260200160002084604051610b889190614ab8565b908152602001604051809103902060006101000a8154816fffffffffffffffffffffffffffffffff02191690836fffffffffffffffffffffffffffffffff1602179055508080610bd79061556e565b915050610ac1565b506000600b83604051610bf29190614ab8565b908152602001604051809103902060010160106101000a81548160ff0219169083151502179055507fbcfc57f228563954707799d8c6d3a1e8935a2b6ac05de8cea23be4ba760595058282604051610c4b929190614c6a565b60405180910390a15050565b606060008054610c669061550b565b80601f0160208091040260200160405190810160405280929190818152602001828054610c929061550b565b8015610cdf5780601f10610cb457610100808354040283529160200191610cdf565b820191906000526020600020905b815481529060010190602001808311610cc257829003601f168201915b5050505050905090565b6000610cf482612057565b610d33576040517f08c379a0000000000000000000000000000000000000000000000000000000008152600401610d2a90614f70565b60405180910390fd5b6004600083815260200190815260200160002060009054906101000a900473ffffffffffffffffffffffffffffffffffffffff169050919050565b6000610d7982611073565b90508073ffffffffffffffffffffffffffffffffffffffff168373ffffffffffffffffffffffffffffffffffffffff161415610dea576040517f08c379a0000000000000000000000000000000000000000000000000000000008152600401610de190615010565b60405180910390fd5b8073ffffffffffffffffffffffffffffffffffffffff16610e096120c3565b73ffffffffffffffffffffffffffffffffffffffff161480610e385750610e3781610e326120c3565b6117f6565b5b610e77576040517f08c379a0000000000000000000000000000000000000000000000000000000008152600401610e6e90614eb0565b60405180910390fd5b610e8183836120cb565b505050565b6000600e60149054906101000a900460ff16610efa5760011515600a60003373ffffffffffffffffffffffffffffffffffffffff1673ffffffffffffffffffffffffffffffffffffffff16815260200190815260200160002060009054906101000a900460ff16151514610ef957600080fd5b5b610f0683836001612184565b905092915050565b610f1f610f196120c3565b826125c3565b610f5e576040517f08c379a0000000000000000000000000000000000000000000000000000000008152600401610f5590615050565b60405180910390fd5b610f698383836126a1565b505050565b6000600a60008373ffffffffffffffffffffffffffffffffffffffff1673ffffffffffffffffffffffffffffffffffffffff16815260200190815260200160002060009054906101000a900460ff169050919050565b610fdf8383836040518060200160405280600081525061151a565b505050565b6000600c82604051610ff69190614ab8565b908152602001604051809103902060009054906101000a900473ffffffffffffffffffffffffffffffffffffffff169050919050565b600d82805160208101820180518482526020830160208501208183528095505050505050818154811061105e57600080fd5b90600052602060002001600091509150505481565b6000806002600084815260200190815260200160002060009054906101000a900473ffffffffffffffffffffffffffffffffffffffff169050600073ffffffffffffffffffffffffffffffffffffffff168173ffffffffffffffffffffffffffffffffffffffff16141561111c576040517f08c379a000000000000000000000000000000000000000000000000000000000815260040161111390614ef0565b60405180910390fd5b80915050919050565b61112d6120c3565b73ffffffffffffffffffffffffffffffffffffffff1661114b611433565b73ffffffffffffffffffffffffffffffffffffffff16146111a1576040517f08c379a000000000000000000000000000000000000000000000000000000000815260040161119890614fb0565b60405180910390fd5b80600a60008473ffffffffffffffffffffffffffffffffffffffff1673ffffffffffffffffffffffffffffffffffffffff16815260200190815260200160002060006101000a81548160ff0219169083151502179055505050565b60008073ffffffffffffffffffffffffffffffffffffffff168273ffffffffffffffffffffffffffffffffffffffff16141561126d576040517f08c379a000000000000000000000000000000000000000000000000000000000815260040161126490614ed0565b60405180910390fd5b600360008373ffffffffffffffffffffffffffffffffffffffff1673ffffffffffffffffffffffffffffffffffffffff168152602001908152602001600020549050919050565b6112bc6120c3565b73ffffffffffffffffffffffffffffffffffffffff166112da611433565b73ffffffffffffffffffffffffffffffffffffffff1614611330576040517f08c379a000000000000000000000000000000000000000000000000000000000815260040161132790614fb0565b60405180910390fd5b61133a6000612908565b565b600b818051602081018201805184825260208301602085012081835280955050505050506000915090508060000180546113759061550b565b80601f01602080910402602001604051908101604052809291908181526020018280546113a19061550b565b80156113ee5780601f106113c3576101008083540402835291602001916113ee565b820191906000526020600020905b8154815290600101906020018083116113d157829003601f168201915b5050505050908060010160009054906101000a90046fffffffffffffffffffffffffffffffff16908060010160109054906101000a900460ff16908060020154905084565b6000600760009054906101000a900473ffffffffffffffffffffffffffffffffffffffff16905090565b60606001805461146c9061550b565b80601f01602080910402602001604051908101604052809291908181526020018280546114989061550b565b80156114e55780601f106114ba576101008083540402835291602001916114e5565b820191906000526020600020905b8154815290600101906020018083116114c857829003601f168201915b5050505050905090565b6115016114fa6120c3565b83836129ce565b5050565b600061151382336000612184565b9050919050565b61152b6115256120c3565b836125c3565b61156a576040517f08c379a000000000000000000000000000000000000000000000000000000000815260040161156190615050565b60405180910390fd5b61157684848484612b3b565b50505050565b606061158782612057565b6115c6576040517f08c379a00000000000000000000000000000000000000000000000000000000081526004016115bd90614f50565b60405180910390fd5b60006006600084815260200190815260200160002080546115e69061550b565b80601f01602080910402602001604051908101604052809291908181526020018280546116129061550b565b801561165f5780601f106116345761010080835404028352916020019161165f565b820191906000526020600020905b81548152906001019060200180831161164257829003601f168201915b505050505090506000611670612b97565b90506000815114156116865781925050506116c9565b6000825111156116bb5780826040516020016116a3929190614acf565b604051602081830303815290604052925050506116c9565b6116c484612bae565b925050505b919050565b6009602052816000526040600020818051602081018201805184825260208301602085012081835280955050505050506000915091509054906101000a90046fffffffffffffffffffffffffffffffff1681565b600860205281600052604060002081805160208101820180518482526020830160208501208183528095505050505050600091509150505481565b6117656120c3565b73ffffffffffffffffffffffffffffffffffffffff16611783611433565b73ffffffffffffffffffffffffffffffffffffffff16146117d9576040517f08c379a00000000000000000000000000000000000000000000000000000000081526004016117d090614fb0565b60405180910390fd5b80600e60146101000a81548160ff02191690831515021790555050565b6000600560008473ffffffffffffffffffffffffffffffffffffffff1673ffffffffffffffffffffffffffffffffffffffff16815260200190815260200160002060008373ffffffffffffffffffffffffffffffffffffffff1673ffffffffffffffffffffffffffffffffffffffff16815260200190815260200160002060009054906101000a900460ff16905092915050565b600e60149054906101000a900460ff166118fc5760011515600a60003373ffffffffffffffffffffffffffffffffffffffff1673ffffffffffffffffffffffffffffffffffffffff16815260200190815260200160002060009054906101000a900460ff161515146118fb57600080fd5b5b42811161193e576040517f08c379a000000000000000000000000000000000000000000000000000000000815260040161193590615030565b60405180910390fd5b6000600b866040516119509190614ab8565b908152602001604051809103902060010160009054906101000a90046fffffffffffffffffffffffffffffffff166fffffffffffffffffffffffffffffffff16146119d0576040517f08c379a00000000000000000000000000000000000000000000000000000000081526004016119c790615030565b60405180910390fd5b6000836fffffffffffffffffffffffffffffffff1611611a25576040517f08c379a0000000000000000000000000000000000000000000000000000000008152600401611a1c90615030565b60405180910390fd5b8151836fffffffffffffffffffffffffffffffff161015611a7b576040517f08c379a0000000000000000000000000000000000000000000000000000000008152600401611a7290615030565b60405180910390fd5b6000805b8351811015611ae957838181518110611ac1577f4e487b7100000000000000000000000000000000000000000000000000000000600052603260045260246000fd5b602002602001015182611ad491906152cb565b91508080611ae1906155a7565b915050611a7f565b50600e60009054906101000a900473ffffffffffffffffffffffffffffffffffffffff1673ffffffffffffffffffffffffffffffffffffffff166370a08231336040518263ffffffff1660e01b8152600401611b459190614b22565b60206040518083038186803b158015611b5d57600080fd5b505afa158015611b71573d6000803e3d6000fd5b505050506040513d601f19601f82011682018060405250810190611b95919061449e565b8110611bd6576040517f08c379a0000000000000000000000000000000000000000000000000000000008152600401611bcd90614e90565b60405180910390fd5b600e60009054906101000a900473ffffffffffffffffffffffffffffffffffffffff1673ffffffffffffffffffffffffffffffffffffffff1663dd62ed3e33306040518363ffffffff1660e01b8152600401611c33929190614b3d565b60206040518083038186803b158015611c4b57600080fd5b505afa158015611c5f573d6000803e3d6000fd5b505050506040513d601f19601f82011682018060405250810190611c83919061449e565b8110611cc4576040517f08c379a0000000000000000000000000000000000000000000000000000000008152600401611cbb90614ff0565b60405180910390fd5b611cf2600e60009054906101000a900473ffffffffffffffffffffffffffffffffffffffff16333084612c55565b60006040518060800160405280878152602001866fffffffffffffffffffffffffffffffff16815260200160011515815260200184815250905033600c88604051611d3d9190614ab8565b908152602001604051809103902060006101000a81548173ffffffffffffffffffffffffffffffffffffffff021916908373ffffffffffffffffffffffffffffffffffffffff16021790555083600d88604051611d9a9190614ab8565b90815260200160405180910390209080519060200190611dbb929190613c2e565b5080600b88604051611dcd9190614ab8565b90815260200160405180910390206000820151816000019080519060200190611df7929190613c7b565b5060208201518160010160006101000a8154816fffffffffffffffffffffffffffffffff02191690836fffffffffffffffffffffffffffffffff16021790555060408201518160010160106101000a81548160ff021916908315150217905550606082015181600201559050507fa310019f6fd75fa5b16ca49a8a2b046f9b872fa6d6ea4ef1e35fb3e4cf9adec88785604051611e95929190614ca1565b60405180910390a150505050505050565b611eae6120c3565b73ffffffffffffffffffffffffffffffffffffffff16611ecc611433565b73ffffffffffffffffffffffffffffffffffffffff1614611f22576040517f08c379a0000000000000000000000000000000000000000000000000000000008152600401611f1990614fb0565b60405180910390fd5b600073ffffffffffffffffffffffffffffffffffffffff168173ffffffffffffffffffffffffffffffffffffffff161415611f92576040517f08c379a0000000000000000000000000000000000000000000000000000000008152600401611f8990614db0565b60405180910390fd5b611f9b81612908565b50565b600e60009054906101000a900473ffffffffffffffffffffffffffffffffffffffff1681565b600e60149054906101000a900460ff1681565b6001816000016000828254019250508190555050565b60007f01ffc9a7000000000000000000000000000000000000000000000000000000007bffffffffffffffffffffffffffffffffffffffffffffffffffffffff1916827bffffffffffffffffffffffffffffffffffffffffffffffffffffffff1916149050919050565b60008073ffffffffffffffffffffffffffffffffffffffff166002600084815260200190815260200160002060009054906101000a900473ffffffffffffffffffffffffffffffffffffffff1673ffffffffffffffffffffffffffffffffffffffff1614159050919050565b600033905090565b816004600083815260200190815260200160002060006101000a81548173ffffffffffffffffffffffffffffffffffffffff021916908373ffffffffffffffffffffffffffffffffffffffff160217905550808273ffffffffffffffffffffffffffffffffffffffff1661213e83611073565b73ffffffffffffffffffffffffffffffffffffffff167f8c5be1e5ebec7d5bd14f71427d1e84f3dd0314c0f7b2291e5b200ac8c7c3b92560405160405180910390a45050565b60008383600b826040516121989190614ab8565b908152602001604051809103902060010160109054906101000a900460ff16156121c157600080fd5b6000600960008373ffffffffffffffffffffffffffffffffffffffff1673ffffffffffffffffffffffffffffffffffffffff168152602001908152602001600020836040516122109190614ab8565b908152602001604051809103902060009054906101000a90046fffffffffffffffffffffffffffffffff166fffffffffffffffffffffffffffffffff161161225757600080fd5b6000600860008373ffffffffffffffffffffffffffffffffffffffff1673ffffffffffffffffffffffffffffffffffffffff168152602001908152602001600020836040516122a69190614ab8565b908152602001604051809103902054146122bf57600080fd5b6000600960008773ffffffffffffffffffffffffffffffffffffffff1673ffffffffffffffffffffffffffffffffffffffff1681526020019081526020016000208760405161230e9190614ab8565b908152602001604051809103902060009054906101000a90046fffffffffffffffffffffffffffffffff1690506000600b8860405161234d9190614ab8565b908152602001604051809103902060000180546123699061550b565b80601f01602080910402602001604051908101604052809291908181526020018280546123959061550b565b80156123e25780601f106123b7576101008083540402835291602001916123e2565b820191906000526020600020905b8154815290600101906020018083116123c557829003601f168201915b505050505090506000816123f584612cde565b604051602001612406929190614af3565b60405160208183030381529060405290506000612423600f612eeb565b905080600860008b73ffffffffffffffffffffffffffffffffffffffff1673ffffffffffffffffffffffffffffffffffffffff1681526020019081526020016000208b6040516124739190614ab8565b90815260200160405180910390208190555061248f8982612ef9565b8873ffffffffffffffffffffffffffffffffffffffff167f436ed5ad57b88689854d2b756b16ffc1e461f71b9c88bc4316a6b58e9d7fc8098b86848c6040516124db9493929190614d24565b60405180910390a26124ed8183612f17565b6124f7600f611fd7565b600d8a6040516125079190614ab8565b908152602001604051809103902080549050600960008b73ffffffffffffffffffffffffffffffffffffffff1673ffffffffffffffffffffffffffffffffffffffff1681526020019081526020016000208b6040516125669190614ab8565b908152602001604051809103902060009054906101000a90046fffffffffffffffffffffffffffffffff166fffffffffffffffffffffffffffffffff16116125b3576125b2898b612f8b565b5b8096505050505050509392505050565b60006125ce82612057565b61260d576040517f08c379a000000000000000000000000000000000000000000000000000000000815260040161260490614e70565b60405180910390fd5b600061261883611073565b90508073ffffffffffffffffffffffffffffffffffffffff168473ffffffffffffffffffffffffffffffffffffffff16148061268757508373ffffffffffffffffffffffffffffffffffffffff1661266f84610ce9565b73ffffffffffffffffffffffffffffffffffffffff16145b80612698575061269781856117f6565b5b91505092915050565b8273ffffffffffffffffffffffffffffffffffffffff166126c182611073565b73ffffffffffffffffffffffffffffffffffffffff1614612717576040517f08c379a000000000000000000000000000000000000000000000000000000000815260040161270e90614dd0565b60405180910390fd5b600073ffffffffffffffffffffffffffffffffffffffff168273ffffffffffffffffffffffffffffffffffffffff161415612787576040517f08c379a000000000000000000000000000000000000000000000000000000000815260040161277e90614e10565b60405180910390fd5b6127928383836133a8565b61279d6000826120cb565b6001600360008573ffffffffffffffffffffffffffffffffffffffff1673ffffffffffffffffffffffffffffffffffffffff16815260200190815260200160002060008282546127ed91906153b7565b925050819055506001600360008473ffffffffffffffffffffffffffffffffffffffff1673ffffffffffffffffffffffffffffffffffffffff168152602001908152602001600020600082825461284491906152cb565b92505081905550816002600083815260200190815260200160002060006101000a81548173ffffffffffffffffffffffffffffffffffffffff021916908373ffffffffffffffffffffffffffffffffffffffff160217905550808273ffffffffffffffffffffffffffffffffffffffff168473ffffffffffffffffffffffffffffffffffffffff167fddf252ad1be2c89b69c2b068fc378daa952ba7f163c4a11628f55a4df523b3ef60405160405180910390a46129038383836133ad565b505050565b6000600760009054906101000a900473ffffffffffffffffffffffffffffffffffffffff16905081600760006101000a81548173ffffffffffffffffffffffffffffffffffffffff021916908373ffffffffffffffffffffffffffffffffffffffff1602179055508173ffffffffffffffffffffffffffffffffffffffff168173ffffffffffffffffffffffffffffffffffffffff167f8be0079c531659141344cd1fd0a4f28419497f9722a3daafe3b4186f6b6457e060405160405180910390a35050565b8173ffffffffffffffffffffffffffffffffffffffff168373ffffffffffffffffffffffffffffffffffffffff161415612a3d576040517f08c379a0000000000000000000000000000000000000000000000000000000008152600401612a3490614e30565b60405180910390fd5b80600560008573ffffffffffffffffffffffffffffffffffffffff1673ffffffffffffffffffffffffffffffffffffffff16815260200190815260200160002060008473ffffffffffffffffffffffffffffffffffffffff1673ffffffffffffffffffffffffffffffffffffffff16815260200190815260200160002060006101000a81548160ff0219169083151502179055508173ffffffffffffffffffffffffffffffffffffffff168373ffffffffffffffffffffffffffffffffffffffff167f17307eab39ab6107e8899845ad3d59bd9653f200f220920489ca2b5937696c3183604051612b2e9190614c12565b60405180910390a3505050565b612b468484846126a1565b612b52848484846133b2565b612b91576040517f08c379a0000000000000000000000000000000000000000000000000000000008152600401612b8890614d90565b60405180910390fd5b50505050565b606060405180602001604052806000815250905090565b6060612bb982612057565b612bf8576040517f08c379a0000000000000000000000000000000000000000000000000000000008152600401612bef90614fd0565b60405180910390fd5b6000612c02612b97565b90506000815111612c225760405180602001604052806000815250612c4d565b80612c2c84613549565b604051602001612c3d929190614acf565b6040516020818303038152906040525b915050919050565b612cd8846323b872dd60e01b858585604051602401612c7693929190614b66565b604051602081830303815290604052907bffffffffffffffffffffffffffffffffffffffffffffffffffffffff19166020820180517bffffffffffffffffffffffffffffffffffffffffffffffffffffffff83818316178352505050506136f6565b50505050565b60606000826fffffffffffffffffffffffffffffffff161415612d38576040518060400160405280600181526020017f30000000000000000000000000000000000000000000000000000000000000008152509050612ee6565b600082905060005b6000826fffffffffffffffffffffffffffffffff1614612d7c578080612d659061556e565b915050600a82612d759190615321565b9150612d40565b6000816fffffffffffffffffffffffffffffffff1667ffffffffffffffff811115612dd0577f4e487b7100000000000000000000000000000000000000000000000000000000600052604160045260246000fd5b6040519080825280601f01601f191660200182016040528015612e025781602001600182028036833780820191505090505b50905060008290508593505b6000846fffffffffffffffffffffffffffffffff1614612ede57600a84612e3591906155f0565b6030612e419190615285565b60f81b8282612e4f906154e1565b9250826fffffffffffffffffffffffffffffffff1681518110612e9b577f4e487b7100000000000000000000000000000000000000000000000000000000600052603260045260246000fd5b60200101907effffffffffffffffffffffffffffffffffffffffffffffffffffffffffffff1916908160001a905350600a84612ed79190615321565b9350612e0e565b819450505050505b919050565b600081600001549050919050565b612f138282604051806020016040528060008152506137bd565b5050565b612f2082612057565b612f5f576040517f08c379a0000000000000000000000000000000000000000000000000000000008152600401612f5690614f10565b60405180910390fd5b80600660008481526020019081526020016000209080519060200190612f86929190613c7b565b505050565b8082600d82604051612f9d9190614ab8565b908152602001604051809103902080549050600960008373ffffffffffffffffffffffffffffffffffffffff1673ffffffffffffffffffffffffffffffffffffffff16815260200190815260200160002083604051612ffc9190614ab8565b908152602001604051809103902060009054906101000a90046fffffffffffffffffffffffffffffffff166fffffffffffffffffffffffffffffffff16111561304457600080fd5b6000600d846040516130569190614ab8565b90815260200160405180910390206001600960008873ffffffffffffffffffffffffffffffffffffffff1673ffffffffffffffffffffffffffffffffffffffff168152602001908152602001600020866040516130b39190614ab8565b908152602001604051809103902060009054906101000a90046fffffffffffffffffffffffffffffffff166130e89190615383565b6fffffffffffffffffffffffffffffffff1681548110613131577f4e487b7100000000000000000000000000000000000000000000000000000000600052603260045260246000fd5b906000526020600020015490506000811415613182576040517f08c379a000000000000000000000000000000000000000000000000000000000815260040161317990614d70565b60405180910390fd5b600e60009054906101000a900473ffffffffffffffffffffffffffffffffffffffff1673ffffffffffffffffffffffffffffffffffffffff166370a08231306040518263ffffffff1660e01b81526004016131dd9190614b22565b60206040518083038186803b1580156131f557600080fd5b505afa158015613209573d6000803e3d6000fd5b505050506040513d601f19601f8201168201806040525081019061322d919061449e565b81111561326f576040517f08c379a000000000000000000000000000000000000000000000000000000000815260040161326690614f90565b60405180910390fd5b6000600960008773ffffffffffffffffffffffffffffffffffffffff1673ffffffffffffffffffffffffffffffffffffffff168152602001908152602001600020856040516132be9190614ab8565b908152602001604051809103902060006101000a8154816fffffffffffffffffffffffffffffffff02191690836fffffffffffffffffffffffffffffffff16021790555061332f600e60009054906101000a900473ffffffffffffffffffffffffffffffffffffffff168683613818565b600e60009054906101000a900473ffffffffffffffffffffffffffffffffffffffff1673ffffffffffffffffffffffffffffffffffffffff167f3be5b7a71e84ed12875d241991c70855ac5817d847039e17a9d895c1ceb0f18a8683604051613399929190614be9565b60405180910390a25050505050565b505050565b505050565b60006133d38473ffffffffffffffffffffffffffffffffffffffff1661389e565b1561353c578373ffffffffffffffffffffffffffffffffffffffff1663150b7a026133fc6120c3565b8786866040518563ffffffff1660e01b815260040161341e9493929190614b9d565b602060405180830381600087803b15801561343857600080fd5b505af192505050801561346957506040513d601f19601f820116820180604052508101906134669190614238565b60015b6134ec573d8060008114613499576040519150601f19603f3d011682016040523d82523d6000602084013e61349e565b606091505b506000815114156134e4576040517f08c379a00000000000000000000000000000000000000000000000000000000081526004016134db90614d90565b60405180910390fd5b805181602001fd5b63150b7a0260e01b7bffffffffffffffffffffffffffffffffffffffffffffffffffffffff1916817bffffffffffffffffffffffffffffffffffffffffffffffffffffffff191614915050613541565b600190505b949350505050565b60606000821415613591576040518060400160405280600181526020017f300000000000000000000000000000000000000000000000000000000000000081525090506136f1565b600082905060005b600082146135c35780806135ac906155a7565b915050600a826135bc9190615352565b9150613599565b60008167ffffffffffffffff811115613605577f4e487b7100000000000000000000000000000000000000000000000000000000600052604160045260246000fd5b6040519080825280601f01601f1916602001820160405280156136375781602001600182028036833780820191505090505b5090505b600085146136ea5760018261365091906153b7565b9150600a8561365f9190615621565b603061366b91906152cb565b60f81b8183815181106136a7577f4e487b7100000000000000000000000000000000000000000000000000000000600052603260045260246000fd5b60200101907effffffffffffffffffffffffffffffffffffffffffffffffffffffffffffff1916908160001a905350600a856136e39190615352565b945061363b565b8093505050505b919050565b6000613758826040518060400160405280602081526020017f5361666545524332303a206c6f772d6c6576656c2063616c6c206661696c65648152508573ffffffffffffffffffffffffffffffffffffffff166138c19092919063ffffffff16565b90506000815111156137b8578080602001905181019061377891906141e6565b6137b7576040517f08c379a00000000000000000000000000000000000000000000000000000000081526004016137ae90615090565b60405180910390fd5b5b505050565b6137c783836138d9565b6137d460008484846133b2565b613813576040517f08c379a000000000000000000000000000000000000000000000000000000000815260040161380a90614d90565b60405180910390fd5b505050565b6138998363a9059cbb60e01b8484604051602401613837929190614be9565b604051602081830303815290604052907bffffffffffffffffffffffffffffffffffffffffffffffffffffffff19166020820180517bffffffffffffffffffffffffffffffffffffffffffffffffffffffff83818316178352505050506136f6565b505050565b6000808273ffffffffffffffffffffffffffffffffffffffff163b119050919050565b60606138d08484600085613ab3565b90509392505050565b600073ffffffffffffffffffffffffffffffffffffffff168273ffffffffffffffffffffffffffffffffffffffff161415613949576040517f08c379a000000000000000000000000000000000000000000000000000000000815260040161394090614f30565b60405180910390fd5b61395281612057565b15613992576040517f08c379a000000000000000000000000000000000000000000000000000000000815260040161398990614df0565b60405180910390fd5b61399e600083836133a8565b6001600360008473ffffffffffffffffffffffffffffffffffffffff1673ffffffffffffffffffffffffffffffffffffffff16815260200190815260200160002060008282546139ee91906152cb565b92505081905550816002600083815260200190815260200160002060006101000a81548173ffffffffffffffffffffffffffffffffffffffff021916908373ffffffffffffffffffffffffffffffffffffffff160217905550808273ffffffffffffffffffffffffffffffffffffffff16600073ffffffffffffffffffffffffffffffffffffffff167fddf252ad1be2c89b69c2b068fc378daa952ba7f163c4a11628f55a4df523b3ef60405160405180910390a4613aaf600083836133ad565b5050565b606082471015613af8576040517f08c379a0000000000000000000000000000000000000000000000000000000008152600401613aef90614e50565b60405180910390fd5b613b018561389e565b613b40576040517f08c379a0000000000000000000000000000000000000000000000000000000008152600401613b3790615070565b60405180910390fd5b6000808673ffffffffffffffffffffffffffffffffffffffff168587604051613b699190614aa1565b60006040518083038185875af1925050503d8060008114613ba6576040519150601f19603f3d011682016040523d82523d6000602084013e613bab565b606091505b5091509150613bbb828286613bc7565b92505050949350505050565b60608315613bd757829050613c27565b600083511115613bea5782518084602001fd5b816040517f08c379a0000000000000000000000000000000000000000000000000000000008152600401613c1e9190614c48565b60405180910390fd5b9392505050565b828054828255906000526020600020908101928215613c6a579160200282015b82811115613c69578251825591602001919060010190613c4e565b5b509050613c779190613d01565b5090565b828054613c879061550b565b90600052602060002090601f016020900481019282613ca95760008555613cf0565b82601f10613cc257805160ff1916838001178555613cf0565b82800160010185558215613cf0579182015b82811115613cef578251825591602001919060010190613cd4565b5b509050613cfd9190613d01565b5090565b5b80821115613d1a576000816000905550600101613d02565b5090565b6000613d31613d2c8461510b565b6150e6565b90508083825260208201905082856020860282011115613d5057600080fd5b60005b85811015613d805781613d668882613e72565b845260208401935060208301925050600181019050613d53565b5050509392505050565b6000613d9d613d9884615137565b6150e6565b90508083825260208201905082856020860282011115613dbc57600080fd5b60005b85811015613dec5781613dd28882613f98565b845260208401935060208301925050600181019050613dbf565b5050509392505050565b6000613e09613e0484615163565b6150e6565b905082815260208101848484011115613e2157600080fd5b613e2c84828561549f565b509392505050565b6000613e47613e4284615194565b6150e6565b905082815260208101848484011115613e5f57600080fd5b613e6a84828561549f565b509392505050565b600081359050613e8181615df8565b92915050565b600082601f830112613e9857600080fd5b8135613ea8848260208601613d1e565b91505092915050565b600082601f830112613ec257600080fd5b8135613ed2848260208601613d8a565b91505092915050565b600081359050613eea81615e0f565b92915050565b600081519050613eff81615e0f565b92915050565b600081359050613f1481615e26565b92915050565b600081519050613f2981615e26565b92915050565b600082601f830112613f4057600080fd5b8135613f50848260208601613df6565b91505092915050565b600082601f830112613f6a57600080fd5b8135613f7a848260208601613e34565b91505092915050565b600081359050613f9281615e3d565b92915050565b600081359050613fa781615e54565b92915050565b600081519050613fbc81615e54565b92915050565b600060208284031215613fd457600080fd5b6000613fe284828501613e72565b91505092915050565b60008060408385031215613ffe57600080fd5b600061400c85828601613e72565b925050602061401d85828601613e72565b9150509250929050565b60008060006060848603121561403c57600080fd5b600061404a86828701613e72565b935050602061405b86828701613e72565b925050604061406c86828701613f98565b9150509250925092565b6000806000806080858703121561408c57600080fd5b600061409a87828801613e72565b94505060206140ab87828801613e72565b93505060406140bc87828801613f98565b925050606085013567ffffffffffffffff8111156140d957600080fd5b6140e587828801613f2f565b91505092959194509250565b6000806040838503121561410457600080fd5b600061411285828601613e72565b925050602061412385828601613edb565b9150509250929050565b6000806040838503121561414057600080fd5b600061414e85828601613e72565b925050602083013567ffffffffffffffff81111561416b57600080fd5b61417785828601613f59565b9150509250929050565b6000806040838503121561419457600080fd5b60006141a285828601613e72565b92505060206141b385828601613f98565b9150509250929050565b6000602082840312156141cf57600080fd5b60006141dd84828501613edb565b91505092915050565b6000602082840312156141f857600080fd5b600061420684828501613ef0565b91505092915050565b60006020828403121561422157600080fd5b600061422f84828501613f05565b91505092915050565b60006020828403121561424a57600080fd5b600061425884828501613f1a565b91505092915050565b60006020828403121561427357600080fd5b600082013567ffffffffffffffff81111561428d57600080fd5b61429984828501613f59565b91505092915050565b600080604083850312156142b557600080fd5b600083013567ffffffffffffffff8111156142cf57600080fd5b6142db85828601613f59565b92505060206142ec85828601613e72565b9150509250929050565b6000806040838503121561430957600080fd5b600083013567ffffffffffffffff81111561432357600080fd5b61432f85828601613f59565b925050602083013567ffffffffffffffff81111561434c57600080fd5b61435885828601613e87565b9150509250929050565b600080600080600060a0868803121561437a57600080fd5b600086013567ffffffffffffffff81111561439457600080fd5b6143a088828901613f59565b955050602086013567ffffffffffffffff8111156143bd57600080fd5b6143c988828901613f59565b94505060406143da88828901613f83565b935050606086013567ffffffffffffffff8111156143f757600080fd5b61440388828901613eb1565b925050608061441488828901613f98565b9150509295509295909350565b6000806040838503121561443457600080fd5b600083013567ffffffffffffffff81111561444e57600080fd5b61445a85828601613f59565b925050602061446b85828601613f98565b9150509250929050565b60006020828403121561448757600080fd5b600061449584828501613f98565b91505092915050565b6000602082840312156144b057600080fd5b60006144be84828501613fad565b91505092915050565b60006144d383836144f7565b60208301905092915050565b60006144eb8383614a83565b60208301905092915050565b614500816153eb565b82525050565b61450f816153eb565b82525050565b6000614520826151e5565b61452a818561522b565b9350614535836151c5565b8060005b8381101561456657815161454d88826144c7565b975061455883615211565b925050600181019050614539565b5085935050505092915050565b600061457e826151f0565b614588818561523c565b9350614593836151d5565b8060005b838110156145c45781516145ab88826144df565b97506145b68361521e565b925050600181019050614597565b5085935050505092915050565b6145da816153fd565b82525050565b60006145eb826151fb565b6145f5818561524d565b93506146058185602086016154ae565b61460e8161570e565b840191505092915050565b6000614624826151fb565b61462e818561525e565b935061463e8185602086016154ae565b80840191505092915050565b6146538161547b565b82525050565b600061466482615206565b61466e8185615269565b935061467e8185602086016154ae565b6146878161570e565b840191505092915050565b600061469d82615206565b6146a7818561527a565b93506146b78185602086016154ae565b80840191505092915050565b60006146d0602383615269565b91506146db8261571f565b604082019050919050565b60006146f3603283615269565b91506146fe8261576e565b604082019050919050565b6000614716602683615269565b9150614721826157bd565b604082019050919050565b6000614739602583615269565b91506147448261580c565b604082019050919050565b600061475c601c83615269565b91506147678261585b565b602082019050919050565b600061477f602483615269565b915061478a82615884565b604082019050919050565b60006147a2601983615269565b91506147ad826158d3565b602082019050919050565b60006147c5602683615269565b91506147d0826158fc565b604082019050919050565b60006147e8602c83615269565b91506147f38261594b565b604082019050919050565b600061480b602883615269565b91506148168261599a565b604082019050919050565b600061482e603883615269565b9150614839826159e9565b604082019050919050565b6000614851602a83615269565b915061485c82615a38565b604082019050919050565b6000614874602983615269565b915061487f82615a87565b604082019050919050565b6000614897602e83615269565b91506148a282615ad6565b604082019050919050565b60006148ba602083615269565b91506148c582615b25565b602082019050919050565b60006148dd603183615269565b91506148e882615b4e565b604082019050919050565b6000614900602c83615269565b915061490b82615b9d565b604082019050919050565b600061492360058361527a565b915061492e82615bec565b600582019050919050565b6000614946601d83615269565b915061495182615c15565b602082019050919050565b6000614969602083615269565b915061497482615c3e565b602082019050919050565b600061498c602f83615269565b915061499782615c67565b604082019050919050565b60006149af601583615269565b91506149ba82615cb6565b602082019050919050565b60006149d2602183615269565b91506149dd82615cdf565b604082019050919050565b60006149f5600083615269565b9150614a0082615d2e565b600082019050919050565b6000614a18603183615269565b9150614a2382615d31565b604082019050919050565b6000614a3b601d83615269565b9150614a4682615d80565b602082019050919050565b6000614a5e602a83615269565b9150614a6982615da9565b604082019050919050565b614a7d81615435565b82525050565b614a8c81615471565b82525050565b614a9b81615471565b82525050565b6000614aad8284614619565b915081905092915050565b6000614ac48284614692565b915081905092915050565b6000614adb8285614692565b9150614ae78284614692565b91508190509392505050565b6000614aff8285614692565b9150614b0b8284614692565b9150614b1682614916565b91508190509392505050565b6000602082019050614b376000830184614506565b92915050565b6000604082019050614b526000830185614506565b614b5f6020830184614506565b9392505050565b6000606082019050614b7b6000830186614506565b614b886020830185614506565b614b956040830184614a92565b949350505050565b6000608082019050614bb26000830187614506565b614bbf6020830186614506565b614bcc6040830185614a92565b8181036060830152614bde81846145e0565b905095945050505050565b6000604082019050614bfe6000830185614506565b614c0b6020830184614a92565b9392505050565b6000602082019050614c2760008301846145d1565b92915050565b6000602082019050614c42600083018461464a565b92915050565b60006020820190508181036000830152614c628184614659565b905092915050565b60006040820190508181036000830152614c848185614659565b90508181036020830152614c988184614515565b90509392505050565b60006040820190508181036000830152614cbb8185614659565b90508181036020830152614ccf8184614573565b90509392505050565b60006080820190508181036000830152614cf28187614659565b9050614d016020830186614a74565b614d0e60408301856145d1565b614d1b6060830184614a92565b95945050505050565b60006080820190508181036000830152614d3e8187614659565b9050614d4d6020830186614a74565b614d5a6040830185614a92565b614d6760608301846145d1565b95945050505050565b60006020820190508181036000830152614d89816146c3565b9050919050565b60006020820190508181036000830152614da9816146e6565b9050919050565b60006020820190508181036000830152614dc981614709565b9050919050565b60006020820190508181036000830152614de98161472c565b9050919050565b60006020820190508181036000830152614e098161474f565b9050919050565b60006020820190508181036000830152614e2981614772565b9050919050565b60006020820190508181036000830152614e4981614795565b9050919050565b60006020820190508181036000830152614e69816147b8565b9050919050565b60006020820190508181036000830152614e89816147db565b9050919050565b60006020820190508181036000830152614ea9816147fe565b9050919050565b60006020820190508181036000830152614ec981614821565b9050919050565b60006020820190508181036000830152614ee981614844565b9050919050565b60006020820190508181036000830152614f0981614867565b9050919050565b60006020820190508181036000830152614f298161488a565b9050919050565b60006020820190508181036000830152614f49816148ad565b9050919050565b60006020820190508181036000830152614f69816148d0565b9050919050565b60006020820190508181036000830152614f89816148f3565b9050919050565b60006020820190508181036000830152614fa981614939565b9050919050565b60006020820190508181036000830152614fc98161495c565b9050919050565b60006020820190508181036000830152614fe98161497f565b9050919050565b60006020820190508181036000830152615009816149a2565b9050919050565b60006020820190508181036000830152615029816149c5565b9050919050565b60006020820190508181036000830152615049816149e8565b9050919050565b6000602082019050818103600083015261506981614a0b565b9050919050565b6000602082019050818103600083015261508981614a2e565b9050919050565b600060208201905081810360008301526150a981614a51565b9050919050565b60006020820190506150c56000830184614a74565b92915050565b60006020820190506150e06000830184614a92565b92915050565b60006150f0615101565b90506150fc828261553d565b919050565b6000604051905090565b600067ffffffffffffffff821115615126576151256156df565b5b602082029050602081019050919050565b600067ffffffffffffffff821115615152576151516156df565b5b602082029050602081019050919050565b600067ffffffffffffffff82111561517e5761517d6156df565b5b6151878261570e565b9050602081019050919050565b600067ffffffffffffffff8211156151af576151ae6156df565b5b6151b88261570e565b9050602081019050919050565b6000819050602082019050919050565b6000819050602082019050919050565b600081519050919050565b600081519050919050565b600081519050919050565b600081519050919050565b6000602082019050919050565b6000602082019050919050565b600082825260208201905092915050565b600082825260208201905092915050565b600082825260208201905092915050565b600081905092915050565b600082825260208201905092915050565b600081905092915050565b600061529082615435565b915061529b83615435565b9250826fffffffffffffffffffffffffffffffff038211156152c0576152bf615652565b5b828201905092915050565b60006152d682615471565b91506152e183615471565b9250827fffffffffffffffffffffffffffffffffffffffffffffffffffffffffffffffff0382111561531657615315615652565b5b828201905092915050565b600061532c82615435565b915061533783615435565b92508261534757615346615681565b5b828204905092915050565b600061535d82615471565b915061536883615471565b92508261537857615377615681565b5b828204905092915050565b600061538e82615435565b915061539983615435565b9250828210156153ac576153ab615652565b5b828203905092915050565b60006153c282615471565b91506153cd83615471565b9250828210156153e0576153df615652565b5b828203905092915050565b60006153f682615451565b9050919050565b60008115159050919050565b60007fffffffff0000000000000000000000000000000000000000000000000000000082169050919050565b60006fffffffffffffffffffffffffffffffff82169050919050565b600073ffffffffffffffffffffffffffffffffffffffff82169050919050565b6000819050919050565b60006154868261548d565b9050919050565b600061549882615451565b9050919050565b82818337600083830152505050565b60005b838110156154cc5780820151818401526020810190506154b1565b838111156154db576000848401525b50505050565b60006154ec82615435565b91506000821415615500576154ff615652565b5b600182039050919050565b6000600282049050600182168061552357607f821691505b60208210811415615537576155366156b0565b5b50919050565b6155468261570e565b810181811067ffffffffffffffff82111715615565576155646156df565b5b80604052505050565b600061557982615435565b91506fffffffffffffffffffffffffffffffff82141561559c5761559b615652565b5b600182019050919050565b60006155b282615471565b91507fffffffffffffffffffffffffffffffffffffffffffffffffffffffffffffffff8214156155e5576155e4615652565b5b600182019050919050565b60006155fb82615435565b915061560683615435565b92508261561657615615615681565b5b828206905092915050565b600061562c82615471565b915061563783615471565b92508261564757615646615681565b5b828206905092915050565b7f4e487b7100000000000000000000000000000000000000000000000000000000600052601160045260246000fd5b7f4e487b7100000000000000000000000000000000000000000000000000000000600052601260045260246000fd5b7f4e487b7100000000000000000000000000000000000000000000000000000000600052602260045260246000fd5b7f4e487b7100000000000000000000000000000000000000000000000000000000600052604160045260246000fd5b6000601f19601f8301169050919050565b7f5061796d656e743a206163636f756e74206973206e6f7420647565207061796d60008201527f656e740000000000000000000000000000000000000000000000000000000000602082015250565b7f4552433732313a207472616e7366657220746f206e6f6e20455243373231526560008201527f63656976657220696d706c656d656e7465720000000000000000000000000000602082015250565b7f4f776e61626c653a206e6577206f776e657220697320746865207a65726f206160008201527f6464726573730000000000000000000000000000000000000000000000000000602082015250565b7f4552433732313a207472616e736665722066726f6d20696e636f72726563742060008201527f6f776e6572000000000000000000000000000000000000000000000000000000602082015250565b7f4552433732313a20746f6b656e20616c7265616479206d696e74656400000000600082015250565b7f4552433732313a207472616e7366657220746f20746865207a65726f2061646460008201527f7265737300000000000000000000000000000000000000000000000000000000602082015250565b7f4552433732313a20617070726f766520746f2063616c6c657200000000000000600082015250565b7f416464726573733a20696e73756666696369656e742062616c616e636520666f60008201527f722063616c6c0000000000000000000000000000000000000000000000000000602082015250565b7f4552433732313a206f70657261746f7220717565727920666f72206e6f6e657860008201527f697374656e7420746f6b656e0000000000000000000000000000000000000000602082015250565b7f5061796d656e743a20496e73756666696369656e742062616c616e6365206f6660008201527f2063726561746f72000000000000000000000000000000000000000000000000602082015250565b7f4552433732313a20617070726f76652063616c6c6572206973206e6f74206f7760008201527f6e6572206e6f7220617070726f76656420666f7220616c6c0000000000000000602082015250565b7f4552433732313a2062616c616e636520717565727920666f7220746865207a6560008201527f726f206164647265737300000000000000000000000000000000000000000000602082015250565b7f4552433732313a206f776e657220717565727920666f72206e6f6e657869737460008201527f656e7420746f6b656e0000000000000000000000000000000000000000000000602082015250565b7f45524337323155524953746f726167653a2055524920736574206f66206e6f6e60008201527f6578697374656e7420746f6b656e000000000000000000000000000000000000602082015250565b7f4552433732313a206d696e7420746f20746865207a65726f2061646472657373600082015250565b7f45524337323155524953746f726167653a2055524920717565727920666f722060008201527f6e6f6e6578697374656e7420746f6b656e000000000000000000000000000000602082015250565b7f4552433732313a20617070726f76656420717565727920666f72206e6f6e657860008201527f697374656e7420746f6b656e0000000000000000000000000000000000000000602082015250565b7f2e6a736f6e000000000000000000000000000000000000000000000000000000600082015250565b7f5061796d656e743a20496e73756666696369656e742062616c616e6365000000600082015250565b7f4f776e61626c653a2063616c6c6572206973206e6f7420746865206f776e6572600082015250565b7f4552433732314d657461646174613a2055524920717565727920666f72206e6f60008201527f6e6578697374656e7420746f6b656e0000000000000000000000000000000000602082015250565b7f5061796d656e743a204e6f7420617070726f7665640000000000000000000000600082015250565b7f4552433732313a20617070726f76616c20746f2063757272656e74206f776e6560008201527f7200000000000000000000000000000000000000000000000000000000000000602082015250565b50565b7f4552433732313a207472616e736665722063616c6c6572206973206e6f74206f60008201527f776e6572206e6f7220617070726f766564000000000000000000000000000000602082015250565b7f416464726573733a2063616c6c20746f206e6f6e2d636f6e7472616374000000600082015250565b7f5361666545524332303a204552433230206f7065726174696f6e20646964206e60008201527f6f74207375636365656400000000000000000000000000000000000000000000602082015250565b615e01816153eb565b8114615e0c57600080fd5b50565b615e18816153fd565b8114615e2357600080fd5b50565b615e2f81615409565b8114615e3a57600080fd5b50565b615e4681615435565b8114615e5157600080fd5b50565b615e5d81615471565b8114615e6857600080fd5b5056fea2646970667358221220c7ab789db4f5dccfff1b20f22dc59c49cc6f6c2a70c096ab58dee61cfa7c118064736f6c63430008040033",
  "linkReferences": {},
  "deployedLinkReferences": {}
}