{
  "_format": "hh-sol-artifact-1",
  "contractName": "BountyMaker",
  "sourceName": "contracts/BountyMaker.sol",
  "abi": [
    {
      "inputs": [
        {
          "internalType": "contract IERC20",
          "name": "_token",
          "type": "address"
        }
      ],
      "stateMutability": "nonpayable",
      "type": "constructor"
    },
    {
      "anonymous": false,
      "inputs": [
        {
          "indexed": true,
          "internalType": "address",
          "name": "owner",
          "type": "address"
        },
        {
          "indexed": true,
          "internalType": "address",
          "name": "approved",
          "type": "address"
        },
        {
          "indexed": true,
          "internalType": "uint256",
          "name": "tokenId",
          "type": "uint256"
        }
      ],
      "name": "Approval",
      "type": "event"
    },
    {
      "anonymous": false,
      "inputs": [
        {
          "indexed": true,
          "internalType": "address",
          "name": "owner",
          "type": "address"
        },
        {
          "indexed": true,
          "internalType": "address",
          "name": "operator",
          "type": "address"
        },
        {
          "indexed": false,
          "internalType": "bool",
          "name": "approved",
          "type": "bool"
        }
      ],
      "name": "ApprovalForAll",
      "type": "event"
    },
    {
      "anonymous": false,
      "inputs": [
        {
          "indexed": false,
          "internalType": "string",
          "name": "_bountyId",
          "type": "string"
        },
        {
          "indexed": false,
          "internalType": "uint256[]",
          "name": "_rewards",
          "type": "uint256[]"
        }
      ],
      "name": "BountyCreated",
      "type": "event"
    },
    {
      "anonymous": false,
      "inputs": [
        {
          "indexed": true,
          "internalType": "address",
          "name": "_receiver",
          "type": "address"
        },
        {
          "indexed": false,
          "internalType": "string",
          "name": "_bountyId",
          "type": "string"
        },
        {
          "indexed": false,
          "internalType": "uint128",
          "name": "_bountyIndex",
          "type": "uint128"
        },
        {
          "indexed": false,
          "internalType": "uint256",
          "name": "_contractIndex",
          "type": "uint256"
        },
        {
          "indexed": false,
          "internalType": "bool",
          "name": "_isAdmin",
          "type": "bool"
        }
      ],
      "name": "Claim",
      "type": "event"
    },
    {
      "anonymous": false,
      "inputs": [
        {
          "indexed": true,
          "internalType": "contract IERC20",
          "name": "token",
          "type": "address"
        },
        {
          "indexed": false,
          "internalType": "address",
          "name": "to",
          "type": "address"
        },
        {
          "indexed": false,
          "internalType": "uint256",
          "name": "amount",
          "type": "uint256"
        }
      ],
      "name": "ERC20PaymentReleased",
      "type": "event"
    },
    {
      "anonymous": false,
      "inputs": [
        {
          "indexed": true,
          "internalType": "address",
          "name": "previousOwner",
          "type": "address"
        },
        {
          "indexed": true,
          "internalType": "address",
          "name": "newOwner",
          "type": "address"
        }
      ],
      "name": "OwnershipTransferred",
      "type": "event"
    },
    {
      "anonymous": false,
      "inputs": [
        {
          "indexed": true,
          "internalType": "address",
          "name": "from",
          "type": "address"
        },
        {
          "indexed": true,
          "internalType": "address",
          "name": "to",
          "type": "address"
        },
        {
          "indexed": true,
          "internalType": "uint256",
          "name": "tokenId",
          "type": "uint256"
        }
      ],
      "name": "Transfer",
      "type": "event"
    },
    {
      "anonymous": false,
      "inputs": [
        {
          "indexed": false,
          "internalType": "string",
          "name": "_bountyId",
          "type": "string"
        },
        {
          "indexed": false,
          "internalType": "address[]",
          "name": "_winners",
          "type": "address[]"
        }
      ],
      "name": "WinnersDeclared",
      "type": "event"
    },
    {
      "inputs": [
        {
          "internalType": "string",
          "name": "_bountyId",
          "type": "string"
        },
        {
          "internalType": "address",
          "name": "to",
          "type": "address"
        }
      ],
      "name": "adminClaimToken",
      "outputs": [
        {
          "internalType": "uint256",
          "name": "",
          "type": "uint256"
        }
      ],
      "stateMutability": "nonpayable",
      "type": "function"
    },
    {
      "inputs": [
        {
          "internalType": "address",
          "name": "_admin",
          "type": "address"
        }
      ],
      "name": "amIAdmin",
      "outputs": [
        {
          "internalType": "bool",
          "name": "",
          "type": "bool"
        }
      ],
      "stateMutability": "view",
      "type": "function"
    },
    {
      "inputs": [
        {
          "internalType": "address",
          "name": "to",
          "type": "address"
        },
        {
          "internalType": "uint256",
          "name": "tokenId",
          "type": "uint256"
        }
      ],
      "name": "approve",
      "outputs": [],
      "stateMutability": "nonpayable",
      "type": "function"
    },
    {
      "inputs": [
        {
          "internalType": "address",
          "name": "owner",
          "type": "address"
        }
      ],
      "name": "balanceOf",
      "outputs": [
        {
          "internalType": "uint256",
          "name": "",
          "type": "uint256"
        }
      ],
      "stateMutability": "view",
      "type": "function"
    },
    {
      "inputs": [
        {
          "internalType": "string",
          "name": "",
          "type": "string"
        }
      ],
      "name": "bountys",
      "outputs": [
        {
          "internalType": "string",
          "name": "uri",
          "type": "string"
        },
        {
          "internalType": "string",
          "name": "metadata",
          "type": "string"
        },
        {
          "internalType": "uint128",
          "name": "tokenLimit",
          "type": "uint128"
        },
        {
          "internalType": "bool",
          "name": "active",
          "type": "bool"
        },
        {
          "internalType": "uint256",
          "name": "endTime",
          "type": "uint256"
        }
      ],
      "stateMutability": "view",
      "type": "function"
    },
    {
      "inputs": [
        {
          "internalType": "string",
          "name": "_bountyId",
          "type": "string"
        }
      ],
      "name": "claimToken",
      "outputs": [
        {
          "internalType": "uint256",
          "name": "",
          "type": "uint256"
        }
      ],
      "stateMutability": "nonpayable",
      "type": "function"
    },
    {
      "inputs": [
        {
          "internalType": "address",
          "name": "",
          "type": "address"
        },
        {
          "internalType": "string",
          "name": "",
          "type": "string"
        }
      ],
      "name": "claimed",
      "outputs": [
        {
          "internalType": "uint256",
          "name": "",
          "type": "uint256"
        }
      ],
      "stateMutability": "view",
      "type": "function"
    },
    {
      "inputs": [
        {
          "internalType": "string",
          "name": "_bountyId",
          "type": "string"
        },
        {
          "internalType": "string",
          "name": "uri",
          "type": "string"
        },
        {
          "internalType": "string",
          "name": "metadata",
          "type": "string"
        },
        {
          "internalType": "uint128",
          "name": "_tokenLimit",
          "type": "uint128"
        },
        {
          "internalType": "uint256[]",
          "name": "_rewards",
          "type": "uint256[]"
        },
        {
          "internalType": "uint256",
          "name": "_endTime",
          "type": "uint256"
        }
      ],
      "name": "createBounty",
      "outputs": [],
      "stateMutability": "nonpayable",
      "type": "function"
    },
    {
      "inputs": [
        {
          "internalType": "uint256",
          "name": "tokenId",
          "type": "uint256"
        }
      ],
      "name": "getApproved",
      "outputs": [
        {
          "internalType": "address",
          "name": "",
          "type": "address"
        }
      ],
      "stateMutability": "view",
      "type": "function"
    },
    {
      "inputs": [
        {
          "internalType": "string",
          "name": "_bountyId",
          "type": "string"
        }
      ],
      "name": "getBountyAdmin",
      "outputs": [
        {
          "internalType": "address",
          "name": "",
          "type": "address"
        }
      ],
      "stateMutability": "view",
      "type": "function"
    },
    {
      "inputs": [
        {
          "internalType": "address",
          "name": "owner",
          "type": "address"
        },
        {
          "internalType": "address",
          "name": "operator",
          "type": "address"
        }
      ],
      "name": "isApprovedForAll",
      "outputs": [
        {
          "internalType": "bool",
          "name": "",
          "type": "bool"
        }
      ],
      "stateMutability": "view",
      "type": "function"
    },
    {
      "inputs": [],
      "name": "name",
      "outputs": [
        {
          "internalType": "string",
          "name": "",
          "type": "string"
        }
      ],
      "stateMutability": "view",
      "type": "function"
    },
    {
      "inputs": [],
      "name": "owner",
      "outputs": [
        {
          "internalType": "address",
          "name": "",
          "type": "address"
        }
      ],
      "stateMutability": "view",
      "type": "function"
    },
    {
      "inputs": [
        {
          "internalType": "uint256",
          "name": "tokenId",
          "type": "uint256"
        }
      ],
      "name": "ownerOf",
      "outputs": [
        {
          "internalType": "address",
          "name": "",
          "type": "address"
        }
      ],
      "stateMutability": "view",
      "type": "function"
    },
    {
      "inputs": [],
      "name": "renounceOwnership",
      "outputs": [],
      "stateMutability": "nonpayable",
      "type": "function"
    },
    {
      "inputs": [
        {
          "internalType": "string",
          "name": "",
          "type": "string"
        },
        {
          "internalType": "uint256",
          "name": "",
          "type": "uint256"
        }
      ],
      "name": "rewards",
      "outputs": [
        {
          "internalType": "uint256",
          "name": "",
          "type": "uint256"
        }
      ],
      "stateMutability": "view",
      "type": "function"
    },
    {
      "inputs": [
        {
          "internalType": "address",
          "name": "from",
          "type": "address"
        },
        {
          "internalType": "address",
          "name": "to",
          "type": "address"
        },
        {
          "internalType": "uint256",
          "name": "tokenId",
          "type": "uint256"
        }
      ],
      "name": "safeTransferFrom",
      "outputs": [],
      "stateMutability": "nonpayable",
      "type": "function"
    },
    {
      "inputs": [
        {
          "internalType": "address",
          "name": "from",
          "type": "address"
        },
        {
          "internalType": "address",
          "name": "to",
          "type": "address"
        },
        {
          "internalType": "uint256",
          "name": "tokenId",
          "type": "uint256"
        },
        {
          "internalType": "bytes",
          "name": "_data",
          "type": "bytes"
        }
      ],
      "name": "safeTransferFrom",
      "outputs": [],
      "stateMutability": "nonpayable",
      "type": "function"
    },
    {
      "inputs": [
        {
          "internalType": "address",
          "name": "operator",
          "type": "address"
        },
        {
          "internalType": "bool",
          "name": "approved",
          "type": "bool"
        }
      ],
      "name": "setApprovalForAll",
      "outputs": [],
      "stateMutability": "nonpayable",
      "type": "function"
    },
    {
      "inputs": [
        {
          "internalType": "string",
          "name": "_bountyId",
          "type": "string"
        },
        {
          "internalType": "address[]",
          "name": "_winners",
          "type": "address[]"
        }
      ],
      "name": "setBountyWinners",
      "outputs": [],
      "stateMutability": "nonpayable",
      "type": "function"
    },
    {
      "inputs": [
        {
          "internalType": "bytes4",
          "name": "interfaceId",
          "type": "bytes4"
        }
      ],
      "name": "supportsInterface",
      "outputs": [
        {
          "internalType": "bool",
          "name": "",
          "type": "bool"
        }
      ],
      "stateMutability": "view",
      "type": "function"
    },
    {
      "inputs": [],
      "name": "symbol",
      "outputs": [
        {
          "internalType": "string",
          "name": "",
          "type": "string"
        }
      ],
      "stateMutability": "view",
      "type": "function"
    },
    {
      "inputs": [],
      "name": "token",
      "outputs": [
        {
          "internalType": "contract IERC20",
          "name": "",
          "type": "address"
        }
      ],
      "stateMutability": "view",
      "type": "function"
    },
    {
      "inputs": [
        {
          "internalType": "uint256",
          "name": "tokenId",
          "type": "uint256"
        }
      ],
      "name": "tokenURI",
      "outputs": [
        {
          "internalType": "string",
          "name": "",
          "type": "string"
        }
      ],
      "stateMutability": "view",
      "type": "function"
    },
    {
      "inputs": [
        {
          "internalType": "address",
          "name": "from",
          "type": "address"
        },
        {
          "internalType": "address",
          "name": "to",
          "type": "address"
        },
        {
          "internalType": "uint256",
          "name": "tokenId",
          "type": "uint256"
        }
      ],
      "name": "transferFrom",
      "outputs": [],
      "stateMutability": "nonpayable",
      "type": "function"
    },
    {
      "inputs": [
        {
          "internalType": "address",
          "name": "newOwner",
          "type": "address"
        }
      ],
      "name": "transferOwnership",
      "outputs": [],
      "stateMutability": "nonpayable",
      "type": "function"
    },
    {
      "inputs": [
        {
          "internalType": "address",
          "name": "_admin",
          "type": "address"
        },
        {
          "internalType": "bool",
          "name": "isAdmin",
          "type": "bool"
        }
      ],
      "name": "updateAdmin",
      "outputs": [],
      "stateMutability": "nonpayable",
      "type": "function"
    },
    {
      "inputs": [
        {
          "internalType": "address",
          "name": "",
          "type": "address"
        },
        {
          "internalType": "string",
          "name": "",
          "type": "string"
        }
      ],
      "name": "winners",
      "outputs": [
        {
          "internalType": "uint128",
          "name": "",
          "type": "uint128"
        }
      ],
      "stateMutability": "view",
      "type": "function"
    },
    {
      "stateMutability": "payable",
      "type": "receive"
    }
  ],
  "bytecode": "0x60806040523480156200001157600080fd5b506040516200627138038062006271833981810160405281019062000037919062000359565b6040518060400160405280600b81526020017f626f756e74794d616b65720000000000000000000000000000000000000000008152506040518060400160405280600b81526020017f424f554e54594d414b45520000000000000000000000000000000000000000008152508160009080519060200190620000bb92919062000292565b508060019080519060200190620000d492919062000292565b505050620000f7620000eb620001ae60201b60201c565b620001b660201b60201c565b6001600a60003373ffffffffffffffffffffffffffffffffffffffff1673ffffffffffffffffffffffffffffffffffffffff16815260200190815260200160002060006101000a81548160ff02191690831515021790555080600e60006101000a81548173ffffffffffffffffffffffffffffffffffffffff021916908373ffffffffffffffffffffffffffffffffffffffff160217905550620001a7600f6200027c60201b62001f351760201c565b506200044c565b600033905090565b6000600760009054906101000a900473ffffffffffffffffffffffffffffffffffffffff16905081600760006101000a81548173ffffffffffffffffffffffffffffffffffffffff021916908373ffffffffffffffffffffffffffffffffffffffff1602179055508173ffffffffffffffffffffffffffffffffffffffff168173ffffffffffffffffffffffffffffffffffffffff167f8be0079c531659141344cd1fd0a4f28419497f9722a3daafe3b4186f6b6457e060405160405180910390a35050565b6001816000016000828254019250508190555050565b828054620002a090620003cd565b90600052602060002090601f016020900481019282620002c4576000855562000310565b82601f10620002df57805160ff191683800117855562000310565b8280016001018555821562000310579182015b828111156200030f578251825591602001919060010190620002f2565b5b5090506200031f919062000323565b5090565b5b808211156200033e57600081600090555060010162000324565b5090565b600081519050620003538162000432565b92915050565b6000602082840312156200036c57600080fd5b60006200037c8482850162000342565b91505092915050565b60006200039282620003ad565b9050919050565b6000620003a68262000385565b9050919050565b600073ffffffffffffffffffffffffffffffffffffffff82169050919050565b60006002820490506001821680620003e657607f821691505b60208210811415620003fd57620003fc62000403565b5b50919050565b7f4e487b7100000000000000000000000000000000000000000000000000000000600052602260045260246000fd5b6200043d8162000399565b81146200044957600080fd5b50565b615e15806200045c6000396000f3fe6080604052600436106101bb5760003560e01c8063715018a6116100ec578063b88d4fde1161008a578063dbc1910211610064578063dbc1910214610687578063e985e9c5146106c4578063f2fde38b14610701578063fc0c546a1461072a576101c2565b8063b88d4fde146105e4578063c87b56dd1461060d578063d44b87d11461064a576101c2565b80638da5cb5b116100c65780638da5cb5b1461052857806395d89b4114610553578063a22cb4651461057e578063b7ce9bc0146105a7576101c2565b8063715018a6146104a757806375621cdd146104be57806385553531146104ff576101c2565b806332d70735116101595780635bc0ceb1116101335780635bc0ceb1146103c75780636352211e14610404578063670a6fd91461044157806370a082311461046a576101c2565b806332d707351461032457806342842e0e146103615780635947b86e1461038a576101c2565b8063081812fc11610195578063081812fc14610258578063095ea7b314610295578063163cf2e3146102be57806323b872dd146102fb576101c2565b806301ffc9a7146101c7578063034a7c501461020457806306fdde031461022d576101c2565b366101c257005b600080fd5b3480156101d357600080fd5b506101ee60048036038101906101e99190614144565b610755565b6040516101fb9190614b71565b60405180910390f35b34801561021057600080fd5b5061022b6004803603810190610226919061422b565b610837565b005b34801561023957600080fd5b50610242610bd9565b60405161024f9190614ba7565b60405180910390f35b34801561026457600080fd5b5061027f600480360381019061027a91906143d4565b610c6b565b60405161028c9190614a81565b60405180910390f35b3480156102a157600080fd5b506102bc60048036038101906102b791906140df565b610cf0565b005b3480156102ca57600080fd5b506102e560048036038101906102e091906141d7565b610e08565b6040516102f2919061503f565b60405180910390f35b34801561030757600080fd5b50610322600480360381019061031d9190613f85565b610e7b565b005b34801561033057600080fd5b5061034b60048036038101906103469190613f20565b610edb565b6040516103589190614b71565b60405180910390f35b34801561036d57600080fd5b5061038860048036038101906103839190613f85565b610f31565b005b34801561039657600080fd5b506103b160048036038101906103ac9190614196565b610f51565b6040516103be9190614a81565b60405180910390f35b3480156103d357600080fd5b506103ee60048036038101906103e99190614380565b610f99565b6040516103fb919061503f565b60405180910390f35b34801561041057600080fd5b5061042b600480360381019061042691906143d4565b610fe0565b6040516104389190614a81565b60405180910390f35b34801561044d57600080fd5b506104686004803603810190610463919061404f565b611092565b005b34801561047657600080fd5b50610491600480360381019061048c9190613f20565b611169565b60405161049e919061503f565b60405180910390f35b3480156104b357600080fd5b506104bc611221565b005b3480156104ca57600080fd5b506104e560048036038101906104e09190614196565b6112a9565b6040516104f6959493929190614c37565b60405180910390f35b34801561050b57600080fd5b5061052660048036038101906105219190614297565b61142e565b005b34801561053457600080fd5b5061053d611a59565b60405161054a9190614a81565b60405180910390f35b34801561055f57600080fd5b50610568611a83565b6040516105759190614ba7565b60405180910390f35b34801561058a57600080fd5b506105a560048036038101906105a0919061404f565b611b15565b005b3480156105b357600080fd5b506105ce60048036038101906105c99190614196565b611b2b565b6040516105db919061503f565b60405180910390f35b3480156105f057600080fd5b5061060b60048036038101906106069190613fd4565b611b40565b005b34801561061957600080fd5b50610634600480360381019061062f91906143d4565b611ba2565b6040516106419190614ba7565b60405180910390f35b34801561065657600080fd5b50610671600480360381019061066c919061408b565b611cf4565b60405161067e9190615024565b60405180910390f35b34801561069357600080fd5b506106ae60048036038101906106a9919061408b565b611d48565b6040516106bb919061503f565b60405180910390f35b3480156106d057600080fd5b506106eb60048036038101906106e69190613f49565b611d83565b6040516106f89190614b71565b60405180910390f35b34801561070d57600080fd5b5061072860048036038101906107239190613f20565b611e17565b005b34801561073657600080fd5b5061073f611f0f565b60405161074c9190614b8c565b60405180910390f35b60007f80ac58cd000000000000000000000000000000000000000000000000000000007bffffffffffffffffffffffffffffffffffffffffffffffffffffffff1916827bffffffffffffffffffffffffffffffffffffffffffffffffffffffff1916148061082057507f5b5e139f000000000000000000000000000000000000000000000000000000007bffffffffffffffffffffffffffffffffffffffffffffffffffffffff1916827bffffffffffffffffffffffffffffffffffffffffffffffffffffffff1916145b80610830575061082f82611f4b565b5b9050919050565b60011515600a60003373ffffffffffffffffffffffffffffffffffffffff1673ffffffffffffffffffffffffffffffffffffffff16815260200190815260200160002060009054906101000a900460ff1615151461089457600080fd5b600b826040516108a49190614a17565b908152602001604051809103902060020160109054906101000a900460ff16610902576040517f08c379a00000000000000000000000000000000000000000000000000000000081526004016108f990614fa4565b60405180910390fd5b8051600b836040516109149190614a17565b908152602001604051809103902060020160009054906101000a90046fffffffffffffffffffffffffffffffff166fffffffffffffffffffffffffffffffff1614610994576040517f08c379a000000000000000000000000000000000000000000000000000000000815260040161098b90614fa4565b60405180910390fd5b3373ffffffffffffffffffffffffffffffffffffffff16600c836040516109bb9190614a17565b908152602001604051809103902060009054906101000a900473ffffffffffffffffffffffffffffffffffffffff1673ffffffffffffffffffffffffffffffffffffffff1614610a40576040517f08c379a0000000000000000000000000000000000000000000000000000000008152600401610a3790614fa4565b60405180910390fd5b60005b8151816fffffffffffffffffffffffffffffffff161015610b6157600181610a6b91906151f9565b6009600084846fffffffffffffffffffffffffffffffff1681518110610aba577f4e487b7100000000000000000000000000000000000000000000000000000000600052603260045260246000fd5b602002602001015173ffffffffffffffffffffffffffffffffffffffff1673ffffffffffffffffffffffffffffffffffffffff16815260200190815260200160002084604051610b0a9190614a17565b908152602001604051809103902060006101000a8154816fffffffffffffffffffffffffffffffff02191690836fffffffffffffffffffffffffffffffff1602179055508080610b59906154e2565b915050610a43565b506000600b83604051610b749190614a17565b908152602001604051809103902060020160106101000a81548160ff0219169083151502179055507fbcfc57f228563954707799d8c6d3a1e8935a2b6ac05de8cea23be4ba760595058282604051610bcd929190614bc9565b60405180910390a15050565b606060008054610be89061547f565b80601f0160208091040260200160405190810160405280929190818152602001828054610c149061547f565b8015610c615780601f10610c3657610100808354040283529160200191610c61565b820191906000526020600020905b815481529060010190602001808311610c4457829003601f168201915b5050505050905090565b6000610c7682611fb5565b610cb5576040517f08c379a0000000000000000000000000000000000000000000000000000000008152600401610cac90614ee4565b60405180910390fd5b6004600083815260200190815260200160002060009054906101000a900473ffffffffffffffffffffffffffffffffffffffff169050919050565b6000610cfb82610fe0565b90508073ffffffffffffffffffffffffffffffffffffffff168373ffffffffffffffffffffffffffffffffffffffff161415610d6c576040517f08c379a0000000000000000000000000000000000000000000000000000000008152600401610d6390614f84565b60405180910390fd5b8073ffffffffffffffffffffffffffffffffffffffff16610d8b612021565b73ffffffffffffffffffffffffffffffffffffffff161480610dba5750610db981610db4612021565b611d83565b5b610df9576040517f08c379a0000000000000000000000000000000000000000000000000000000008152600401610df090614e24565b60405180910390fd5b610e038383612029565b505050565b600060011515600a60003373ffffffffffffffffffffffffffffffffffffffff1673ffffffffffffffffffffffffffffffffffffffff16815260200190815260200160002060009054906101000a900460ff16151514610e6757600080fd5b610e73838360016120e2565b905092915050565b610e8c610e86612021565b82612521565b610ecb576040517f08c379a0000000000000000000000000000000000000000000000000000000008152600401610ec290614fc4565b60405180910390fd5b610ed68383836125ff565b505050565b6000600a60008373ffffffffffffffffffffffffffffffffffffffff1673ffffffffffffffffffffffffffffffffffffffff16815260200190815260200160002060009054906101000a900460ff169050919050565b610f4c83838360405180602001604052806000815250611b40565b505050565b6000600c82604051610f639190614a17565b908152602001604051809103902060009054906101000a900473ffffffffffffffffffffffffffffffffffffffff169050919050565b600d828051602081018201805184825260208301602085012081835280955050505050508181548110610fcb57600080fd5b90600052602060002001600091509150505481565b6000806002600084815260200190815260200160002060009054906101000a900473ffffffffffffffffffffffffffffffffffffffff169050600073ffffffffffffffffffffffffffffffffffffffff168173ffffffffffffffffffffffffffffffffffffffff161415611089576040517f08c379a000000000000000000000000000000000000000000000000000000000815260040161108090614e64565b60405180910390fd5b80915050919050565b61109a612021565b73ffffffffffffffffffffffffffffffffffffffff166110b8611a59565b73ffffffffffffffffffffffffffffffffffffffff161461110e576040517f08c379a000000000000000000000000000000000000000000000000000000000815260040161110590614f24565b60405180910390fd5b80600a60008473ffffffffffffffffffffffffffffffffffffffff1673ffffffffffffffffffffffffffffffffffffffff16815260200190815260200160002060006101000a81548160ff0219169083151502179055505050565b60008073ffffffffffffffffffffffffffffffffffffffff168273ffffffffffffffffffffffffffffffffffffffff1614156111da576040517f08c379a00000000000000000000000000000000000000000000000000000000081526004016111d190614e44565b60405180910390fd5b600360008373ffffffffffffffffffffffffffffffffffffffff1673ffffffffffffffffffffffffffffffffffffffff168152602001908152602001600020549050919050565b611229612021565b73ffffffffffffffffffffffffffffffffffffffff16611247611a59565b73ffffffffffffffffffffffffffffffffffffffff161461129d576040517f08c379a000000000000000000000000000000000000000000000000000000000815260040161129490614f24565b60405180910390fd5b6112a76000612866565b565b600b818051602081018201805184825260208301602085012081835280955050505050506000915090508060000180546112e29061547f565b80601f016020809104026020016040519081016040528092919081815260200182805461130e9061547f565b801561135b5780601f106113305761010080835404028352916020019161135b565b820191906000526020600020905b81548152906001019060200180831161133e57829003601f168201915b5050505050908060010180546113709061547f565b80601f016020809104026020016040519081016040528092919081815260200182805461139c9061547f565b80156113e95780601f106113be576101008083540402835291602001916113e9565b820191906000526020600020905b8154815290600101906020018083116113cc57829003601f168201915b5050505050908060020160009054906101000a90046fffffffffffffffffffffffffffffffff16908060020160109054906101000a900460ff16908060030154905085565b60011515600a60003373ffffffffffffffffffffffffffffffffffffffff1673ffffffffffffffffffffffffffffffffffffffff16815260200190815260200160002060009054906101000a900460ff1615151461148b57600080fd5b4281116114cd576040517f08c379a00000000000000000000000000000000000000000000000000000000081526004016114c490614fa4565b60405180910390fd5b6000600b876040516114df9190614a17565b908152602001604051809103902060020160009054906101000a90046fffffffffffffffffffffffffffffffff166fffffffffffffffffffffffffffffffff161461155f576040517f08c379a000000000000000000000000000000000000000000000000000000000815260040161155690614fa4565b60405180910390fd5b6000836fffffffffffffffffffffffffffffffff16116115b4576040517f08c379a00000000000000000000000000000000000000000000000000000000081526004016115ab90614fa4565b60405180910390fd5b8151836fffffffffffffffffffffffffffffffff16101561160a576040517f08c379a000000000000000000000000000000000000000000000000000000000815260040161160190614fa4565b60405180910390fd5b6000805b835181101561167857838181518110611650577f4e487b7100000000000000000000000000000000000000000000000000000000600052603260045260246000fd5b602002602001015182611663919061523f565b915080806116709061551b565b91505061160e565b50600e60009054906101000a900473ffffffffffffffffffffffffffffffffffffffff1673ffffffffffffffffffffffffffffffffffffffff166370a08231336040518263ffffffff1660e01b81526004016116d49190614a81565b60206040518083038186803b1580156116ec57600080fd5b505afa158015611700573d6000803e3d6000fd5b505050506040513d601f19601f8201168201806040525081019061172491906143fd565b8110611765576040517f08c379a000000000000000000000000000000000000000000000000000000000815260040161175c90614e04565b60405180910390fd5b600e60009054906101000a900473ffffffffffffffffffffffffffffffffffffffff1673ffffffffffffffffffffffffffffffffffffffff1663dd62ed3e33306040518363ffffffff1660e01b81526004016117c2929190614a9c565b60206040518083038186803b1580156117da57600080fd5b505afa1580156117ee573d6000803e3d6000fd5b505050506040513d601f19601f8201168201806040525081019061181291906143fd565b8110611853576040517f08c379a000000000000000000000000000000000000000000000000000000000815260040161184a90614f64565b60405180910390fd5b611881600e60009054906101000a900473ffffffffffffffffffffffffffffffffffffffff1633308461292c565b60006040518060a00160405280888152602001878152602001866fffffffffffffffffffffffffffffffff16815260200160011515815260200184815250905033600c896040516118d29190614a17565b908152602001604051809103902060006101000a81548173ffffffffffffffffffffffffffffffffffffffff021916908373ffffffffffffffffffffffffffffffffffffffff16021790555083600d8960405161192f9190614a17565b90815260200160405180910390209080519060200190611950929190613b8c565b5080600b896040516119629190614a17565b9081526020016040518091039020600082015181600001908051906020019061198c929190613bd9565b5060208201518160010190805190602001906119a9929190613bd9565b5060408201518160020160006101000a8154816fffffffffffffffffffffffffffffffff02191690836fffffffffffffffffffffffffffffffff16021790555060608201518160020160106101000a81548160ff021916908315150217905550608082015181600301559050507fa310019f6fd75fa5b16ca49a8a2b046f9b872fa6d6ea4ef1e35fb3e4cf9adec88885604051611a47929190614c00565b60405180910390a15050505050505050565b6000600760009054906101000a900473ffffffffffffffffffffffffffffffffffffffff16905090565b606060018054611a929061547f565b80601f0160208091040260200160405190810160405280929190818152602001828054611abe9061547f565b8015611b0b5780601f10611ae057610100808354040283529160200191611b0b565b820191906000526020600020905b815481529060010190602001808311611aee57829003601f168201915b5050505050905090565b611b27611b20612021565b83836129b5565b5050565b6000611b39823360006120e2565b9050919050565b611b51611b4b612021565b83612521565b611b90576040517f08c379a0000000000000000000000000000000000000000000000000000000008152600401611b8790614fc4565b60405180910390fd5b611b9c84848484612b22565b50505050565b6060611bad82611fb5565b611bec576040517f08c379a0000000000000000000000000000000000000000000000000000000008152600401611be390614ec4565b60405180910390fd5b6000600660008481526020019081526020016000208054611c0c9061547f565b80601f0160208091040260200160405190810160405280929190818152602001828054611c389061547f565b8015611c855780601f10611c5a57610100808354040283529160200191611c85565b820191906000526020600020905b815481529060010190602001808311611c6857829003601f168201915b505050505090506000611c96612b7e565b9050600081511415611cac578192505050611cef565b600082511115611ce1578082604051602001611cc9929190614a2e565b60405160208183030381529060405292505050611cef565b611cea84612b95565b925050505b919050565b6009602052816000526040600020818051602081018201805184825260208301602085012081835280955050505050506000915091509054906101000a90046fffffffffffffffffffffffffffffffff1681565b600860205281600052604060002081805160208101820180518482526020830160208501208183528095505050505050600091509150505481565b6000600560008473ffffffffffffffffffffffffffffffffffffffff1673ffffffffffffffffffffffffffffffffffffffff16815260200190815260200160002060008373ffffffffffffffffffffffffffffffffffffffff1673ffffffffffffffffffffffffffffffffffffffff16815260200190815260200160002060009054906101000a900460ff16905092915050565b611e1f612021565b73ffffffffffffffffffffffffffffffffffffffff16611e3d611a59565b73ffffffffffffffffffffffffffffffffffffffff1614611e93576040517f08c379a0000000000000000000000000000000000000000000000000000000008152600401611e8a90614f24565b60405180910390fd5b600073ffffffffffffffffffffffffffffffffffffffff168173ffffffffffffffffffffffffffffffffffffffff161415611f03576040517f08c379a0000000000000000000000000000000000000000000000000000000008152600401611efa90614d24565b60405180910390fd5b611f0c81612866565b50565b600e60009054906101000a900473ffffffffffffffffffffffffffffffffffffffff1681565b6001816000016000828254019250508190555050565b60007f01ffc9a7000000000000000000000000000000000000000000000000000000007bffffffffffffffffffffffffffffffffffffffffffffffffffffffff1916827bffffffffffffffffffffffffffffffffffffffffffffffffffffffff1916149050919050565b60008073ffffffffffffffffffffffffffffffffffffffff166002600084815260200190815260200160002060009054906101000a900473ffffffffffffffffffffffffffffffffffffffff1673ffffffffffffffffffffffffffffffffffffffff1614159050919050565b600033905090565b816004600083815260200190815260200160002060006101000a81548173ffffffffffffffffffffffffffffffffffffffff021916908373ffffffffffffffffffffffffffffffffffffffff160217905550808273ffffffffffffffffffffffffffffffffffffffff1661209c83610fe0565b73ffffffffffffffffffffffffffffffffffffffff167f8c5be1e5ebec7d5bd14f71427d1e84f3dd0314c0f7b2291e5b200ac8c7c3b92560405160405180910390a45050565b60008383600b826040516120f69190614a17565b908152602001604051809103902060020160109054906101000a900460ff161561211f57600080fd5b6000600960008373ffffffffffffffffffffffffffffffffffffffff1673ffffffffffffffffffffffffffffffffffffffff1681526020019081526020016000208360405161216e9190614a17565b908152602001604051809103902060009054906101000a90046fffffffffffffffffffffffffffffffff166fffffffffffffffffffffffffffffffff16116121b557600080fd5b6000600860008373ffffffffffffffffffffffffffffffffffffffff1673ffffffffffffffffffffffffffffffffffffffff168152602001908152602001600020836040516122049190614a17565b9081526020016040518091039020541461221d57600080fd5b6000600960008773ffffffffffffffffffffffffffffffffffffffff1673ffffffffffffffffffffffffffffffffffffffff1681526020019081526020016000208760405161226c9190614a17565b908152602001604051809103902060009054906101000a90046fffffffffffffffffffffffffffffffff1690506000600b886040516122ab9190614a17565b908152602001604051809103902060000180546122c79061547f565b80601f01602080910402602001604051908101604052809291908181526020018280546122f39061547f565b80156123405780601f1061231557610100808354040283529160200191612340565b820191906000526020600020905b81548152906001019060200180831161232357829003601f168201915b5050505050905060008161235384612c3c565b604051602001612364929190614a52565b60405160208183030381529060405290506000612381600f612e49565b905080600860008b73ffffffffffffffffffffffffffffffffffffffff1673ffffffffffffffffffffffffffffffffffffffff1681526020019081526020016000208b6040516123d19190614a17565b9081526020016040518091039020819055506123ed8982612e57565b8873ffffffffffffffffffffffffffffffffffffffff167f436ed5ad57b88689854d2b756b16ffc1e461f71b9c88bc4316a6b58e9d7fc8098b86848c6040516124399493929190614c98565b60405180910390a261244b8183612e75565b612455600f611f35565b600d8a6040516124659190614a17565b908152602001604051809103902080549050600960008b73ffffffffffffffffffffffffffffffffffffffff1673ffffffffffffffffffffffffffffffffffffffff1681526020019081526020016000208b6040516124c49190614a17565b908152602001604051809103902060009054906101000a90046fffffffffffffffffffffffffffffffff166fffffffffffffffffffffffffffffffff161161251157612510898b612ee9565b5b8096505050505050509392505050565b600061252c82611fb5565b61256b576040517f08c379a000000000000000000000000000000000000000000000000000000000815260040161256290614de4565b60405180910390fd5b600061257683610fe0565b90508073ffffffffffffffffffffffffffffffffffffffff168473ffffffffffffffffffffffffffffffffffffffff1614806125e557508373ffffffffffffffffffffffffffffffffffffffff166125cd84610c6b565b73ffffffffffffffffffffffffffffffffffffffff16145b806125f657506125f58185611d83565b5b91505092915050565b8273ffffffffffffffffffffffffffffffffffffffff1661261f82610fe0565b73ffffffffffffffffffffffffffffffffffffffff1614612675576040517f08c379a000000000000000000000000000000000000000000000000000000000815260040161266c90614d44565b60405180910390fd5b600073ffffffffffffffffffffffffffffffffffffffff168273ffffffffffffffffffffffffffffffffffffffff1614156126e5576040517f08c379a00000000000000000000000000000000000000000000000000000000081526004016126dc90614d84565b60405180910390fd5b6126f0838383613306565b6126fb600082612029565b6001600360008573ffffffffffffffffffffffffffffffffffffffff1673ffffffffffffffffffffffffffffffffffffffff168152602001908152602001600020600082825461274b919061532b565b925050819055506001600360008473ffffffffffffffffffffffffffffffffffffffff1673ffffffffffffffffffffffffffffffffffffffff16815260200190815260200160002060008282546127a2919061523f565b92505081905550816002600083815260200190815260200160002060006101000a81548173ffffffffffffffffffffffffffffffffffffffff021916908373ffffffffffffffffffffffffffffffffffffffff160217905550808273ffffffffffffffffffffffffffffffffffffffff168473ffffffffffffffffffffffffffffffffffffffff167fddf252ad1be2c89b69c2b068fc378daa952ba7f163c4a11628f55a4df523b3ef60405160405180910390a461286183838361330b565b505050565b6000600760009054906101000a900473ffffffffffffffffffffffffffffffffffffffff16905081600760006101000a81548173ffffffffffffffffffffffffffffffffffffffff021916908373ffffffffffffffffffffffffffffffffffffffff1602179055508173ffffffffffffffffffffffffffffffffffffffff168173ffffffffffffffffffffffffffffffffffffffff167f8be0079c531659141344cd1fd0a4f28419497f9722a3daafe3b4186f6b6457e060405160405180910390a35050565b6129af846323b872dd60e01b85858560405160240161294d93929190614ac5565b604051602081830303815290604052907bffffffffffffffffffffffffffffffffffffffffffffffffffffffff19166020820180517bffffffffffffffffffffffffffffffffffffffffffffffffffffffff8381831617835250505050613310565b50505050565b8173ffffffffffffffffffffffffffffffffffffffff168373ffffffffffffffffffffffffffffffffffffffff161415612a24576040517f08c379a0000000000000000000000000000000000000000000000000000000008152600401612a1b90614da4565b60405180910390fd5b80600560008573ffffffffffffffffffffffffffffffffffffffff1673ffffffffffffffffffffffffffffffffffffffff16815260200190815260200160002060008473ffffffffffffffffffffffffffffffffffffffff1673ffffffffffffffffffffffffffffffffffffffff16815260200190815260200160002060006101000a81548160ff0219169083151502179055508173ffffffffffffffffffffffffffffffffffffffff168373ffffffffffffffffffffffffffffffffffffffff167f17307eab39ab6107e8899845ad3d59bd9653f200f220920489ca2b5937696c3183604051612b159190614b71565b60405180910390a3505050565b612b2d8484846125ff565b612b39848484846133d7565b612b78576040517f08c379a0000000000000000000000000000000000000000000000000000000008152600401612b6f90614d04565b60405180910390fd5b50505050565b606060405180602001604052806000815250905090565b6060612ba082611fb5565b612bdf576040517f08c379a0000000000000000000000000000000000000000000000000000000008152600401612bd690614f44565b60405180910390fd5b6000612be9612b7e565b90506000815111612c095760405180602001604052806000815250612c34565b80612c138461356e565b604051602001612c24929190614a2e565b6040516020818303038152906040525b915050919050565b60606000826fffffffffffffffffffffffffffffffff161415612c96576040518060400160405280600181526020017f30000000000000000000000000000000000000000000000000000000000000008152509050612e44565b600082905060005b6000826fffffffffffffffffffffffffffffffff1614612cda578080612cc3906154e2565b915050600a82612cd39190615295565b9150612c9e565b6000816fffffffffffffffffffffffffffffffff1667ffffffffffffffff811115612d2e577f4e487b7100000000000000000000000000000000000000000000000000000000600052604160045260246000fd5b6040519080825280601f01601f191660200182016040528015612d605781602001600182028036833780820191505090505b50905060008290508593505b6000846fffffffffffffffffffffffffffffffff1614612e3c57600a84612d939190615564565b6030612d9f91906151f9565b60f81b8282612dad90615455565b9250826fffffffffffffffffffffffffffffffff1681518110612df9577f4e487b7100000000000000000000000000000000000000000000000000000000600052603260045260246000fd5b60200101907effffffffffffffffffffffffffffffffffffffffffffffffffffffffffffff1916908160001a905350600a84612e359190615295565b9350612d6c565b819450505050505b919050565b600081600001549050919050565b612e7182826040518060200160405280600081525061371b565b5050565b612e7e82611fb5565b612ebd576040517f08c379a0000000000000000000000000000000000000000000000000000000008152600401612eb490614e84565b60405180910390fd5b80600660008481526020019081526020016000209080519060200190612ee4929190613bd9565b505050565b8082600d82604051612efb9190614a17565b908152602001604051809103902080549050600960008373ffffffffffffffffffffffffffffffffffffffff1673ffffffffffffffffffffffffffffffffffffffff16815260200190815260200160002083604051612f5a9190614a17565b908152602001604051809103902060009054906101000a90046fffffffffffffffffffffffffffffffff166fffffffffffffffffffffffffffffffff161115612fa257600080fd5b6000600d84604051612fb49190614a17565b90815260200160405180910390206001600960008873ffffffffffffffffffffffffffffffffffffffff1673ffffffffffffffffffffffffffffffffffffffff168152602001908152602001600020866040516130119190614a17565b908152602001604051809103902060009054906101000a90046fffffffffffffffffffffffffffffffff1661304691906152f7565b6fffffffffffffffffffffffffffffffff168154811061308f577f4e487b7100000000000000000000000000000000000000000000000000000000600052603260045260246000fd5b9060005260206000200154905060008114156130e0576040517f08c379a00000000000000000000000000000000000000000000000000000000081526004016130d790614ce4565b60405180910390fd5b600e60009054906101000a900473ffffffffffffffffffffffffffffffffffffffff1673ffffffffffffffffffffffffffffffffffffffff166370a08231306040518263ffffffff1660e01b815260040161313b9190614a81565b60206040518083038186803b15801561315357600080fd5b505afa158015613167573d6000803e3d6000fd5b505050506040513d601f19601f8201168201806040525081019061318b91906143fd565b8111156131cd576040517f08c379a00000000000000000000000000000000000000000000000000000000081526004016131c490614f04565b60405180910390fd5b6000600960008773ffffffffffffffffffffffffffffffffffffffff1673ffffffffffffffffffffffffffffffffffffffff1681526020019081526020016000208560405161321c9190614a17565b908152602001604051809103902060006101000a8154816fffffffffffffffffffffffffffffffff02191690836fffffffffffffffffffffffffffffffff16021790555061328d600e60009054906101000a900473ffffffffffffffffffffffffffffffffffffffff168683613776565b600e60009054906101000a900473ffffffffffffffffffffffffffffffffffffffff1673ffffffffffffffffffffffffffffffffffffffff167f3be5b7a71e84ed12875d241991c70855ac5817d847039e17a9d895c1ceb0f18a86836040516132f7929190614b48565b60405180910390a25050505050565b505050565b505050565b6000613372826040518060400160405280602081526020017f5361666545524332303a206c6f772d6c6576656c2063616c6c206661696c65648152508573ffffffffffffffffffffffffffffffffffffffff166137fc9092919063ffffffff16565b90506000815111156133d25780806020019051810190613392919061411b565b6133d1576040517f08c379a00000000000000000000000000000000000000000000000000000000081526004016133c890615004565b60405180910390fd5b5b505050565b60006133f88473ffffffffffffffffffffffffffffffffffffffff16613814565b15613561578373ffffffffffffffffffffffffffffffffffffffff1663150b7a02613421612021565b8786866040518563ffffffff1660e01b81526004016134439493929190614afc565b602060405180830381600087803b15801561345d57600080fd5b505af192505050801561348e57506040513d601f19601f8201168201806040525081019061348b919061416d565b60015b613511573d80600081146134be576040519150601f19603f3d011682016040523d82523d6000602084013e6134c3565b606091505b50600081511415613509576040517f08c379a000000000000000000000000000000000000000000000000000000000815260040161350090614d04565b60405180910390fd5b805181602001fd5b63150b7a0260e01b7bffffffffffffffffffffffffffffffffffffffffffffffffffffffff1916817bffffffffffffffffffffffffffffffffffffffffffffffffffffffff191614915050613566565b600190505b949350505050565b606060008214156135b6576040518060400160405280600181526020017f30000000000000000000000000000000000000000000000000000000000000008152509050613716565b600082905060005b600082146135e85780806135d19061551b565b915050600a826135e191906152c6565b91506135be565b60008167ffffffffffffffff81111561362a577f4e487b7100000000000000000000000000000000000000000000000000000000600052604160045260246000fd5b6040519080825280601f01601f19166020018201604052801561365c5781602001600182028036833780820191505090505b5090505b6000851461370f57600182613675919061532b565b9150600a856136849190615595565b6030613690919061523f565b60f81b8183815181106136cc577f4e487b7100000000000000000000000000000000000000000000000000000000600052603260045260246000fd5b60200101907effffffffffffffffffffffffffffffffffffffffffffffffffffffffffffff1916908160001a905350600a8561370891906152c6565b9450613660565b8093505050505b919050565b6137258383613837565b61373260008484846133d7565b613771576040517f08c379a000000000000000000000000000000000000000000000000000000000815260040161376890614d04565b60405180910390fd5b505050565b6137f78363a9059cbb60e01b8484604051602401613795929190614b48565b604051602081830303815290604052907bffffffffffffffffffffffffffffffffffffffffffffffffffffffff19166020820180517bffffffffffffffffffffffffffffffffffffffffffffffffffffffff8381831617835250505050613310565b505050565b606061380b8484600085613a11565b90509392505050565b6000808273ffffffffffffffffffffffffffffffffffffffff163b119050919050565b600073ffffffffffffffffffffffffffffffffffffffff168273ffffffffffffffffffffffffffffffffffffffff1614156138a7576040517f08c379a000000000000000000000000000000000000000000000000000000000815260040161389e90614ea4565b60405180910390fd5b6138b081611fb5565b156138f0576040517f08c379a00000000000000000000000000000000000000000000000000000000081526004016138e790614d64565b60405180910390fd5b6138fc60008383613306565b6001600360008473ffffffffffffffffffffffffffffffffffffffff1673ffffffffffffffffffffffffffffffffffffffff168152602001908152602001600020600082825461394c919061523f565b92505081905550816002600083815260200190815260200160002060006101000a81548173ffffffffffffffffffffffffffffffffffffffff021916908373ffffffffffffffffffffffffffffffffffffffff160217905550808273ffffffffffffffffffffffffffffffffffffffff16600073ffffffffffffffffffffffffffffffffffffffff167fddf252ad1be2c89b69c2b068fc378daa952ba7f163c4a11628f55a4df523b3ef60405160405180910390a4613a0d6000838361330b565b5050565b606082471015613a56576040517f08c379a0000000000000000000000000000000000000000000000000000000008152600401613a4d90614dc4565b60405180910390fd5b613a5f85613814565b613a9e576040517f08c379a0000000000000000000000000000000000000000000000000000000008152600401613a9590614fe4565b60405180910390fd5b6000808673ffffffffffffffffffffffffffffffffffffffff168587604051613ac79190614a00565b60006040518083038185875af1925050503d8060008114613b04576040519150601f19603f3d011682016040523d82523d6000602084013e613b09565b606091505b5091509150613b19828286613b25565b92505050949350505050565b60608315613b3557829050613b85565b600083511115613b485782518084602001fd5b816040517f08c379a0000000000000000000000000000000000000000000000000000000008152600401613b7c9190614ba7565b60405180910390fd5b9392505050565b828054828255906000526020600020908101928215613bc8579160200282015b82811115613bc7578251825591602001919060010190613bac565b5b509050613bd59190613c5f565b5090565b828054613be59061547f565b90600052602060002090601f016020900481019282613c075760008555613c4e565b82601f10613c2057805160ff1916838001178555613c4e565b82800160010185558215613c4e579182015b82811115613c4d578251825591602001919060010190613c32565b5b509050613c5b9190613c5f565b5090565b5b80821115613c78576000816000905550600101613c60565b5090565b6000613c8f613c8a8461507f565b61505a565b90508083825260208201905082856020860282011115613cae57600080fd5b60005b85811015613cde5781613cc48882613dd0565b845260208401935060208301925050600181019050613cb1565b5050509392505050565b6000613cfb613cf6846150ab565b61505a565b90508083825260208201905082856020860282011115613d1a57600080fd5b60005b85811015613d4a5781613d308882613ef6565b845260208401935060208301925050600181019050613d1d565b5050509392505050565b6000613d67613d62846150d7565b61505a565b905082815260208101848484011115613d7f57600080fd5b613d8a848285615413565b509392505050565b6000613da5613da084615108565b61505a565b905082815260208101848484011115613dbd57600080fd5b613dc8848285615413565b509392505050565b600081359050613ddf81615d6c565b92915050565b600082601f830112613df657600080fd5b8135613e06848260208601613c7c565b91505092915050565b600082601f830112613e2057600080fd5b8135613e30848260208601613ce8565b91505092915050565b600081359050613e4881615d83565b92915050565b600081519050613e5d81615d83565b92915050565b600081359050613e7281615d9a565b92915050565b600081519050613e8781615d9a565b92915050565b600082601f830112613e9e57600080fd5b8135613eae848260208601613d54565b91505092915050565b600082601f830112613ec857600080fd5b8135613ed8848260208601613d92565b91505092915050565b600081359050613ef081615db1565b92915050565b600081359050613f0581615dc8565b92915050565b600081519050613f1a81615dc8565b92915050565b600060208284031215613f3257600080fd5b6000613f4084828501613dd0565b91505092915050565b60008060408385031215613f5c57600080fd5b6000613f6a85828601613dd0565b9250506020613f7b85828601613dd0565b9150509250929050565b600080600060608486031215613f9a57600080fd5b6000613fa886828701613dd0565b9350506020613fb986828701613dd0565b9250506040613fca86828701613ef6565b9150509250925092565b60008060008060808587031215613fea57600080fd5b6000613ff887828801613dd0565b945050602061400987828801613dd0565b935050604061401a87828801613ef6565b925050606085013567ffffffffffffffff81111561403757600080fd5b61404387828801613e8d565b91505092959194509250565b6000806040838503121561406257600080fd5b600061407085828601613dd0565b925050602061408185828601613e39565b9150509250929050565b6000806040838503121561409e57600080fd5b60006140ac85828601613dd0565b925050602083013567ffffffffffffffff8111156140c957600080fd5b6140d585828601613eb7565b9150509250929050565b600080604083850312156140f257600080fd5b600061410085828601613dd0565b925050602061411185828601613ef6565b9150509250929050565b60006020828403121561412d57600080fd5b600061413b84828501613e4e565b91505092915050565b60006020828403121561415657600080fd5b600061416484828501613e63565b91505092915050565b60006020828403121561417f57600080fd5b600061418d84828501613e78565b91505092915050565b6000602082840312156141a857600080fd5b600082013567ffffffffffffffff8111156141c257600080fd5b6141ce84828501613eb7565b91505092915050565b600080604083850312156141ea57600080fd5b600083013567ffffffffffffffff81111561420457600080fd5b61421085828601613eb7565b925050602061422185828601613dd0565b9150509250929050565b6000806040838503121561423e57600080fd5b600083013567ffffffffffffffff81111561425857600080fd5b61426485828601613eb7565b925050602083013567ffffffffffffffff81111561428157600080fd5b61428d85828601613de5565b9150509250929050565b60008060008060008060c087890312156142b057600080fd5b600087013567ffffffffffffffff8111156142ca57600080fd5b6142d689828a01613eb7565b965050602087013567ffffffffffffffff8111156142f357600080fd5b6142ff89828a01613eb7565b955050604087013567ffffffffffffffff81111561431c57600080fd5b61432889828a01613eb7565b945050606061433989828a01613ee1565b935050608087013567ffffffffffffffff81111561435657600080fd5b61436289828a01613e0f565b92505060a061437389828a01613ef6565b9150509295509295509295565b6000806040838503121561439357600080fd5b600083013567ffffffffffffffff8111156143ad57600080fd5b6143b985828601613eb7565b92505060206143ca85828601613ef6565b9150509250929050565b6000602082840312156143e657600080fd5b60006143f484828501613ef6565b91505092915050565b60006020828403121561440f57600080fd5b600061441d84828501613f0b565b91505092915050565b60006144328383614456565b60208301905092915050565b600061444a83836149e2565b60208301905092915050565b61445f8161535f565b82525050565b61446e8161535f565b82525050565b600061447f82615159565b614489818561519f565b935061449483615139565b8060005b838110156144c55781516144ac8882614426565b97506144b783615185565b925050600181019050614498565b5085935050505092915050565b60006144dd82615164565b6144e781856151b0565b93506144f283615149565b8060005b8381101561452357815161450a888261443e565b975061451583615192565b9250506001810190506144f6565b5085935050505092915050565b61453981615371565b82525050565b600061454a8261516f565b61455481856151c1565b9350614564818560208601615422565b61456d81615682565b840191505092915050565b60006145838261516f565b61458d81856151d2565b935061459d818560208601615422565b80840191505092915050565b6145b2816153ef565b82525050565b60006145c38261517a565b6145cd81856151dd565b93506145dd818560208601615422565b6145e681615682565b840191505092915050565b60006145fc8261517a565b61460681856151ee565b9350614616818560208601615422565b80840191505092915050565b600061462f6023836151dd565b915061463a82615693565b604082019050919050565b60006146526032836151dd565b915061465d826156e2565b604082019050919050565b60006146756026836151dd565b915061468082615731565b604082019050919050565b60006146986025836151dd565b91506146a382615780565b604082019050919050565b60006146bb601c836151dd565b91506146c6826157cf565b602082019050919050565b60006146de6024836151dd565b91506146e9826157f8565b604082019050919050565b60006147016019836151dd565b915061470c82615847565b602082019050919050565b60006147246026836151dd565b915061472f82615870565b604082019050919050565b6000614747602c836151dd565b9150614752826158bf565b604082019050919050565b600061476a6028836151dd565b91506147758261590e565b604082019050919050565b600061478d6038836151dd565b91506147988261595d565b604082019050919050565b60006147b0602a836151dd565b91506147bb826159ac565b604082019050919050565b60006147d36029836151dd565b91506147de826159fb565b604082019050919050565b60006147f6602e836151dd565b915061480182615a4a565b604082019050919050565b60006148196020836151dd565b915061482482615a99565b602082019050919050565b600061483c6031836151dd565b915061484782615ac2565b604082019050919050565b600061485f602c836151dd565b915061486a82615b11565b604082019050919050565b60006148826005836151ee565b915061488d82615b60565b600582019050919050565b60006148a5601d836151dd565b91506148b082615b89565b602082019050919050565b60006148c86020836151dd565b91506148d382615bb2565b602082019050919050565b60006148eb602f836151dd565b91506148f682615bdb565b604082019050919050565b600061490e6015836151dd565b915061491982615c2a565b602082019050919050565b60006149316021836151dd565b915061493c82615c53565b604082019050919050565b60006149546000836151dd565b915061495f82615ca2565b600082019050919050565b60006149776031836151dd565b915061498282615ca5565b604082019050919050565b600061499a601d836151dd565b91506149a582615cf4565b602082019050919050565b60006149bd602a836151dd565b91506149c882615d1d565b604082019050919050565b6149dc816153a9565b82525050565b6149eb816153e5565b82525050565b6149fa816153e5565b82525050565b6000614a0c8284614578565b915081905092915050565b6000614a2382846145f1565b915081905092915050565b6000614a3a82856145f1565b9150614a4682846145f1565b91508190509392505050565b6000614a5e82856145f1565b9150614a6a82846145f1565b9150614a7582614875565b91508190509392505050565b6000602082019050614a966000830184614465565b92915050565b6000604082019050614ab16000830185614465565b614abe6020830184614465565b9392505050565b6000606082019050614ada6000830186614465565b614ae76020830185614465565b614af460408301846149f1565b949350505050565b6000608082019050614b116000830187614465565b614b1e6020830186614465565b614b2b60408301856149f1565b8181036060830152614b3d818461453f565b905095945050505050565b6000604082019050614b5d6000830185614465565b614b6a60208301846149f1565b9392505050565b6000602082019050614b866000830184614530565b92915050565b6000602082019050614ba160008301846145a9565b92915050565b60006020820190508181036000830152614bc181846145b8565b905092915050565b60006040820190508181036000830152614be381856145b8565b90508181036020830152614bf78184614474565b90509392505050565b60006040820190508181036000830152614c1a81856145b8565b90508181036020830152614c2e81846144d2565b90509392505050565b600060a0820190508181036000830152614c5181886145b8565b90508181036020830152614c6581876145b8565b9050614c7460408301866149d3565b614c816060830185614530565b614c8e60808301846149f1565b9695505050505050565b60006080820190508181036000830152614cb281876145b8565b9050614cc160208301866149d3565b614cce60408301856149f1565b614cdb6060830184614530565b95945050505050565b60006020820190508181036000830152614cfd81614622565b9050919050565b60006020820190508181036000830152614d1d81614645565b9050919050565b60006020820190508181036000830152614d3d81614668565b9050919050565b60006020820190508181036000830152614d5d8161468b565b9050919050565b60006020820190508181036000830152614d7d816146ae565b9050919050565b60006020820190508181036000830152614d9d816146d1565b9050919050565b60006020820190508181036000830152614dbd816146f4565b9050919050565b60006020820190508181036000830152614ddd81614717565b9050919050565b60006020820190508181036000830152614dfd8161473a565b9050919050565b60006020820190508181036000830152614e1d8161475d565b9050919050565b60006020820190508181036000830152614e3d81614780565b9050919050565b60006020820190508181036000830152614e5d816147a3565b9050919050565b60006020820190508181036000830152614e7d816147c6565b9050919050565b60006020820190508181036000830152614e9d816147e9565b9050919050565b60006020820190508181036000830152614ebd8161480c565b9050919050565b60006020820190508181036000830152614edd8161482f565b9050919050565b60006020820190508181036000830152614efd81614852565b9050919050565b60006020820190508181036000830152614f1d81614898565b9050919050565b60006020820190508181036000830152614f3d816148bb565b9050919050565b60006020820190508181036000830152614f5d816148de565b9050919050565b60006020820190508181036000830152614f7d81614901565b9050919050565b60006020820190508181036000830152614f9d81614924565b9050919050565b60006020820190508181036000830152614fbd81614947565b9050919050565b60006020820190508181036000830152614fdd8161496a565b9050919050565b60006020820190508181036000830152614ffd8161498d565b9050919050565b6000602082019050818103600083015261501d816149b0565b9050919050565b600060208201905061503960008301846149d3565b92915050565b600060208201905061505460008301846149f1565b92915050565b6000615064615075565b905061507082826154b1565b919050565b6000604051905090565b600067ffffffffffffffff82111561509a57615099615653565b5b602082029050602081019050919050565b600067ffffffffffffffff8211156150c6576150c5615653565b5b602082029050602081019050919050565b600067ffffffffffffffff8211156150f2576150f1615653565b5b6150fb82615682565b9050602081019050919050565b600067ffffffffffffffff82111561512357615122615653565b5b61512c82615682565b9050602081019050919050565b6000819050602082019050919050565b6000819050602082019050919050565b600081519050919050565b600081519050919050565b600081519050919050565b600081519050919050565b6000602082019050919050565b6000602082019050919050565b600082825260208201905092915050565b600082825260208201905092915050565b600082825260208201905092915050565b600081905092915050565b600082825260208201905092915050565b600081905092915050565b6000615204826153a9565b915061520f836153a9565b9250826fffffffffffffffffffffffffffffffff03821115615234576152336155c6565b5b828201905092915050565b600061524a826153e5565b9150615255836153e5565b9250827fffffffffffffffffffffffffffffffffffffffffffffffffffffffffffffffff0382111561528a576152896155c6565b5b828201905092915050565b60006152a0826153a9565b91506152ab836153a9565b9250826152bb576152ba6155f5565b5b828204905092915050565b60006152d1826153e5565b91506152dc836153e5565b9250826152ec576152eb6155f5565b5b828204905092915050565b6000615302826153a9565b915061530d836153a9565b9250828210156153205761531f6155c6565b5b828203905092915050565b6000615336826153e5565b9150615341836153e5565b925082821015615354576153536155c6565b5b828203905092915050565b600061536a826153c5565b9050919050565b60008115159050919050565b60007fffffffff0000000000000000000000000000000000000000000000000000000082169050919050565b60006fffffffffffffffffffffffffffffffff82169050919050565b600073ffffffffffffffffffffffffffffffffffffffff82169050919050565b6000819050919050565b60006153fa82615401565b9050919050565b600061540c826153c5565b9050919050565b82818337600083830152505050565b60005b83811015615440578082015181840152602081019050615425565b8381111561544f576000848401525b50505050565b6000615460826153a9565b91506000821415615474576154736155c6565b5b600182039050919050565b6000600282049050600182168061549757607f821691505b602082108114156154ab576154aa615624565b5b50919050565b6154ba82615682565b810181811067ffffffffffffffff821117156154d9576154d8615653565b5b80604052505050565b60006154ed826153a9565b91506fffffffffffffffffffffffffffffffff8214156155105761550f6155c6565b5b600182019050919050565b6000615526826153e5565b91507fffffffffffffffffffffffffffffffffffffffffffffffffffffffffffffffff821415615559576155586155c6565b5b600182019050919050565b600061556f826153a9565b915061557a836153a9565b92508261558a576155896155f5565b5b828206905092915050565b60006155a0826153e5565b91506155ab836153e5565b9250826155bb576155ba6155f5565b5b828206905092915050565b7f4e487b7100000000000000000000000000000000000000000000000000000000600052601160045260246000fd5b7f4e487b7100000000000000000000000000000000000000000000000000000000600052601260045260246000fd5b7f4e487b7100000000000000000000000000000000000000000000000000000000600052602260045260246000fd5b7f4e487b7100000000000000000000000000000000000000000000000000000000600052604160045260246000fd5b6000601f19601f8301169050919050565b7f5061796d656e743a206163636f756e74206973206e6f7420647565207061796d60008201527f656e740000000000000000000000000000000000000000000000000000000000602082015250565b7f4552433732313a207472616e7366657220746f206e6f6e20455243373231526560008201527f63656976657220696d706c656d656e7465720000000000000000000000000000602082015250565b7f4f776e61626c653a206e6577206f776e657220697320746865207a65726f206160008201527f6464726573730000000000000000000000000000000000000000000000000000602082015250565b7f4552433732313a207472616e736665722066726f6d20696e636f72726563742060008201527f6f776e6572000000000000000000000000000000000000000000000000000000602082015250565b7f4552433732313a20746f6b656e20616c7265616479206d696e74656400000000600082015250565b7f4552433732313a207472616e7366657220746f20746865207a65726f2061646460008201527f7265737300000000000000000000000000000000000000000000000000000000602082015250565b7f4552433732313a20617070726f766520746f2063616c6c657200000000000000600082015250565b7f416464726573733a20696e73756666696369656e742062616c616e636520666f60008201527f722063616c6c0000000000000000000000000000000000000000000000000000602082015250565b7f4552433732313a206f70657261746f7220717565727920666f72206e6f6e657860008201527f697374656e7420746f6b656e0000000000000000000000000000000000000000602082015250565b7f5061796d656e743a20496e73756666696369656e742062616c616e6365206f6660008201527f2063726561746f72000000000000000000000000000000000000000000000000602082015250565b7f4552433732313a20617070726f76652063616c6c6572206973206e6f74206f7760008201527f6e6572206e6f7220617070726f76656420666f7220616c6c0000000000000000602082015250565b7f4552433732313a2062616c616e636520717565727920666f7220746865207a6560008201527f726f206164647265737300000000000000000000000000000000000000000000602082015250565b7f4552433732313a206f776e657220717565727920666f72206e6f6e657869737460008201527f656e7420746f6b656e0000000000000000000000000000000000000000000000602082015250565b7f45524337323155524953746f726167653a2055524920736574206f66206e6f6e60008201527f6578697374656e7420746f6b656e000000000000000000000000000000000000602082015250565b7f4552433732313a206d696e7420746f20746865207a65726f2061646472657373600082015250565b7f45524337323155524953746f726167653a2055524920717565727920666f722060008201527f6e6f6e6578697374656e7420746f6b656e000000000000000000000000000000602082015250565b7f4552433732313a20617070726f76656420717565727920666f72206e6f6e657860008201527f697374656e7420746f6b656e0000000000000000000000000000000000000000602082015250565b7f2e6a736f6e000000000000000000000000000000000000000000000000000000600082015250565b7f5061796d656e743a20496e73756666696369656e742062616c616e6365000000600082015250565b7f4f776e61626c653a2063616c6c6572206973206e6f7420746865206f776e6572600082015250565b7f4552433732314d657461646174613a2055524920717565727920666f72206e6f60008201527f6e6578697374656e7420746f6b656e0000000000000000000000000000000000602082015250565b7f5061796d656e743a204e6f7420617070726f7665640000000000000000000000600082015250565b7f4552433732313a20617070726f76616c20746f2063757272656e74206f776e6560008201527f7200000000000000000000000000000000000000000000000000000000000000602082015250565b50565b7f4552433732313a207472616e736665722063616c6c6572206973206e6f74206f60008201527f776e6572206e6f7220617070726f766564000000000000000000000000000000602082015250565b7f416464726573733a2063616c6c20746f206e6f6e2d636f6e7472616374000000600082015250565b7f5361666545524332303a204552433230206f7065726174696f6e20646964206e60008201527f6f74207375636365656400000000000000000000000000000000000000000000602082015250565b615d758161535f565b8114615d8057600080fd5b50565b615d8c81615371565b8114615d9757600080fd5b50565b615da38161537d565b8114615dae57600080fd5b50565b615dba816153a9565b8114615dc557600080fd5b50565b615dd1816153e5565b8114615ddc57600080fd5b5056fea2646970667358221220a13e2a52425d322411077a7f337868a6862ee1124dc73ac2a573b315b01f132364736f6c63430008040033",
  "linkReferences": {},
  "deployedLinkReferences": {}
}